:100000000C9462000C948A000C948A000C948A0070
:100010000C948A000C948A000C948A000C948A0038
:100020000C948A000C948A000C948A000C948A0028
:100030000C948A000C948A000C948A000C948A0018
:100040000C94CD0B0C948A000C94E20A0C94BC0A1C
:100050000C948A000C948A000C948A000C948A00F8
:100060000C94170C0C948A00000000002400270058
:100070002A0000000000250028002B0000000000DE
:1000800023002600290004040404040404040202DA
:100090000202020203030303030301020408102007
:1000A0004080010204081020010204081020000012
:1000B0000008000201000003040700000000000027
:1000C0000000351011241FBECFEFD8E0DEBFCDBF3A
:1000D00011E0A0E0B1E0E6E4F6E202C005900D9286
:1000E000A83AB107D9F728E0A8EAB1E001C01D920B
:1000F000AC30B207E1F710E0C2E6D0E004C02197CF
:10010000FE010E940F13C136D107C9F70E94DB0E12
:100110000C9421130C940000DC011696ED91FC91D7
:10012000179720E030E040E069E10994DC01169681
:10013000ED91FC91179720E030E040E068E10994F0
:100140009A01DC011696ED91FC911797462F67E115
:100150000994462FDC011696ED91FC91179720E04B
:1001600030E066E10994462FDC011696ED91FC9192
:10017000179720E030E065E10994DC011896ED91D5
:10018000FC91199720E030E040E069E10994DC013E
:100190001896ED91FC91199720E030E040E068E17D
:1001A0000994662329F06A3019F0862F90E00895AB
:1001B0008FEF9FEF08950F93DC01DF963C91DF975F
:1001C000431BD596ED91FC91D69709950F91089513
:1001D000CF93DF93FC01A081B18193AD892F880F6C
:1001E000880F880F86AF50968C915097803208F018
:1001F0008FE1880F880F880F85AF24AD822F880F7D
:10020000880F880F87AF51963C915197422F50E04D
:10021000490F511D632F70E06417750714F4932F75
:10022000921BEF01C05CDF4F8883219628E0929FEC
:10023000800D11248883219680EF888354968D91B8
:100240009C915597813F910508F48883ED5BFF4FA2
:1002500056968C918083DF91CF910895EF92FF9213
:100260000F931F93CF93DF93EC01742F7770E1E02E
:10027000F0E0072E01C0EE0F0A94EAF73E2F7C0152
:100280008AE7E80EF11CD7018C91823028F41E2FEA
:10029000813019F430E001C010E050E0487F89ADB2
:1002A0009AADA881B9815096FC91F49FD001F59F39
:1002B000B00D1124A60FB11DA80FB91F01110BC05D
:1002C0008C91812B83278D932150D1F71CC0110F66
:1002D000330F2223C1F09C91912B93279C937F5F36
:1002E000777021507111F3CF8DADA80FB11DF701BB
:1002F0008081823020F4813021F031E002C031E091
:10030000E8CF11E0E6CFDF91CF911F910F91FF90E1
:10031000EF90089580E00895FC01E60FF11D8491AF
:1003200090E0982F88273196E4918E0F911D0895C3
:10033000CF92DF92EF92FF920F931F93CF93DF93B1
:100340006C01EB017B01E40EF51E00E010E0CE1520
:10035000DF0561F06991D601ED91FC910190F0818A
:10036000E02DC6010995080F191FF1CFC801DF91D3
:10037000CF911F910F91FF90EF90DF90CF90089554
:10038000089580E090E00895EF92FF920F931F93FD
:10039000CF93DF931F92CDB7DEB77C018B01D801DD
:1003A0006C916731E1F078F46531A0F1F801418199
:1003B0004983D7011696ED91FC91179720E030E024
:1003C000C701099524C06A31A8F06E3F19F5F801FC
:1003D0004181498369E2C7010E94410D18C0F801BB
:1003E00081818983AE014F5F5F4F61E0C7010E9449
:1003F000A0000DC00F5F1F4FD7011696ED91FC9125
:10040000179720E030E040E0C7010995C8CF0E5FA4
:100410001F4FC5CF0F90DF91CF911F910F91FF908C
:10042000EF900895EF92FF920F931F93CF93DF9376
:10043000EC01142F79016D30A9F118F46B3039F10A
:100440005FC06E3009F441C06F3009F059C00E949E
:100450009600F70183810C89F8E08F9F000D11242D
:1004600060E4CE010E94B300602F62956F706061FE
:10047000CE010E94B300602F6F70CE010E94A900D0
:10048000F7016481606BCE010E94A90029C041116F
:1004900003C063E171E002C06EE071E0CE010E9432
:1004A000C40171C0411108C067E071E00E94C4013D
:1004B000E881F981828907C060E071E00E94C4018F
:1004C000E881F98183898C8B5EC00E94960061E887
:1004D000CE010E94B300612FCE010E94A9000CC082
:1004E000F701408151816281660F660F660FCE0170
:1004F0000E94A0001150A1F7CE010E948C0043C0C1
:10050000693031F48DE491E0998388831C8A3BC083
:100510006A30B9F5EA85FB8520E030E040E068E22A
:10052000CE010995EE81FF8120E030E040E064E1FA
:10053000CE01099541E06BE4CE010E94410DE881B6
:10054000F981448169E2CE010E94410D40E06BE4F3
:10055000CE010E94410DE881F981448169E2CE011A
:100560000E94410D41E06BE4CE010E94410DE88103
:10057000F981458169E2CE010E94410D68E171E097
:100580008DCF80E001C081E0DF91CF911F910F916D
:10059000FF90EF90089541E06DE40C94410DDC0173
:1005A000ED91FC9145856DE20C94410DCF93DF9365
:1005B000EC0141E06CE40E94410DCE01DF91CF914E
:1005C0000C94CF02CF93DF93EC01662319F00E94C5
:1005D000CB0204C040E06DE40E94410DCE010E94B8
:1005E000CF02CE010E94D60240E06CE4CE01DF9142
:1005F000CF910C94410D1F93CF93DF93EC01162FF5
:1006000060780E94E202612F6074CE010E94E202D3
:10061000612F6072CE010E94E202612F6071CE01F3
:100620000E94E202612F6870CE010E94E202612FF7
:100630006470CE010E94E202612F6270CE010E94BE
:10064000E202612F6170CE010E94E202CE010E949F
:10065000CB02CE010E94CF02CE010E94D602CE0173
:100660000E94CB02CE010E94CF0240E06CE4CE019A
:10067000DF91CF911F910C94410DEF92FF921F9348
:10068000CF93DF93EC01142F7901683129F128F41D
:100690006431A9F0673141F055C0693109F43FC0B8
:1006A000603209F44DC04EC0112309F449C0F7016E
:1006B00061917F01CE010E94FB021150F5CF41E014
:1006C0006CE40E94410D41E06DE4CE010E94410DB9
:1006D000CE010E94CF0234C08F89882349F0CE0119
:1006E0000E94CB02CE010E94CF02CE010E94D60210
:1006F000CE010E94CB0240E06DE4CE010E94410D8C
:10070000CE010E94CF0240E06CE4CE010E94410D78
:1007100081E08F8B6E89CE010E94FB0211C040E008
:100720006DE40E94410DCE010E94CF02CE010E94D5
:10073000D602CE010E94CB02CE010E94CF021F8AB8
:1007400081E001C080E0DF91CF911F91FF90EF9099
:100750000895CF93DF931F92CDB7DEB76983BE01B3
:100760006F5F7F4F0E94B30A0F90DF91CF91089582
:10077000EF92FF921F93CF93DF93EC01162F7A0134
:100780000E94C70060E4CE010E94A903E885F985B4
:100790009701412F67E1CE010995CE01DF91CF91FD
:1007A0001F91FF90EF900C94BD00EF92FF921F936A
:1007B000CF93DF93EC01142F7901663121F128F4F6
:1007C0006431E9F1653149F056C0683109F44FC030
:1007D000F0F0693109F444C04EC08091CC01882307
:1007E00019F0CE010E94BD00CE010E94C70060E05A
:1007F000CE010E94A903612FCE010E94A90381E0CE
:100800008093CC0139C0642F0E94A90332C080912B
:10081000CC01882319F0CE010E94BD00A701193137
:1008200048F068E1CE010E94B803185188E1E80E53
:10083000F11CF4CF612FCE010E94B80318C08E893D
:100840008F3F11F488E78E8BE885F9859701412F5A
:1008500064E1CE01DF91CF911F91FF90EF90099459
:100860008091CC01882319F0CE010E94BD00109226
:10087000CC0181E001C080E0DF91CF911F91FF901A
:10088000EF9008958F929F92AF92BF92CF92DF9296
:10089000EF92FF92CF93DF93EC016C3288F46A32CF
:1008A00008F089C06832B9F0693209F06DC0C42E11
:1008B000D12CE12CF12C0E94A80B4B015C013DC016
:1008C0006D3209F440C008F45FC084EB860F8230BB
:1008D00008F448C059C07C012FE1E20EF11CD0E0C1
:1008E000F70181917F018F3F39F0D03110F461E041
:1008F00001C062E00E946C0BDF5FD63189F75BC0FC
:100900000E94A80BDC01CB0188199909AA09BB092F
:10091000883E9340A105B10580F0F1E0CF1AD108DF
:10092000E108F10828EE820E23E0921EA11CB11C02
:10093000C114D104E104F10419F7C114D104E10494
:10094000F104F1F638C0433018F082E090E002C0C4
:1009500085E090E0880F991F880F991F05970197F0
:10096000F1F729C0862F8F73C80FD11D411107C021
:1009700061E08F8D0E946C0B60E08F8D12C062E091
:100980008F8D0E946C0B17C06034B8F0962F9F7348
:10099000FE01E90FF11D878D8F3F69F0903120F442
:1009A000642F0E943D0B07C00E94140B21E0892B8D
:1009B00009F420E02A8F81E001C080E0DF91CF912F
:1009C000FF90EF90DF90CF90BF90AF909F908F906F
:1009D00008950F93FC01EA5BFF4F308131965081FF
:1009E000451728F4301730F0041720F010C03017E6
:1009F000D8F30DC0FC01EC5BFF4F30813196808154
:100A0000681738F4321740F081E0261730F080E0A4
:100A100004C03217C8F3FBCF81E00F9108952F92E5
:100A20003F924F925F926F927F928F929F92AF927E
:100A3000BF92CF92DF92EF92FF920F931F93CF93CB
:100A4000DF93EC014C0184E4880E911CF4011082C8
:100A5000329720805E01F5E4AF0EB11CF5012082D3
:100A6000359730806E01F6E4CF0ED11CF60130824E
:100A7000359740807E01F7E4EF0EF11CF7014082CC
:100A80003496108132976080319670803297508012
:100A9000012F262D472D652DCE010E94E904CC584B
:100AA000DF4F811102C0188212C081E08883552077
:100AB00011F0F4015082621410F4F50160823714D1
:100AC00010F4F6017082141510F4F7011083DF9111
:100AD000CF911F910F91FF90EF90DF90CF90BF903B
:100AE000AF909F908F907F906F905F904F903F90CE
:100AF0002F9008950F93DC01802FFD01EC58FF4FDC
:100B00009081992309F463C0222309F460C0223044
:100B100048F0023019F46F5F621B04C0033011F417
:100B20004F5F421B082F0170FD0180FD25C0EA5B6D
:100B3000FF4F8081481708F44AC0319680814817DA
:100B400008F045C03297908131978081260F261793
:100B500030F4691718F42FEF290F03C0682F6917B5
:100B6000B0F58217A0F5681708F4682F291708F464
:100B7000922F292F261B22C0EC5BFF4F8081681724
:100B800030F131968081681710F532969081319757
:100B90008081240F241730F4491718F42FEF290F00
:100BA00003C0482F491798F4821788F4481708F4AF
:100BB000482F291708F4922F292F241BD796ED913F
:100BC000FC91D8970480F581E02DCD0109950F9116
:100BD0000895213039F020F0223031F4861B089539
:100BE000860F0895841B0895840F0895213039F0ED
:100BF00020F0223031F4841B0895840F0895860F6D
:100C00000895861B08952F923F924F925F926F92A4
:100C10007F928F929F92AF92BF92CF92DF92EF928C
:100C2000FF920F931F93CF93DF93EC016C0124E0AD
:100C3000C20ED11CFC01E058FF4F0190F081E02D65
:100C4000C60109957C018EEFE8168FEFF80608F0D3
:100C500075C1FE01ED57FF4F10814E0192E8890EDC
:100C6000911CF4010081B29780818130C9F070F04D
:100C7000823001F1833039F5FE01EE5AFF4F0190C9
:100C8000F081E02DC6010995080F1DC0FE01EE5A46
:100C9000FF4F0190F081E02DC6010995180F13C098
:100CA000FE01EE5AFF4F0190F081E02DC60109953B
:100CB000081B09C0FE01EE5AFF4F0190F081E02DA4
:100CC000C6010995181BFE01EA5AFF4F00833196B1
:100CD00010833797808191814796FFEFEF16F104DB
:100CE00009F040F521E6E216F10420F0FE01EC588F
:100CF000FF4F07C0E1E4EE16F10438F0FE01EE58B4
:100D0000FF4F20813181820F931F9C012F5F3F4F46
:100D1000F9014491442309F40FC1FC01449150E0CE
:100D2000E416F50611F4029634C0F9012491820FFD
:100D3000911DEBCFFE01EA58FF4FA080B180A80EB5
:100D4000B91E850160E0C5010E948C01080F191FC2
:100D500062E0C5010E948C01F4E0AF0EB11C8E155B
:100D60009F0580F3F801849190E0982F88273196B1
:100D7000E4918E2B009709F4DFC0E816F90619F408
:100D8000C801039606C0F8013296E4910E0F111DBA
:100D9000E9CF009709F4D0C07E01F4E5EF0EF11C15
:100DA000F70191838083108671966081C7010E944C
:100DB000490DF701868372966081C7010E94490D33
:100DC000782EF70187835E01FEE7AF0EB11CF501B7
:100DD0009081F701928781E0911180E0F70183878C
:100DE000FE01E959FF4F1081612FC7010E94490D93
:100DF0009FEF910F01E010E0980101C0220F9A953A
:100E0000EAF7382E321AFE01E859FF4F6080662D4E
:100E1000C7010E94490D6A94280101C0440C6A94DC
:100E2000EAF7282E270CFE01E759FF4F6080662D58
:100E3000C7010E94490D6A9401C0000F6A94EAF745
:100E4000682E601AF701068110160CF070C05484E9
:100E50004218252D442D632D82810E94E905182F0B
:100E6000F7018283252D442D632D83810E94F60591
:100E7000F7018383F1E05F16B1F05F1678F022E0AE
:100E80005216B9F093E059121FC0212F270D982F49
:100E9000901B01E0080F81E0890F18C0202F210F5F
:100EA000082F070D13C0571821E0210F080F150D4B
:100EB0000DC091E0392F301B21E0210F971901E07F
:100EC000080F890F130F02C0082F212F482F612F01
:100ED000C6010E94E904882351F1F70114821582AA
:100EE0008E010D591F4FCC59DF4FF8016081C701AA
:100EF0000E94490D482E6881C7010E94490D582E55
:100F000040E0642DC6010E94760D41E0652DC601CA
:100F10000E94760D61E0C7010E94490D8111F0CF5A
:100F2000F701858187150CF38285F5018083F40133
:100F30008081680E608202C0612CF9CF81E090E070
:100F4000DF91CF911F910F91FF90EF90DF90CF90A5
:100F5000BF90AF909F908F907F906F905F904F90D9
:100F60003F902F900895CF92DF92EF92FF920F93D0
:100F70001F93CF93DF936C017A018B01C0E0D0E027
:100F8000CE15DF0581F0D8016D918D01D601ED916F
:100F9000FC910190F081E02DC6010995892B11F09B
:100FA0002196EECF7E01C701DF91CF911F910F9166
:100FB000FF90EF90DF90CF900895FC01538D448D0A
:100FC000252F30E0842F90E0821B930B541710F0F4
:100FD000CF96089501970895FC01918D828D981701
:100FE00061F0828DDF01A80FB11D5D968C91928D0D
:100FF0009F5F9F73928F90E008958FEF9FEF08950A
:10100000FC01918D828D981731F0828DE80FF11DD2
:10101000858D90E008958FEF9FEF0895FC01918DED
:10102000228D892F90E0805C9F4F821B91098F73E6
:101030009927089581E492E00E940E0821E0892B0F
:1010400009F420E0822F0895FC01848DDF01A80FB0
:10105000B11DA35ABF4F2C91848D90E001968F73E0
:101060009927848FA689B7892C93A089B1898C91FF
:10107000837080648C93938D848D981306C002884E
:10108000F389E02D80818F7D80830895EF92FF9218
:101090000F931F93CF93DF93EC0181E0888F9B8D9B
:1010A0008C8D981305C0E889F989808185FD26C05B
:1010B000F62E0B8D10E00F5F1F4F0F731127E02EE0
:1010C0008C8DE8120CC00FB607FCFACFE889F989BD
:1010D000808185FFF5CFCE010E942408F1CF8B8D52
:1010E000FE01E80FF11DE35AFF4FF0829FB7F8941D
:1010F0000B8FEA89FB89808180620AC09FB7F894D0
:10110000EE89FF896083E889F98980818370806432
:1011100080839FBF81E090E0DF91CF911F910F917D
:10112000FF90EF900895CF93DF93EC01888D882393
:10113000C9F0EA89FB89808185FD05C0A889B98944
:101140008C9186FD0FC00FB607FCF5CF808185FF1F
:10115000F2CFA889B9898C9185FFEDCFCE010E948D
:101160002408E7CFDF91CF91089580E090E0892BAC
:1011700029F00E941A0881110C9400000895833010
:1011800081F028F4813099F08230A1F00895873001
:10119000A9F08830B9F08430D1F4809180008F7D3F
:1011A00003C0809180008F7780938000089584B57C
:1011B0008F7702C084B58F7D84BD08958091B00083
:1011C0008F7703C08091B0008F7D8093B000089529
:1011D00085ED8093BC008091BC0084FDFCCF109213
:1011E000120208954091EE01262F30E0240F311DA8
:1011F00021323105DCF4209112022430C9F4FC01C3
:1012000080E090E0861758F43091EE012191DC01E6
:10121000A253BE4FA30FB11D2C930196F3CF809123
:10122000EE01680F6093EE0180E0089581E008957B
:1012300082E0089508958FEF9FEF08958FEF9FEF5D
:1012400008958091CD0190E091958195910908953F
:10125000CF93DF93CB01EA01642F0E94F208CE0105
:10126000DF91CF910895CF93DF931F92CDB7DEB773
:10127000698361E0CE0101960E94F20881E090E06E
:101280000F90DF91CF91089580E008955F926F9263
:101290007F928F929F92AF92BF92CF92DF92EF9206
:1012A000FF920F931F93CF93DF9370906903109178
:1012B000670304966C0107E0070D24E0210F4AEF55
:1012C000470D6DEF610F0E94E904811148C0C09085
:1012D000DE02D090DF02E090E002F090E102209187
:1012E0006B0330916C0340916D0350916E03C70105
:1012F000B6010E94A2120E94DE1120916703309174
:101300006803620F731F70936803609367032091F3
:101310006F03309170034091710350917203C701C4
:10132000B6010E94A2120E94DE1120916903309141
:101330006A03620F731F70936A0360936903DF91FE
:10134000CF911F910F91FF90EF90DF90CF90BF90C2
:10135000AF909F908F907F906F905F900895A8EDD1
:10136000AA2EB12CBCE48B2E99249A94C0E0D0E034
:1013700009E0E02EF12C612C83E0582E072D212F5F
:10138000462D652DC6010E94A50E63949701275F27
:101390003F4FCE0DDF1D42E1E40EF11CCE01880F60
:1013A000991F880D991D181619065CF45A9458E473
:1013B000A51AB108AC014C1B5D0BEA0158E4850E7F
:1013C000911CA216B306D4F65CE6A52EB12C6DE9ED
:1013D000862E99249A94C0E0D0E074E2E72EF12C96
:1013E000E6E05E2E612C072D212F452D662DC601CE
:1013F0000E94A50E639497012C5D3F4FCE0DDF1D1B
:1014000088E4E80EF11CCE01880F991F880D991D04
:10141000181619065CF45A9442E1A41AB108AC01FA
:101420004C1B5D0BEA0152E1850E911CA216B3061E
:10143000D4F64DCF8F929F92AF92BF92CF92DF9210
:10144000EF92FF920F931F93CF93DF93CDB7DEB749
:10145000C458D1090FB6F894DEBF0FBECDBF0E94AD
:10146000E70D8EED882E82E0982EF401868197811B
:101470009C838B839DE8A92E91E0B92EBA82A98224
:101480008CE7E6EEF2E0DE01159601900D928A956A
:10149000E1F722E6C22E23E0D22EF601808191816F
:1014A000CF57DF4F99838883C158D04034E6E32E6D
:1014B00033E0F32EF7018081CD57DF4F8883C35887
:1014C000D04005E613E0F8018081CC57DF4F8883D8
:1014D000C458D040CE0101960E944609F40186818D
:1014E00097819C838B83BA82A9828CE7E6EEF2E037
:1014F000DE01159601900D928A95E1F7F601808143
:101500009181CF57DF4F99838883C158D040F7012D
:101510008081CD57DF4F8883C358D040F801808148
:10152000CC57DF4F8883C458D040CE0101960E942B
:10153000620E0E94090E0E94FE0DCC57DF4F0FB6BF
:10154000F894DEBF0FBECDBFDF91CF911F910F91F9
:10155000FF90EF90DF90CF90BF90AF909F908F90D3
:1015600008950E9415139B01DC011896ED91FC91E2
:10157000199741E067E109941F920F920FB60F92FD
:1015800011242F933F934F935F936F937F938F9388
:101590009F93AF93BF93EF93FF9381E492E00E94F8
:1015A0002408FF91EF91BF91AF919F918F917F910F
:1015B0006F915F914F913F912F910F900FBE0F90C0
:1015C0001F9018951F920F920FB60F9211242F9310
:1015D0008F939F93EF93FF93E0915102F09152020A
:1015E0008081E0915702F091580282FD12C09081F3
:1015F00080915A028F5F8F7320915B02821751F0A6
:10160000E0915A02F0E0EF5BFD4F958F80935A0214
:1016100001C08081FF91EF919F918F912F910F9049
:101620000FBE0F901F901895CF93DF93282F30E0B7
:10163000F901E255FF4F8491F901E656FF4FD4912D
:10164000F901EA57FF4FC491CC2391F081110E9418
:10165000BF08EC2FF0E0EE0FFF1FE458FF4FA591FD
:10166000B491EC91ED2381E090E021F480E002C0A0
:1016700080E090E0DF91CF9108951F93CF93DF93A7
:10168000282F30E0F901E255FF4F8491F901E65629
:10169000FF4FD491F901EA57FF4FC491CC23C1F019
:1016A000162F81110E94BF08EC2FF0E0EE0FFF1FF4
:1016B000EE58FF4FA591B4919FB7F894111104C053
:1016C0008C91D095D82302C0EC91DE2BDC939FBF88
:1016D000DF91CF911F910895CF93DF9390E0FC01AC
:1016E000E656FF4F2491FC01EA57FF4F849188236F
:1016F00061F190E0880F991FFC01E859FF4FC591F7
:10170000D491FC01EE58FF4FA591B491611109C02D
:101710009FB7F8948881209582238883EC912E23AB
:101720000BC0623061F49FB7F8948881322F3095F6
:1017300083238883EC912E2B2C939FBF06C08FB7F9
:10174000F894E8812E2B28838FBFDF91CF910895E5
:101750003FB7F8948091390290913A02A0913B02F0
:10176000B0913C0226B5A89B05C02F3F19F0019609
:10177000A11DB11D3FBFBA2FA92F982F8827820F17
:10178000911DA11DB11DBC01CD0142E0660F771F67
:10179000881F991F4A95D1F708951F920F920FB68F
:1017A0000F9211242F933F938F939F93AF93BF93E7
:1017B00080913D0290913E02A0913F02B091400283
:1017C0003091380223E0230F2D3720F40196A11D1C
:1017D000B11D05C026E8230F0296A11DB11D20935F
:1017E000380280933D0290933E02A0933F02B09353
:1017F00040028091390290913A02A0913B02B0914F
:101800003C020196A11DB11D8093390290933A02CA
:10181000A0933B02B0933C02BF91AF919F918F91F7
:101820003F912F910F900FBE0F901F9018951F9210
:101830000F920FB60F9211242F933F934F935F9304
:101840006F937F938F939F93AF93BF93EF93FF9388
:101850008091B900887F803609F49CC068F5883291
:1018600009F45BC090F4803109F454C038F4882343
:1018700009F4F2C0883009F44DC0F2C0883109F48F
:101880004CC0803209F45DC0EBC0803409F468C0FC
:1018900048F4803309F455C0883309F0E1C08093DF
:1018A0001102D4C0803509F44FC0883509F45DC0F9
:1018B000883409F0D5C0D2C0883909F4C3C0A8F46F
:1018C000883709F467C038F4883609F463C0803774
:1018D00009F460C0C5C0883809F4B4C0803909F47F
:1018E0005FC0803809F0BCC05BC0803B09F484C095
:1018F00038F4803A09F466C0883A09F47DC0B0C073
:10190000803C09F4A3C0883C09F4A0C0883B09F4DA
:1019100086C0A6C08091370210C090913602809197
:101920003502981770F5E091360281E08E0F8093B2
:101930003602F0E0EB5EFD4F80818093BB0085ECCA
:1019400082C0809311028AC0E091360281E08E0F3E
:10195000809336028091BB00F0E0EB5EFD4F808308
:1019600090913602809135026AC0E091360281E0A2
:101970008E0F809336028091BB00F0E0EB5EFD4F4E
:10198000808380911402811169C081E080931302E9
:1019900084EA5DC083E08093120210921002CFCFE0
:1019A00080911002803208F04DC0E091100281E079
:1019B0008E0F809310028091BB00F0E0E051FE4F4B
:1019C0008083BDCF85EC8093BC0010921202809181
:1019D0001002803230F4E0911002F0E0E051FE4F4E
:1019E00010826091100270E080EF91E0E0E0F0E0A2
:1019F00009951092100234C084E080931202109274
:101A0000EF011092EE01E0E0F0E009958091EE0127
:101A1000811105C081E08093EE011092CE01E0912A
:101A2000EF0181E08E0F8093EF01F0E0E253FE4F73
:101A300080818093BB009091EF018091EE01981717
:101A400008F47DCF85E88093BC000AC085EC8093C4
:101A5000BC001092120204C0109211020E94E80809
:101A6000FF91EF91BF91AF919F918F917F916F9176
:101A70005F914F913F912F910F900FBE0F901F904C
:101A80001895DC011A96ED91FC911B9720E030E04F
:101A90000994DC0118964C911897ED91FC911197DF
:101AA000249130E0042E02C0359527950A94E2F780
:101AB000842F860F883010F4E22F0DC031961196D6
:101AC000FC93EE93E49198E0941B01C0EE0F9A957D
:101AD000EAF7E22B885018968C9381E090E001C0E1
:101AE000880F6A95EAF781508E2308955F926F926E
:101AF0007F928F929F92AF92BF92CF92DF92EF929E
:101B0000FF920F931F93CF93DF935C01162F642EE8
:101B1000EC01C05BDF4FDC80ED804C018AE7880E72
:101B2000911CFE80FD18CF2C1F1508F4C12E5B8080
:101B30000C85202F4E2D6D2D8A810E94E905782E6F
:101B4000202F4E2D6D2D852D0E94F605482F6620E5
:101B500011F08A8504C08985811108C08B85F40144
:101B600080832C2D672DC5010E947A051F1520F05A
:101B70001F19E394D12CD5CF1D0D1C83ED82DF916D
:101B8000CF911F910F91FF90EF90DF90CF90BF907A
:101B9000AF909F908F907F906F905F900895CF93BC
:101BA000DF9380932203CDE1D3E0E881F9810190B6
:101BB000F081E02D86EE92E00995E881F9810280BE
:101BC000F381E02D86EE92E0DF91CF910994E091D0
:101BD000E602F091E702808940912103849FA001F1
:101BE000112483E0440F551F8A95E1F760E070E00F
:101BF00080911F03909120030C941A13E091EA0244
:101C0000F091EB0220E030E040E060E186EE92E00F
:101C10000994CF92DF92EF92FF920F931F93CF938D
:101C2000DF9300D000D01F92CDB7DEB7C090210364
:101C300000912203E091E602F091E702D188102F93
:101C4000E12CF12CE091E602F091E70280894091CD
:101C50001F03509120031C821D838B8328E0829FE9
:101C6000C00111248E9D90018F9D300D9E9D300DE1
:101C70001124CA01820F931F9A838983E091EA029B
:101C8000F091EB029E012F5F3F4F41E06FE086EE47
:101C900092E009951F5F812F801B8C1528F48FEF30
:101CA000E81AF80A1D1570F20F900F900F900F9020
:101CB0000F90DF91CF911F910F91FF90EF90DF90E8
:101CC000CF900895EF92FF920F931F93CF93DF93DE
:101CD00010917503D091730304967C0104E1010F08
:101CE00022E02D0F412F6D2F0E94E90481110BC0BE
:101CF00082E00E94140B892B99F4809175039091D6
:101D00007603019717C0C0E0412F4C1B00E022E092
:101D10006D2FC7010E947A05C150CC3EA9F7E8CFCC
:101D200083E00E94140B892B49F4809175039091F4
:101D3000760301969093760380937503DF91CF919C
:101D40001F910F91FF90EF900895BF92CF92DF9275
:101D5000EF92FF920F931F93CF93DF937C01B62EE8
:101D6000C22F102FD1E0D40FC02EC41AD22ED60EFF
:101D700001E02D2F4C2D6D2D0E947A05CB192D2FB2
:101D80004C2D6C2FC7010E947A052D2F412F6D2DF0
:101D9000C7010E947A052D2F412F6C2FC7010E9489
:101DA0007A05DF91CF911F910F91FF90EF90DF9017
:101DB000CF90BF900895789484B5826084BD84B537
:101DC000816084BD85B5826085BD85B5816085BD36
:101DD00080916E00816080936E00109281008091EE
:101DE0008100826080938100809181008160809376
:101DF0008100809180008160809380008091B1009B
:101E000084608093B1008091B00081608093B000C5
:101E100080917A00846080937A0080917A00826059
:101E200080937A0080917A00816080937A0080911B
:101E30007A00806880937A001092C100E09151028C
:101E4000F091520282E08083E0914D02F0914E02C7
:101E50001082E0914F02F09150028FEC808310923B
:101E60005902E0915502F091560286E08083E0919C
:101E70005302F0915402808180618083E09153028B
:101E8000F0915402808188608083E0915302F09148
:101E90005402808180688083E0915302F091540263
:101EA00080818F7D8083E091EA02F091EB0220E057
:101EB00030E040E06AE086EE92E0099580916103AF
:101EC00081110E94E70D80E00E94CF0D0E94090E53
:101ED000C091220380912103C80FE091E602F091A6
:101EE000E7028189C81708F10E94FE0D80E00E9478
:101EF000CF0DE091EA02F091EB0220E030E040E00B
:101F00006BE086EE92E0099562E082E00E946C0B45
:101F100062E082E00E946C0B62E084E00E946C0B45
:101F200062E085E00E946C0B07C080916103811123
:101F30000E94E70D8C2FC8CF2FB7F89480913D02F7
:101F400090913E02A0913F02B09140022FBF80933A
:101F5000770390937803A0937903B0937A030E9458
:101F60001A0A2FB7F89480913D0290913E02A091F9
:101F70003F02B09140022FBF009177031091780388
:101F80002091790330917A03BC01CD01601B710B64
:101F9000820B930B0E94141220E030E04AE754E4D5
:101FA0000E946C116093DE027093DF028093E00266
:101FB0009093E1020E94B508BFCFEEEDF2E01082EF
:101FC0001182128213822DE831E03583248310922E
:101FD00068031092670310926A03109269031092CB
:101FE000740310927303109276031092750310928B
:101FF0007703109278031092790310927A03DC0130
:1020000012962D913C911397378326832CE7FC0180
:102010003496A6EEB2E001900D922A95E1F7FC010C
:10202000E058FF4F20813181309363032093620396
:1020300032962081209364033196808180936503DA
:1020400080E090E0A0EAB0E480936B0390936C038F
:10205000A0936D03B0936E0380936F03909370030E
:10206000A0937103B093720308951F93CF93DF93EE
:10207000CDB7DEB7C458D1090FB6F894DEBF0FBE96
:10208000CDBF109244021092430288EE93E0A0E08C
:10209000B0E08093450290934602A0934702B0932C
:1020A000480229E631E0309342022093410225ECB8
:1020B00030E030934E0220934D0224EC30E0309318
:1020C000500220934F0220EC30E0309352022093D4
:1020D000510221EC30E0309354022093530222EC61
:1020E00030E0309356022093550226EC30E03093D6
:1020F00058022093570210925A0210925B021092DB
:102100005C0210925D0210927F0310927E03809316
:10211000800390938103A0938203B09383038BE7A2
:1021200091E090937D0380937C0310928B07109233
:102130008A0781ED90E09093090880930808109237
:102140000A0810920B081092A5078DE891E0909371
:1021500089078093880710928D0710928C07109240
:10216000A1071092A4071092980710929907109255
:102170009A0710929B078FEF8093A2078093A7077F
:10218000EBEAF7E01FEF819397E0E13CF907D1F725
:1021900082E192E0909391078093900785ED93E020
:1021A00090939307809392078DE393E09093950724
:1021B0008093940782E494E0909397078093960726
:1021C00020E030E040E069E08CE897E00E941202F5
:1021D0001092D9071092D8078EE291E09093C2072F
:1021E0008093C10788E893E09093C6078093C50762
:1021F00088E08093C7071092C8071092E5071092F5
:10220000050881E0809306088093070881EA91E041
:102210009093C4078093C3078CE897E00E94E8007E
:102220001092D4071092D6071093D5071093D707B2
:10223000E091C307F091C4070280F381E02D8CE8A0
:1022400097E009958AE891E09093DB078093DA079D
:102250001092E80782E18093B70781E18093B80785
:102260001092B60780918A0790918B079C838B838D
:102270008DE891E09A8389838CE7ECE8F7E0DE0152
:10228000159601900D928A95E1F78091080890913A
:102290000908CF57DF4F99838883C158D040809178
:1022A0000A08CD57DF4F8883C358D04080910B0870
:1022B000CC57DF4F8883C458D040CE0101960E948E
:1022C000DD0FCC57DF4F0FB6F894DEBF0FBECDBF8A
:1022D000DF91CF911F9108950E9480110C94681294
:1022E0000E94611258F00E945A1240F029F45F3F98
:1022F00029F00C94511251110C949C120C94571209
:102300000E94791268F39923B1F3552391F3951B39
:10231000550BBB27AA2762177307840738F09F5F06
:102320005F4F220F331F441FAA1FA9F335D00E2E73
:102330003AF0E0E832D091505040E695001CCAF7E0
:102340002BD0FE2F29D0660F771F881FBB1F2617A3
:1023500037074807AB07B0E809F0BB0B802DBF017A
:10236000FF2793585F4F3AF09E3F510578F00C9449
:1023700051120C949C125F3FE4F3983ED4F386957F
:1023800077956795B795F7959F5FC9F7880F911D6A
:102390009695879597F90895E1E0660F771F881F56
:1023A000BB1F621773078407BA0720F0621B730B09
:1023B000840BBA0BEE1F88F7E09508950E94E51193
:1023C0006894B1110C949C1208950E94811288F0B7
:1023D0009F5798F0B92F9927B751B0F0E1F0660FE9
:1023E000771F881F991F1AF0BA95C9F714C0B1302A
:1023F00091F00E949B12B1E008950C949B12672FFC
:10240000782F8827B85F39F0B93FCCF38695779558
:102410006795B395D9F73EF4909580957095619541
:102420007F4F8F4F9F4F0895E89409C097FB3EF46C
:1024300090958095709561957F4F8F4F9F4F992311
:10244000A9F0F92F96E9BB279395F695879577958F
:102450006795B795F111F8CFFAF4BB0F11F460FF4F
:102460001BC06F5F7F4F8F4F9F4F16C0882311F0A7
:1024700096E911C0772321F09EE8872F762F05C0BB
:10248000662371F096E8862F70E060E02AF09A9556
:10249000660F771F881FDAF7880F9695879597F94B
:1024A000089597F99F6780E870E060E008959FEFD6
:1024B00080EC089500240A941616170618060906DB
:1024C000089500240A9412161306140605060895AA
:1024D000092E0394000C11F4882352F0BB0F40F432
:1024E000BF2B11F460FF04C06F5F7F4F8F4F9F4F72
:1024F000089557FD9058440F551F59F05F3F71F0F4
:102500004795880F97FB991F61F09F3F79F087955A
:102510000895121613061406551FF2CF4695F1DFE3
:1025200008C0161617061806991FF1CF8695710573
:10253000610508940895E894BB2766277727CB01A7
:1025400097F908950E94B5120C9468120E945A12CD
:1025500038F00E94611220F0952311F00C94511272
:102560000C94571211240C949C120E94791270F34F
:10257000959FC1F3950F50E0551F629FF001729F28
:10258000BB27F00DB11D639FAA27F00DB11DAA1F37
:10259000649F6627B00DA11D661F829F2227B00D84
:1025A000A11D621F739FB00DA11D621F839FA00D0F
:1025B000611D221F749F3327A00D611D231F849F5F
:1025C000600D211D822F762F6A2F11249F575040B6
:1025D0009AF0F1F088234AF0EE0FFF1FBB1F661F31
:1025E000771F881F91505040A9F79E3F510580F0FA
:1025F0000C9451120C949C125F3FE4F3983ED4F378
:10260000869577956795B795F795E7959F5FC1F79D
:10261000FE2B880F911D9695879597F90895EE0FDB
:10262000FF1F0590F491E02D099481E090E0F8946B
:102630000C942113DC0101C06D9341505040E0F730
:062640000895F894FFCF9D
:102646001815A015C019FF1815A115C819FF1815DA
:10265600AE19FF1815AF19FF1815AE15D51680154A
:10266600A8163F15D316001540158D1614152016FD
:102676000015A115C815DA1612158116CF15D9162B
:10268600F115DB1640152E15A415A619FF00011429
:102696000A6464323200127A000004289610080098
:1026A6000080004000000000004608B307DD0793E5
:1026B600080E08EC0700080000000033092809C1CD
:1026C600011A0921091E091B0900000000030698CA
:1026D60001C101C00100000000B10AB307C101C079
:0826E60001E8000F05DB000014
:00000001FF
