:100000000C9454050C947C050C947C050C947C0594
:100010000C947C050C947C050C947C050C947C055C
:100020000C947C050C947C050C947C050C947C054C
:100030000C947C050C947C050C947C050C947C053C
:100040000C94C20C0C947C050C9461170C943B1717
:100050000C947C050C947C050C947C050C947C051C
:100060000C940C0D0C947C052200FF210000000074
:100070000800020100000304070000000000000067
:100080000000000000003E5B4F5B3E3E6B4F6B3E4E
:100090001C3E7C3E1C183C7E3C181C577D571C1C8B
:1000A0005E7F5E1C00183C1800FFE7C3E7FF0018E6
:1000B000241800FFE7DBE7FF30483A060E262979CF
:1000C0002926407F050507407F05253F5A3CE73C30
:1000D0005A7F3E1C1C08081C1C3E7F14227F2214E1
:1000E0005F5F005F5F06097F017F006689956A6038
:1000F0006060606094A2FFA29408047E040810204F
:100100007E201008082A1C08081C2A08081E101047
:1001100010100C1E0C1E0C30383E3830060E3E0EF1
:1001200006000000000000005F000000070007005C
:10013000147F147F14242A7F2A1223130864623642
:10014000495620500008070300001C2241000041CE
:10015000221C002A1C7F1C2A08083E080800807008
:10016000300008080808080000606000201008043B
:10017000023E5149453E00427F400072494949468E
:100180002141494D331814127F1027454545393C0C
:100190004A494931412111090736494949364649F9
:1001A00049291E000014000000403400000008141B
:1001B0002241141414141400412214080201590994
:1001C000063E415D594E7C1211127C7F49494936E9
:1001D0003E414141227F4141413E7F494949417F62
:1001E000090909013E414151737F0808087F004118
:1001F0007F41002040413F017F081422417F404061
:1002000040407F021C027F7F0408107F3E41414135
:100210003E7F090909063E4151215E7F09192946A1
:10022000264949493203017F01033F4040403F1FB7
:100230002040201F3F4038403F63140814630304EC
:100240007804036159494D43007F4141410204084C
:100250001020004141417F0402010204404040401F
:1002600040000307080020545478407F2844443855
:100270003844444428384444287F3854545418009F
:10028000087E090218A4A49C787F0804047800441E
:100290007D40002040403D007F1028440000417F09
:1002A00040007C047804787C080404783844444492
:1002B00038FC1824241818242418FC7C080404088A
:1002C000485454542404043F44243C4040207C1CA3
:1002D0002040201C3C4030403C44281028444C9096
:1002E00090907C4464544C440008364100000077F0
:1002F0000000004136080002010204023C262326C9
:100300003C1EA1A161123A4040207A3854545559FC
:100310002155557941225454784221555478402032
:10032000545579400C1E527212395555555939544D
:1003300054545939555454580000457C41000245E5
:100340007D420001457C407D1211127DF028252858
:10035000F07C545545002054547C547C0A097F4954
:1003600032494949323A4444443A324A4848303A98
:100370004141217A3A42402078009DA0A07D3D4233
:1003800042423D3D4040403D3C24FF2424487E49BC
:1003900043662B2FFC2F2BFF0929F620C0887E09EE
:1003A0000320545479410000447D413048484A328A
:1003B000384040227A007A0A0A727D0D19317D2672
:1003C00029292F28262929292630484D4020380858
:1003D00008080808080808382F10C8ACBA2F1028D9
:1003E00034FA00007B000008142A142222142A1474
:1003F000085500550055AA55AA55AAFF55FF55FFA7
:10040000000000FF00101010FF00141414FF001073
:1004100010FF00FF1010F010F0141414FC0014145E
:10042000F700FF0000FF00FF1414F404FC1414177D
:10043000101F10101F101F1414141F00101010F0A4
:10044000000000001F101010101F10101010F010EE
:10045000000000FF101010101010101010FF1000FE
:100460000000FF140000FF00FF00001F1017000035
:10047000FC04F414141710171414F404F40000FF0F
:1004800000F714141414141414F700F714141417A8
:100490001410101F101F141414F4141010F010F086
:1004A00000001F101F0000001F14000000FC1400BB
:1004B00000F010F01010FF10FF141414FF141010AF
:1004C000101F00000000F010FFFFFFFFFFF0F0F032
:1004D000F0F0FFFFFF0000000000FFFF0F0F0F0F05
:1004E0000F3844443844FC4A4A4A347E0202060625
:1004F000027E027E0263554941633844443C044015
:100500007E201E2006027E020299A5E7A5991C2ADC
:10051000492A1C4C7201724C304A4D4D303048789B
:100520004830BC625A463D3E494949007E010101BE
:100530007E2A2A2A2A2A44445F444440514A44409D
:1005400040444A51400000FF0103E080FF000008E2
:10055000086B6B083612362436060F090F060000AA
:1005600018180000001010003040FF0101001F01AA
:10057000011E00191D1712003C3C3C3C000000000D
:1005800000000103070F1F3F7F0080C0E0F0F8FC70
:10059000FE00000000240027002A00DB40A4A62E55
:1005A000AFDA0281DA1281DA02818F2000A1C8D38A
:1005B00000408DAED580A8010204081020408001C3
:1005C0000204081020010204081020000000002589
:1005D0000028002B000404040404040404020202A2
:1005E0000202020303030303030000600000000093
:1005F00000000000000000000000E000000000001B
:10060000000000000000000001E000000000000009
:100610000000000000000001F000000000000000E9
:1006200000000000000003F00000000000000000D7
:10063000000000000007F0000000000000000000C3
:100640000000000007F800000000000000000000AB
:100650000000000FF800000003C0007E000001E071
:10066000007F0FF800000003C000FE000001E00062
:10067000FFEFF800000003C000FE000001E000FFF3
:10068000FFF800000003C000F00000000F007FFE34
:100690007FC0000003C000F00000000F003FFE7F9D
:1006A000F83FF1FBCFFCFEF3BC3DEFE01FFE7FFF08
:1006B0007FFBFFDFFEFEFFBC3DEFE01FC6FFFF7FBD
:1006C000FBFFDFFEFEFFBC3DEFE00FE3C7FE787BE4
:1006D000C3DE1EF0FFBC3DEF0007FF87FC787BC345
:1006E000DE1EF0F83C3DEF0001FFFFF0007BC3C0D1
:1006F0001EF0F03C3DEF0001F37FE03FFBC3CFFE77
:10070000F0F03C3DEF0003E33F807FFBC3DFFEF0F2
:10071000F03C3DEF0007E73C00787BC3DE1EF0F0C5
:100720003C3DEF0007FFBE00787BC3DE1EF0F03CCF
:100730003DEF0007FFFE00787BC3DE1EF0F03C3D7E
:10074000EF000FFFFE007FFBFFDFFEF0F03FFDEF4D
:10075000E00FFFFF007FFBFFDFFEF0F03FFDEFE06B
:100760000FF9FF003E79F9CF9EF0F01F3DE7E01F43
:10077000F1FF0000000000000000000000001F80EA
:10078000FF007FFFFFFFFFFFFFFFFFFFE01C007F79
:10079000007FFFFFFFFEB46D888D18E000001F0092
:1007A0007FFFFFFFFE95AD7DB577E000000F007F76
:1007B000FFFFFFFEA5AD9D8D19E0000006007FFF45
:1007C000FFFFFEB5ADEDB57EE0000000000001804A
:1007D0000000000000000000000380000000000096
:1007E0000000000007C0000000000000000000073B
:1007F000C00000000000000000000FC0000000006A
:1008000000000000001FE0000000000000000000E9
:100810001FE00000000000000000003FE0000000BA
:100820000000000000003FF0000000000000000099
:10083000007FF0000000000000001FF87FF00000C3
:1008400000000000003FFE7FF000000000000000FC
:100850003FFF7FF0000000000000001FFFFBE000F2
:100860000000000000000FFFF9FFC00000000000C2
:10087000000FFFF9FFF800000000000007FFF1FF84
:10088000FF00000000000003FC73FFFF8000000079
:10089000000001FE3FFFFF80000000000000FF1E7F
:1008A0000FFF000000000000007FFE1FFC000000A2
:1008B000000000003FFFFFF8000000000000000FF4
:1008C000DFFFE0000000000000001F19FFC0000073
:1008D00000000000003F3CFF00000000000000009E
:1008E0007E7CF800000000000000007FFE7C00001D
:1008F000000000000000FFFFFC00000000000000FE
:1009000000FFFFFE0000000000000000FFFFFE00EF
:1009100000000000000001FFEFFE000000000000EA
:100920000001FFCFFE0000000000000003FF07FEF3
:100930000000000000000003FC07FE0000000000B3
:10094000000003F003FE0000000000000001800032
:10095000FE000000000000000000007E000000001B
:100960000000000000003E00000000000000000049
:10097000000C000000000000078000FC000003C025
:10098000000000078001FC000003C0000000078099
:1009900001FC000003C0000000078001E00000002F
:1009A0001E000000078001E00000001E007FE3F74A
:1009B0009FF9FDE7787BDFC0FFF7FFBFFDFDFF7804
:1009C0007BDFC0FFF7FFBFFDFDFF787BDFC0F0F7E7
:1009D00087BC3DE1FF787BDE00F0F787BC3DE1F0AE
:1009E000787BDE0000F787803DE1E0787BDE007FEA
:1009F000F7879FFDE1E0787BDE00FFF787BFFDE131
:100A0000E0787BDE00F0F787BC3DE1E0787BDE003C
:100A1000F0F787BC3DE1E0787BDE00F0F787BC3D76
:100A2000E1E0787BDE00FFF7FFBFFDE1E07FFBDF69
:100A3000C0FFF7FFBFFDE1E07FFBDFC07CF3F39F6A
:100A40003DE1E03E7BCFC000000000000000000060
:100A50000000FFFFFFFFFFFFFFFFFFFFC0FFFFFFE3
:100A6000FFFD68DB111A31C0FFFFFFFFFD2B5AFBB2
:100A70006AEFC0FFFFFFFFFD4B5B3B1A33C0FFFF78
:100A8000FFFFFD6B5BDB6AFDC053534431333036EF
:100A900020616C6C6F636174696F6E206661696C54
:100AA000656400009717931711241FBECFEFD8E09D
:100AB000DEBFCDBF11E0A0E0B1E0ECE5F4E402C0A0
:100AC00005900D92A23AB107D9F723E0A2EAB1E06E
:100AD00001C01D92AE34B207E1F715E0C3E5D5E0E1
:100AE00004C02197FE010E94EE20C235D107C9F74C
:100AF0000E941B180C9421220C940000FC01538DC1
:100B0000448D252F30E0842F90E0821B930B5417E7
:100B100010F0CF96089501970895FC01918D828D74
:100B2000981761F0828DDF01A80FB11D5D968C9141
:100B3000928D9F5F9F73928F90E008958FEF9FEF4C
:100B40000895FC01918D828D981731F0828DE80F08
:100B5000F11D858D90E008958FEF9FEF0895FC01C2
:100B6000918D228D892F90E0805C9F4F821B91098F
:100B70008F739927089580E090E0892B29F00E94D7
:100B8000311781110C94000008953FB7F8948091BB
:100B90000A0290910B02A0910C02B0910D0226B5B1
:100BA000A89B05C02F3F19F00196A11DB11D3FBFA5
:100BB000BA2FA92F982F8827820F911DA11DB11D33
:100BC000BC01CD0142E0660F771F881F991F4A952F
:100BD000D1F708950895FC016370668B8481958137
:100BE00026813781613039F0633029F09187808721
:100BF00033872287089531872087938782870895D6
:100C00006F927F928F929F92AF92BF92CF92DF921C
:100C1000EF92FF920F931F93CF93DF93EC014B0161
:100C20005A0169013801E881F9810284F385E02DD8
:100C30000995E881F9810288F389E02D8701960101
:100C4000A501B401CE010995A501460D571D4150DE
:100C50005109E881F9810288F389E02D9601B401F8
:100C6000CE010995E881F9810088F189E02D930191
:100C7000A501B401CE010995C80CD91CB60161507B
:100C80007109E881F9810088F189E02D9301A501BE
:100C9000CE010995E881F9810688F789E02DCE011A
:100CA000DF91CF911F910F91FF90EF90DF90CF9048
:100CB000BF90AF909F908F907F906F9009948F928C
:100CC0009F92AF92BF92CF92DF92EF92FF920F93DB
:100CD0001F93CF93DF934C016B015A01E901DC01B3
:100CE000ED91FC916217730781F40417150724F442
:100CF0008B2D5801042F182F0A191B0998012F5FFB
:100D00003F4F048CF58DE02D12C04017510709F5B7
:100D10002617370724F48D2D6901C62FD82F9E0181
:100D20002C193D092F5F3F4F068CF78DE02D870171
:100D3000A501B601C4010995DF91CF911F910F91D3
:100D4000FF90EF90DF90CF90BF90AF909F908F90EB
:100D500008950284F385E02D0995D401ED91FC916D
:100D60000488F589E02D9E01A501B601C40109950D
:100D7000D401ED91FC910688F789E02DC401DF9143
:100D8000CF911F910F91FF90EF90DF90CF90BF9088
:100D9000AF909F908F900994EF92FF920F931F93C3
:100DA000DC011A960D911C911B9718962D913C9180
:100DB0001997ED91FC9100A0F1A1E02D7B0140E09D
:100DC00050E060E070E009951F910F91FF90EF9067
:100DD00008954F925F926F927F928F929F92AF92FF
:100DE000BF92CF92DF92EF92FF920F931F93CF9318
:100DF000DF936C012B015A0139014801DC01ED91AF
:100E0000FC910284F385E02D0995E201640C751CC8
:100E1000D601ED91FC91C615D7055CF40088F189E7
:100E2000E02D87019401A501BE01C6010995219617
:100E3000EFCF0688F789E02DC601DF91CF911F9192
:100E40000F91FF90EF90DF90CF90BF90AF909F9069
:100E50008F907F906F905F904F9009948F929F92A8
:100E6000AF92BF92CF92DF92EF92FF920F931F93B8
:100E7000CF93DF93EC015B014A016901E881F981BD
:100E80000284F385E02D099595012C0D3D1D21501F
:100E90003109E881F9810488F589E02D7801840120
:100EA000A401B501CE010995E881F9810688F78989
:100EB000E02DCE01DF91CF911F910F91FF90EF9028
:100EC000DF90CF90BF90AF909F908F9009948F92BA
:100ED0009F92AF92BF92CF92DF92EF92FF920F93C9
:100EE0001F93CF93DF93EC015B014A016901780105
:100EF000E881F9810284F385E02D0995C80CD91C9D
:100F0000860101501109E881F9810488F589E02DF5
:100F10009501A401B501CE010995E881F981068802
:100F2000F789E02DCE01DF91CF911F910F91FF90B6
:100F3000EF90DF90CF90BF90AF909F908F900994EB
:100F40000895EF92FF920F931F93DC01ED91FC91B6
:100F500000A0F1A1E02D09951F910F91FF90EF9056
:100F600008950F931F93DC01ED91FC91068CF78D92
:100F7000E02D09951F910F9108950F931F93DC01A8
:100F8000ED91FC91048CF58DE02D09951F910F9149
:100F90000895DC01ED91FC910084F185E02D099428
:100FA0002F923F924F925F926F927F928F929F9279
:100FB000AF92BF92CF92DF92EF92FF920F931F9367
:100FC000CF93DF9300D000D000D0CDB7DEB72C0197
:100FD0007E836D836A015901C801FC82EB8248015E
:100FE000841A950A97FE03C0919481949108350163
:100FF0002D813E81621A730A77FE03C07194619459
:101000007108681479045CF43A2D2B2D5C01832F50
:10101000922F3D812E81DE82CD82C32ED22EAD81D4
:10102000BE81AA16BB065CF43C2D2D2D6C01832FCE
:10103000922F3D812E81BE82AD82A32EB22E8501DC
:101040002D813E81021B130B1C012C183D0837FE1D
:1010500003C0319421943108780117FF03C03FEF9A
:10106000E31AF30AF594E794C816D9062CF08FEF2B
:101070009FEF9A83898304C0A1E0B0E0BA83A9837B
:101080002D813E81A216B30624F1D201ED91FC918F
:101090000484F585E02D2B813C816814790424F4C7
:1010A0004D815E81B60103C0A6016D817E81C201C2
:1010B0000995E218F308F7FE06C029813A81C20EAD
:1010C000D31EE00EF11E8D819E8101969E838D833D
:1010D000D7CF26960FB6F894DEBF0FBECDBFDF91F7
:1010E000CF911F910F91FF90EF90DF90CF90BF9025
:1010F000AF909F908F907F906F905F904F903F90B8
:101100002F90089585ED8093BC008091BC0084FDF4
:10111000FCCF1092360208954091E201262F30E074
:10112000240F311D21323105DCF4209136022430A8
:10113000C9F4FC0180E090E0861758F43091E20198
:101140002191DC01AE53BE4FA30FB11D2C9301962C
:10115000F3CF8091E201680F6093E20180E008958F
:1011600081E0089582E0089508950895E09148038C
:1011700080914703E81730F4F0E0EE55FE4F808190
:1011800090E008958FEF9FEF08959091480380912C
:101190004703981750F4E92FF0E0EE55FE4F2081F9
:1011A00030E09F5F9093480302C02FEF3FEFC901EB
:1011B00008958091470390E020914803821B910994
:1011C0000895CF92DF92EF92FF920F931F93CF93E8
:1011D000DF937C01CB018A0120913702222389F021
:1011E000EB016B01C40ED51ECC15DD0569F06991CC
:1011F000D701ED91FC910190F081E02DC701099597
:10120000F3CF642F0E948C08C801DF91CF911F910A
:101210000F91FF90EF90DF90CF900895CF93DF93E1
:101220001F92CDB7DEB76983209137022223D1F018
:1012300020915A02203240F021E030E0FC0133835B
:10124000228380E090E015C080913802E82FF0E022
:10125000E75CFD4F998190838F5F80933802809384
:101260005A0205C061E0CE0101960E948C0881E01F
:1012700090E00F90DF91CF910895FC0177FDB9C008
:1012800080859185681779070CF0B3C057FDB1C010
:1012900082859385481759070CF008958689823016
:1012A00079F484819581DC01A61BB70BBD016150E7
:1012B000710986819781DC01A41BB50BAD010EC0BD
:1012C000833009F084C064277527CA0186279727D1
:1012D0006827792746815781481B590B415051098E
:1012E0002130310531F048F12230310509F44AC08E
:1012F0000895CA0157FD07969C01A3E035952795EF
:10130000AA95E1F7A481B5812A9FC0012B9F900D7A
:101310003A9F900D1124680F791F078CF0A1E02DE2
:10132000E60FF71F4770552781E090E001C0880F56
:101330004A95EAF79081892B48C0CA0157FD079664
:101340009C0193E0359527959A95E1F7A481B581A5
:101350002A9FC0012B9F900D3A9F900D1124680F7A
:10136000791F078CF0A1E02DE60FF71F4770552776
:1013700081E090E001C0880F4A95EAF7809590815E
:10138000892323C0CA0157FD07969C0183E0359548
:1013900027958A95E1F7A481B5812A9FC0012B9FEB
:1013A000900D3A9F900D1124680F791F078CF0A1C2
:1013B000E02DE60FF71F4770552781E090E001C050
:1013C000880F4A95EAF790818927808308958130B4
:1013D00009F086CF64277527462757276427752786
:1013E00084819581DC01A61BB70BBD016150710999
:1013F00077CF08958EBD00000DB407FEFDCF8EB5EA
:101400000895089580E090E008950E9415228F923B
:101410009F92AF92CF92EF92FF920F931F93CF9331
:10142000DF93EC01262F898D9A8D009709F042C039
:101430006A3059F41D861C862D898E859F8538E07B
:10144000239F800D911D112443C06D3009F4AAC063
:101450008F898823C9F03C898C859D8546E0349F1F
:10146000800D911D1124488559854817590764F44A
:101470001D861C863D898E859F8548E0349F800DA2
:10148000911D11249F878E87EA88FB880889198916
:101490004E855F856C857D85AD88CC88CE010E94A8
:1014A000D3142C898C859D8536E0239F800D911D5A
:1014B00011243EC06A3079F41D861C862D89FC01FA
:1014C0003696E4918E859F852E9F800D911D112467
:1014D0009F878E8767C06D3009F464C0FC01349625
:1014E0003491631708F45EC03196E491E61708F46E
:1014F00059C0462F431B342FFC013296859094909F
:1015000047E0349F800C911C1124F40132963491F1
:101510003196E491332311F0E1110DC0F4013496BA
:10152000E4912C898C859D85E29F800D911D11246D
:101530009D878C8737C0F401359644915F89552388
:1015400019F15C89E32FF0E0E40FF11D47FDFA95F6
:101550005E9FB0015F9F700D11244C855D85460F25
:10156000571F688579856417750774F41D861C8676
:101570003D89FC013696E4918E859F853E9F800DC6
:10158000911D11249F878E87EA88FB880889198915
:101590004E855F856C857D85AD88CC88CE010E94A7
:1015A000D314BCCF81E090E0DF91CF911F910F91D8
:1015B000FF90EF90CF90AF909F908F9008950F93F2
:1015C0001F93CF93DF93DC015696EC915697E23050
:1015D00071F0E330E9F0E13079F5FB0114960D90FC
:1015E000BC91A02DA41BB50BA21BB30B18C0EC0122
:1015F000EC81FD81E61BF70BBF0161507109EE81A3
:10160000FF81DF01A41BB50BAD01421B530B14C0BE
:10161000DA01EC01EE81FF81E61BF70B3197F7FD54
:101620000DC0EC014E815F81E417F5073CF4AF017A
:10163000BD010E94B71302C00E941E14DF91CF911A
:101640001F910F9108950F931F93DC015696EC9113
:101650005697E23061F0E33009F1E13081F51496FC
:10166000ED91FC911597E41BF50B319723C0DC013C
:101670001496ED91FC911597DF01A61BB70BBD01E8
:10168000DC011696ED91FC911797DF01A41BB50BB9
:10169000AD0141505109621B730B11C0FA01DC010D
:1016A00016964D915C911797DA01A61BB70BBD01F9
:1016B000621B730BAB01BF010E941E140CC057FDCF
:1016C0000AC0DC011696ED91FC9117974E175F0743
:1016D00014F40E94B7131F910F910895FC01848D9B
:1016E000DF01A80FB11DA35ABF4F2C91848D90E04C
:1016F00001968F739927848FA689B7892C93A08927
:10170000B1898C91837080648C93938D848D9813B0
:1017100006C00288F389E02D80818F7D8083089543
:10172000EF92FF920F931F93CF93DF93EC0181E031
:10173000888F9B8D8C8D981305C0E889F9898081ED
:1017400085FD26C0F62E0B8D10E00F5F1F4F0F7327
:101750001127E02E8C8DE8120CC00FB607FCFACFD3
:10176000E889F989808185FFF5CFCE010E946E0B53
:10177000F1CF8B8DFE01E80FF11DE35AFF4FF08290
:101780009FB7F8940B8FEA89FB89808180620AC039
:101790009FB7F894EE89FF896083E889F989808191
:1017A0008370806480839FBF81E090E0DF91CF9160
:1017B0001F910F91FF90EF900895CF93DF93EC016D
:1017C000888D8823C9F0EA89FB89808185FD05C061
:1017D000A889B9898C9186FD0FC00FB607FCF5CF9B
:1017E000808185FFF2CFA889B9898C9185FFEDCFE3
:1017F000CE010E946E0BE7CFDF91CF91089590E06C
:10180000FC01E359FF4F2491FC01E954FA4F349154
:10181000FC01EB52FA4FE491EE2309F43CC0222381
:1018200039F1233091F038F42130A9F0223001F55C
:1018300084B58F7D12C0273091F02830A1F024307C
:10184000B9F4809180008F7D03C0809180008F77F4
:10185000809380000DC084B58F7784BD09C08091CE
:10186000B0008F7703C08091B0008F7D8093B0006F
:10187000F0E0EE0FFF1FE553FA4FA591B4919FB72B
:10188000F894611104C08C913095382302C0EC911A
:101890003E2B3C939FBF0895CF93DF9390E0FC01D4
:1018A000E954FA4F2491FC01EB52FA4F84918823BA
:1018B00061F190E0880F991FFC01EF56FA4FC59136
:1018C000D491FC01E553FA4FA591B491611109C07F
:1018D0009FB7F8948881209582238883EC912E23EA
:1018E0000BC0623061F49FB7F8948881322F309535
:1018F00083238883EC912E2B2C939FBF06C08FB738
:10190000F894E8812E2B28838FBFDF91CF91089523
:101910008F929F92AF92BF92CF92DF92EF92FF92FF
:101920006B017C010E94C5054B015C01C114D1040F
:10193000E104F104F1F00E94C505DC01CB01881936
:101940009909AA09BB09883E9340A105B10570F326
:1019500021E0C21AD108E108F10888EE880E83E080
:10196000981EA11CB11CC114D104E104F10419F7A3
:10197000DDCFFF90EF90DF90CF90BF90AF909F9022
:101980008F9008951F920F920FB60F9211242F93EC
:101990003F938F939F93AF93BF9380910602909153
:1019A0000702A0910802B09109023091050223E0DC
:1019B000230F2D3720F40196A11DB11D05C026E887
:1019C000230F0296A11DB11D2093050280930602EC
:1019D00090930702A0930802B093090280910A0233
:1019E00090910B02A0910C02B0910D020196A11DE5
:1019F000B11D80930A0290930B02A0930C02B09346
:101A00000D02BF91AF919F918F913F912F910F90B8
:101A10000FBE0F901F9018951F920F920FB60F9246
:101A200011242F933F934F935F936F937F938F93E3
:101A30009F93AF93BF93EF93FF938091B900887FFB
:101A4000803609F49CC068F5883209F45BC090F4D4
:101A5000803109F454C038F4882309F4F6C0883082
:101A600009F44DC0F6C0883109F44CC0803209F445
:101A70005DC0EFC0803409F468C048F4803309F4D5
:101A800055C0883309F0E5C080933402D8C0803552
:101A900009F44FC0883509F45DC0883409F0D9C015
:101AA000D6C0883909F4C7C0A8F4883709F467C0DC
:101AB00038F4883609F463C0803709F460C0C9C0BF
:101AC000883809F4B8C0803909F45FC0803809F05B
:101AD000C0C05BC0803B09F486C038F4803A09F48A
:101AE00066C0883A09F47FC0B4C0803C09F4A7C03E
:101AF000883C09F4A4C0883B09F48AC0AAC080913C
:101B0000110210C09091330280913202981770F543
:101B1000E091330281E08E0F80933302F0E0EE5EBD
:101B2000FD4F80818093BB0085EC86C0809334029A
:101B30008EC0E091330281E08E0F8093330280915A
:101B4000BB00F0E0EE5EFD4F808390913302809108
:101B500032026EC0E091330281E08E0F8093330237
:101B60008091BB00F0E0EE5EFD4F808380913502F6
:101B700081116DC081E08093100284EA61C083E02E
:101B80008093360210920402CFCF809104028032FB
:101B900008F051C0E091040281E08E0F80930402AE
:101BA0008091BB00F0E0EC51FE4F8083BDCF85EC0F
:101BB0008093BC001092360280910402803230F48F
:101BC000E0910402F0E0EC51FE4F108260910402BB
:101BD00070E0E0914303F091440384EE91E00995B5
:101BE0001092040236C084E0809336021092E30122
:101BF0001092E201E0914503F0914603099580912E
:101C0000E201811105C081E08093E2011092C201DE
:101C1000E091E30181E08E0F8093E301F0E0EE5369
:101C2000FE4F80818093BB009091E3018091E2019F
:101C3000981708F479CF85E88093BC000AC085EC3A
:101C40008093BC001092360204C0109234020E94AD
:101C50008208FF91EF91BF91AF919F918F917F91FA
:101C60006F915F914F913F912F910F900FBE0F9009
:101C70001F901895FC01868197819C01295F3F4F39
:101C800037FF02C0295F3F4F83E0359527958A953E
:101C9000E1F784819581289FA001299F500D389FED
:101CA000500D112460E070E0878D90A10C941A22F1
:101CB000DF92EF92FF920F931F93CF93DF93EC018C
:101CC000D62E072F142F8D8D9E8D009709F44DC0B1
:101CD00029A131E030933702209359021092380243
:101CE00010925A02DC01ED91FC910190F081E02DFF
:101CF00060E00995ED2CF02E01E0DD24D3948D8D6C
:101D00009E8D112349F10032B0F00E949D1189A1EE
:101D1000D0923702809359021092380210925A02E0
:101D20008D8D9E8DDC01ED91FC910190F081E02D77
:101D300060E0099501E08D8D9E8DF7016491DC01D5
:101D4000ED91FC910190F081E02D09950F5F11500C
:101D5000F70131967F01D3CFDF91CF911F910F9182
:101D6000FF90EF90DF900C949D11EDA5FEA5908162
:101D70008BA9809589238083E62EF72E112379F194
:101D8000F70184912B8D3C8D232B39F00E94FA09A9
:101D90001150C70101967C01F1CF28E030E040E806
:101DA000E9A5FAA599A9582F542319F05081952B2C
:101DB00003C05081909595239083EBA5FCA550819D
:101DC0009AA9952B9083EBA5FCA550819AA9909593
:101DD0009523908346952150310911F7D9CFDF9192
:101DE000CF911F910F91FF90EF90DF9008951F9377
:101DF000CF93DF93FC01858D968D009729F1162FE7
:101E0000EF0121A131E03093370220935902109263
:101E1000380210925A02DC01ED91FC910190F081A0
:101E2000E02D60E009958D8D9E8DDC01ED91FC919A
:101E30000190F081E02D612F09958D8D9E8DDF91B0
:101E4000CF911F910C949D11A5A5B6A59C9183A936
:101E5000809589238C93838D948D892B31F0862FE7
:101E6000DF91CF911F910C94FA0928E030E080E8CF
:101E7000A1A5B2A591A9462F482319F04C91942B06
:101E800003C04C91909594239C93A3A5B4A54C9129
:101E900092A9942B9C93A3A5B4A54C9192A990953B
:101EA00094239C9386952150310911F7DF91CF91AE
:101EB0001F91089508958CBD9DBD08951F93CF93E4
:101EC000DF93EC01162F8D8D9E8D892BB1F02FA9FC
:101ED00038AD49AD5AAD60E074E284EF90E00E9405
:101EE0007A1EDA01C9014097A109B109B695A795F3
:101EF000979587958093B8000FC08B8D9C8D892B0B
:101F000021F08DA99EA90E945B0FEFA5F8A99081F1
:101F10008CA9809589238083111102C066EA01C0D3
:101F200067EACE010E94F70E8D8D9E8D892BB1F050
:101F30002BAD3CAD4DAD5EAD60E074E284EF90E062
:101F40000E947A1EDA01C9014097A109B109B6952C
:101F5000A795979587958093B80006C0EFA5F8A937
:101F600090818CA9892B8083DF91CF911F91089557
:101F7000CF92DF92EF92FF920F931F93CF93DF9355
:101F8000EC018D8D9E8D892BB1F02FA938AD49AD17
:101F90005AAD60E074E284EF90E00E947A1EDA01AC
:101FA000C9014097A109B109B695A795979587955D
:101FB0008093B8000FC08B8D9C8D892B21F08DA94B
:101FC0009EA90E945B0FEFA5F8A990818CA980952E
:101FD0008923808345E068E670E0CE010E94580EB8
:101FE0006C816150CE010E94F70E2E813F81C901A4
:101FF000079697FD079633E0959587953A95E1F713
:102000002C813D81829F7001839FF00C929FF00C88
:1020100011240F8D18A18D8D9E8DE00EF11E00975D
:1020200009F446C029A131E03093370220935902C8
:102030001092380210925A02DC01ED91FC9101904D
:10204000F081E02D60E40995DD24D394CC24C39481
:102050008D8D9E8DE016F10641F1BFE1BD15B8F4FE
:102060000E949D1189A1C09237028093590210925B
:10207000380210925A028D8D9E8DDC01ED91FC91FB
:102080000190F081E02D60E40995DD24D3948D8DDD
:102090009E8DF80161918F01DC01ED91FC91019021
:1020A000F081E02D0995D394D3CF0E949D1135C0C6
:1020B000EDA5FEA590818BA9892B80830E151F05A8
:1020C00061F1F80181918F012B8D3C8D232B19F04B
:1020D0000E94FA09F3CF28E030E040E8E9A5FAA52C
:1020E00099A9582F542319F05081952B03C0508182
:1020F000909595239083EBA5FCA550819AA9952BEB
:102100009083EBA5FCA550819AA990959523908387
:1021100046952150310911F7D1CF8D8D9E8D892B98
:10212000B1F02BAD3CAD4DAD5EAD60E074E284EF3F
:1021300090E00E947A1EDA01C9014097A109B10915
:10214000B695A795979587958093B80006C0EFA59B
:10215000F8A990818CA9892B8083DF91CF911F9161
:102160000F91FF90EF90DF90CF9008952AE631E035
:10217000FC0131832083878D90A1009711F00C948E
:102180008C210895CF93DF93EC01FB018EE190E069
:10219000998388831D821C8220E830E03F832E8350
:1021A00080E290E0998788873B872A879D878C8784
:1021B000188E1F861E86198A188A81E08F8B8E8B57
:1021C0002FEF3FEF3D8B2C8B3B8B2A8B898F1A8E09
:1021D0001C8E1B8E8AE691E09B838A831E8E1D8E49
:1021E00087E393E098A38F8F1AA219A28FEF8EA393
:1021F0008FA388A789A78AA780E58FAB18AE8281B5
:1022000093819D838C83848195819F838E83868136
:10221000978199878887808591859B878A87828522
:1022200093859D878C87848595859F878E878685F6
:102230009785998B888B808991899B8B8A8B8289E2
:1022400093899D8B8C8B84898E8B85898F8B8689D6
:10225000888F8789898F808D8A8F818D928D9C8FC1
:102260008B8F838D948D9E8F8D8F858D968D98A36A
:102270008F8F878D90A19AA389A381A18BA382A11F
:102280008CA383A18DA384A18EA385A18FA386A1F6
:1022900088A787A189A780A58AA781A592A59CA7C1
:1022A0008BA783A594A59EA78DA785A596A598AB7A
:1022B0008FA787A590A99AAB89AB81A98BAB82A97F
:1022C0008CAB83A98DAB84A98EAB85A996A998AF59
:1022D0008FAB87A990ADA1ADB2AD89AF9AAFABAFCF
:1022E000BCAF83AD94ADA5ADB6ADFE01FD968083C8
:1022F0009183A283B3838EE090E00E94F420FC01DE
:1023000081E090E091838083168217821086118687
:10231000CF5BDF4FF983E8838AE090E09383828389
:102320009583848380E090E0A0E8BFE38287938771
:10233000A487B587DF91CF91089530915A02313249
:1023400008F04BC0809136028111FCCF9091590268
:1023500022E02093360221E0209335022FEF2093D4
:1023600034021092330230933202E9E3F2E0A2E148
:10237000B2E020E0321721F041914D932F5FFACF68
:102380001092110220911102990F922B9093110239
:1023900090911002913061F410921002909111020C
:1023A0009093BB009091BC0093FDF8CF95EC01C0D9
:1023B00095EE9093BC00909136029230E1F39091AB
:1023C00034029F3F79F080913402803241F0809155
:1023D0003402803331F084E005C081E003C082E044
:1023E00001C083E01092380210925A021092370214
:1023F0000895009769F0FC0101900020E9F73197FA
:10240000AF01481B590BBC018BE592E00C940717F8
:1024100080E090E008953F924F925F926F927F929A
:102420008F929F92AF92BF92CF92DF92EF92FF92E4
:102430000F931F93CF93DF9300D000D000D0CDB780
:10244000DEB72C013B014A015901C901079697FDEE
:1024500007969C0193E0359527959A95E1F73C8383
:102460002B83C12CD12CE12CF12C312CC3018E0DEE
:102470009F1D9A838983E016F106C4F51E821D8292
:102480002D813E812A153B054CF5C901877099279E
:10249000892B11F0330C0EC0ED81FE81F7FD3796CC
:1024A00083E0F595E7958A95E1F7EC0DFD1DE80DC4
:1024B000F91D349037FE0CC021E030E049815A818B
:1024C0006D817E81640D751D88EF92E00E94C907C1
:1024D0008D819E8101969E838D83D2CF9FEFE91AD5
:1024E000F90A2B813C81C20ED31EC0CF26960FB6AF
:1024F000F894DEBF0FBECDBFDF91CF911F910F913A
:10250000FF90EF90DF90CF90BF90AF909F908F9013
:102510007F906F905F904F903F9008952F923F92E1
:102520004F925F926F927F928F929F92AF92BF92E3
:10253000CF92DF92EF92FF920F931F93CF93DF938F
:10254000CDB7DEB72C970FB6F894DEBF0FBECDBF68
:102550009C878B872B01FC01E080F18024813581F1
:1025600038872F83828093809701220F331F2F5F3C
:102570003F4F4F8158854E195F0901E010E0B401CB
:10258000C2010E94BD0781E090E01C012E183F08A7
:10259000882799278E199F09FC01EE0FFF1FFA87E4
:1025A000E9872F8138853C832B83612C712C81E056
:1025B00090E09A8389836E147F040CF05DC06701FC
:1025C00037FC0BC0F1E0CF1AD10829853A852E5F80
:1025D0003F4F3A872987220E331E3FEF631A730A53
:1025E00089819A8102969A838983280E391EC6149E
:1025F000D704F4F0C601880F991FFC013196FE83C1
:10260000ED8301E010E09F01AF80B884AC18BD08F5
:10261000A501B301680D791DC2010E94BD072D817E
:102620003E81A501B40166197709C2010E94BD0768
:10263000EC14FD0439F4EB81FC813197FC83EB83CE
:102640007601B9CFB4016E0D7F1D01E010E0A980C5
:10265000BA80F2E0AF1AB10895014B815C81C201EA
:102660000E94BD07B4016E197F0995014B815C8101
:10267000C2010E94BD07DFCFEB85FC85C284D384F5
:10268000E484F584C701B6010E948F1FEB85FC85A9
:1026900024813581620F731F161617064CF4E091E2
:1026A0000E02F0910F02848595856817790724F151
:1026B0000E94F11D0E94F11D29E030E040E050E051
:1026C0000E94481E64307105810591050CF44BC0D1
:1026D00061E070E080E090E00E94C71FEB85FC8520
:1026E0006683778380879187F7FAF094F7F8F09400
:1026F000C286D386E486F586EB85FC856681778184
:10270000808591850E948F1FEB85FC852281338116
:10271000620F731F738362836285738584859585D9
:102720000E948F1FEB85FC8524813581620F731F0A
:10273000758364832C960FB6F894DEBF0FBECDBFB1
:10274000DF91CF911F910F91FF90EF90DF90CF908D
:10275000BF90AF909F908F907F906F905F904F90C1
:102760003F902F9008956FEF7FEFCB01B5CF0F9380
:102770001F93CF93DF9377FF04C0260F371F60E0CE
:1027800070E0DC011496CD91DC911597FB01E20F0E
:10279000F31FCE17DF071CF49E01261B370B121602
:1027A00013060CF046C0FA0157FD3796DF01E3E04F
:1027B000B595A795EA95E1F7AC9FF001AD9FF00DB7
:1027C000BC9FF00D11246E0F7F1FDC015F96ED9111
:1027D000FC919097E60FF71F4770552781E090E036
:1027E00001C0880F4A95EAF7482F0130110539F0EA
:1027F00078F002301105E9F42E0F3F1F13C02E0FA1
:102800003F1FE217F307A9F08081842B8193F9CF52
:1028100080952E0F3F1FE217F30759F09081982300
:102820009193F9CFE217F30721F0808184278193F8
:10283000F9CFDF91CF911F910F910895EF92FF9201
:102840000F931F93CF93DF93EC0177FDA5C0EC802E
:10285000FD806E157F050CF09FC057FF04C0240F4C
:10286000351F40E050E08E819F81FA01E20FF31F97
:102870008E179F071CF49C01241B350B12161306A0
:102880000CF08AC0922F842F8695869586958E9D12
:10289000D0018F9DB00D11246A0F7B1FAF8DB8A1A1
:1028A000A60FB71F4770B1F188E0841B482F682F2F
:1028B00070E0FB01E757FA4FE491281798F4621B88
:1028C00071092FEF30E002C0359527956A95E2F740
:1028D000E2230130110549F078F00230110509F0CA
:1028E0005BC00EC00130110519F48C91E82B0AC0B1
:1028F0000130110508F049C0E0958C91E82302C031
:102900008C91E827EC93941708F446C02C813D8104
:10291000A20FB31FE92FE41BE830F8F002301105D5
:1029200061F48E2F9C9190959C932C813D81A20FF8
:10293000B31F88508830B0F70FC081E00115110532
:1029400009F480E081959E2F8C932C813D81A20F0C
:10295000B31F98509830C0F7E770EE23E9F0F0E02D
:10296000EF57FA4FE4910130110539F048F0023089
:10297000110591F48C91E82706C08C91E82B03C0D7
:10298000E0958C91E823EC9307C00230110509F41F
:10299000B7CFAE0DBF1DBECFDF91CF911F910F916D
:1029A000FF90EF9008952F923F924F925F926F9217
:1029B0007F928F929F92AF92BF92CF92DF92EF92CF
:1029C000FF920F931F93CF93DF93CDB7DEB76B9733
:1029D0000FB6F894DEBF0FBECDBF9B8F8A8F1B0151
:1029E0004A01D22E198708873701A982DC0159963E
:1029F0002D913C915A972115310509F0FFC0189689
:102A00008D919C911997681779070CF0E7C11A9678
:102A10008D919C911B97481759070CF0DFC1EC2D45
:102A2000F0E0FB83EA839B0146E0C49E200D311D4C
:102A300011243D872C87121613060CF0CFC16A2D86
:102A400070E07B876A8783E0660F771F8A95E1F7DE
:102A50007F876E87CB01880D991D181619060CF01B
:102A6000BDC158968C91811104C08FEA8D1508F470
:102A7000D394AA8DBB8DED91FC9111970284F385BF
:102A8000E02DCD010995B5E0DB9EC0011124EC2DB0
:102A9000F0E0F98BE88B91012B5F3F4F3B8B2A8B4A
:102AA0003D822C822101AC01421953095D8B4C8B74
:102AB0007981672F70E07F8B6E8BC4010896998FA8
:102AC000888FEC89FD89E40DF51DEF57FF4FD490F9
:102AD00054019F828E82D0FE16C0AA8DBB8DED91CF
:102AE000FC91B1E0CB1209C02981213031F404847A
:102AF000F585E02D2885398519C00684F785E02DF8
:102B0000E884F9841DC0488559854615570519F193
:102B1000AA8DBB8DED91FC91B1E0CB120DC0298146
:102B2000213051F40484F585E02D9301A501B20113
:102B30008A8D9B8D09950FC00684F785E02D730162
:102B40000A851B852A813B814E815F816C817D8155
:102B50008A8D9B8D0995D6943FEFA31AB30A4E81B7
:102B60005F816E897F89460F571F5F834E83888DF3
:102B7000998DA816B90609F0AECF9FEF491A590AE8
:102B8000AC81BD81E889F989AE0FBF1FBD83AC83DD
:102B90002A893B894216530609F093CF4885598507
:102BA0004615570509F4F8C0AA8DBB8DED91FC912F
:102BB000B1E0CB1211C02981213071F4B1016B5FFA
:102BC0007F4F0088F189E02D830128E030E0A401E7
:102BD0008A8D9B8D0995E0C06C857D854A815B81DE
:102BE000641B750B0684F785E02D73010E851F8528
:102BF0009A01A4018A8D9B8D0995CEC0F901349666
:102C0000E491DE1AF901329685919491B7E0DB9E4A
:102C1000800D911D1124F901259134913B8B2A8B54
:102C2000FC01259134915901FC0132965490319662
:102C300034913C87329674903196149141E04C1552
:102C400018F05981523068F0672D072C000C770B73
:102C50007D836C83812F012E000C990B9B838A83CB
:102C600004C01B821A821D821C82AA8DBB8DED912D
:102C7000FC9111970284F385E02DCD010995412C3B
:102C8000D12C612CF981EF2FF0E0FF83EE832C2D06
:102C900030E03B872A87A401410F511D17FD5A954B
:102CA0005F8B4E8BB101670D711D77FC7A95798F23
:102CB000688F7C85671608F06FC0262D30E04A814A
:102CC0005B81420F531FAE81BF81A49FC001A59FAE
:102CD000900DB49F900D1124F401E80FF91FF98BAA
:102CE000E88B842D712C4E895F89420F531F5D8BB9
:102CF0004C8B751408F04DC051E0580F5E878770FB
:102D000041F4C5010196EA89FB89EA0DFB1DD490C7
:102D10005C01D7FE3AC061E0C61216C079817130FD
:102D200099F4AA8DBB8DED91FC9111970484F585E2
:102D3000E02D288539854C895D89688D798D670DF1
:102D4000711DCD01099521C08C819D81870D911D3B
:102D5000EA85FB858E9FB0018F9F700D9E9F700D41
:102D60001124620D731DAA8DBB8DED91FC911197FD
:102D70000684F785E02DE884F9840E811F812A8579
:102D80003B8548895989CD010995DD0C73948E8561
:102D9000B0CF450C63948DCFAA8DBB8DED91FC9186
:102DA00011970688F789E02DCD016B960FB6F89440
:102DB000DEBF0FBECDBFDF91CF911F910F91FF906E
:102DC000EF90DF90CF90BF90AF909F908F907F90CB
:102DD0006F905F904F903F902F9009946B960FB635
:102DE000F894DEBF0FBECDBFDF91CF911F910F9141
:102DF000FF90EF90DF90CF90BF90AF909F908F901B
:102E00007F906F905F904F903F902F900895CF925A
:102E1000DF92EF92FF920F931F93CF93DF936C019A
:102E20007A018B01C0E0D0E0CE15DF0581F0D8013A
:102E30006D918D01D601ED91FC910190F081E02D15
:102E4000C6010995892B11F02196EECF7E01C701AD
:102E5000DF91CF911F910F91FF90EF90DF90CF9076
:102E600008958BE592E00E94AF0521E0892B09F4DB
:102E700020E0822F08951F920F920FB60F92112417
:102E80002F933F934F935F936F937F938F939F9372
:102E9000AF93BF93EF93FF938BE592E00E946E0B8D
:102EA000FF91EF91BF91AF919F918F917F916F9122
:102EB0005F914F913F912F910F900FBE0F901F90F8
:102EC00018951F920F920FB60F9211242F938F9384
:102ED0009F93EF93FF93E0916B02F0916C028081DE
:102EE000E0917102F091720282FD12C09081809196
:102EF00074028F5F8F7320917502821751F0E091F9
:102F00007402F0E0E55AFD4F958F8093740201C082
:102F10008081FF91EF919F918F912F910F900FBE24
:102F20000F901F90189588EF92E00C94B610EBE587
:102F3000F2E01382128248EE53E060E070E04483D6
:102F40005583668377838EE091E09183808385EC5F
:102F500090E09587848784EC90E09787868780EC63
:102F600090E0918B808B81EC90E0938B828B82EC54
:102F700090E0958B848B86EC90E0978B868B118EFE
:102F8000128E138E148EA7E3B3E013961C921E923A
:102F9000129714964D935D936D937C93179780E2EF
:102FA00091E011969C938E93E8EFF2E013821282E7
:102FB00020E830E03583248380E290E097838683A5
:102FC0003187208793878287168A1586148617860D
:102FD000168681E0858B848B2FEF3FEF338B228B1E
:102FE000318B208B878B108E128E118E8AE691E0AA
:102FF00091838083148E138EB68FA58F10A2178EA7
:103000008FEF84A385A386A387A384E080A780E5B0
:1030100085AB16AA80E89AE1A6E0B0E087AB90AF56
:10302000A1AFB2AF80EA96E8A1E0B0E083AF94AF81
:10303000A5AFB6AF0895CF93DF93CDB7DEB7EF97C7
:103040000FB6F894DEBF0FBECDBF789484B5826012
:1030500084BD84B5816084BD85B5826085BD85B53C
:10306000816085BD80916E00816080936E001092BA
:103070008100809181008260809381008091810035
:1030800081608093810080918000816080938000C6
:103090008091B10084608093B1008091B000816024
:1030A0008093B00080917A00846080937A00809150
:1030B0007A00826080937A0080917A0081608093A8
:1030C0007A0080917A00806880937A001092C10023
:1030D000E0916B02F0916C0282E08083E0916702E4
:1030E000F09168021082E0916902F0916A0280E139
:1030F000808310927302E0916F02F091700286E07B
:103100008083E0916D02F0916E0280818061808306
:10311000E0916D02F0916E02808188608083E09181
:103120006D02F0916E02808180688083E0916D0273
:10313000F0916E0280818F7D808380911703909142
:103140001803892BB1F52091FE023091FF02C901CD
:10315000079697FD079623E0959587952A95E1F7C1
:103160002091FC023091FD02AC01429FC001439FBF
:10317000900D529F900D11240E94F42090931803FB
:1031800080931703892BA9F409E81AE0F8016491E8
:10319000611105C082E991E00E94F91109C08BE537
:1031A00092E00E94900B0F5F1F4F892B79F7F2CFAF
:1031B000FFCF88EF92E00E943A0E2091FE023091FC
:1031C000FF028091FC029091FD0221323105A4F0B2
:1031D000B9016054710977FF02C06F5F7F4F759529
:1031E00067958255910997FD019600E410E022E56C
:1031F00030E049EC57E013C0B9016052710977FF24
:1032000002C06F5F7F4F759567958357910997FD52
:10321000019600E210E023E730E049EE55E0959595
:1032200087950E940B1282E080931A038091150308
:1032300090911603892BB9F18CE3809319031092B6
:103240004803109247031092380210925A021092CB
:10325000360281E0809335021092100261E082E133
:103260000E94FF0B61E083E10E94FF0B8091B90097
:103270008E7F8093B9008091B9008D7F8093B900D3
:1032800088E48093B80085E48093BC0084EB98E0E8
:10329000909346038093450385EB98E09093440315
:1032A00080934303BEC061E080911E030E944C0CDA
:1032B00061E080911F030E944C0C80911E03082E38
:1032C000000C990BFC01EB52FA4FE491F0E0EE0F89
:1032D000FF1FE553FA4F2591349130932603209335
:1032E0002503FC01E954FA4FE491E0932B0380910C
:1032F0001F03082E000C990BFC01EB52FA4FE491CE
:10330000F0E0EE0FFF1FE553FA4FA591B491B09393
:103310002803A0932703FC01E954FA4FE491E093BA
:103320002C038C91E82BEC93809113039091140360
:10333000892B09F434C01FB7F89480914903811197
:1033400027C0EFEDF5E08491E1ECF5E09491E82FF2
:10335000F0E0EE0FFF1FEF56FA4FA591B491EC91FC
:10336000E92321F461E08AE00E94FF0B61E08AE03A
:103370000E944C0C8CB580618CBD8CB580648CBD7A
:1033800061E08DE00E944C0C61E08BE00E944C0CEF
:10339000809149038F5F809349031FBF42C061E062
:1033A00080911C030E944C0C61E080911D030E94DF
:1033B0004C0C80911C03082E000C990BFC01EB5265
:1033C000FA4FE491F0E0EE0FFF1FE553FA4F25911D
:1033D00034913093220320932103FC01E954FA4FE6
:1033E000E491E093290380911D03082E000C990BB2
:1033F000FC01EB52FA4FE491F0E0EE0FFF1FE553B2
:10340000FA4FA591B491B0932403A0932303FC0138
:10341000E954FA4FE491E0932A038C91E095E82374
:10342000EC938091200387FD1EC061E00E944C0C4C
:1034300061E0809120030E94FF0B61E070E080E07A
:1034400090E00E94880C60E0809120030E94FF0BB6
:103450006AE070E080E090E00E94880C61E080917A
:1034600020030E94FF0B8091150390911603892B76
:10347000D1F020912F0330913003409131035091CE
:10348000320360E074E284EF90E00E947A1EDA0179
:10349000C9014097A109B109B695A7959795879558
:1034A0008093B80016C08091130390911403892B68
:1034B00031F080912D0390912E030E945B0FE091DB
:1034C0002703F0912803908180912C038095892314
:1034D000808344E063EB75E088EF92E00E94580E31
:1034E0006091FE02615088EF92E00E94F70E44E086
:1034F0006FEA75E088EF92E00E94580E80911A03FF
:10350000813011F064E101C060E188EF92E00E9437
:10351000F70E44E06BEA75E088EF92E00E94580EE7
:103520008091FC029091FD028038910509F580910F
:10353000FE029091FF028032910541F444E067EA77
:1035400075E088EF92E00E94580E2DC080349105FE
:1035500051F543E064EA75E088EF92E00E94580E6E
:1035600080911A03813011F06FEC19C06FE917C018
:1035700080369105C1F48091FE029091FF02409740
:1035800091F443E061EA75E088EF92E00E94580E02
:1035900080911A03813011F06FEA01C060E188EF79
:1035A00092E00E94F70E69ED88EF92E00E94F70E1C
:1035B00080911A03813011F061EF01C062E288EF5F
:1035C00092E00E94F70E46E06BE975E088EF92E02A
:1035D0000E94580E8091150390911603892BD1F00B
:1035E00020913303309134034091350350913603D9
:1035F00060E074E284EF90E00E947A1EDA01C90173
:103600004097A109B109B695A7959795879580939D
:10361000B80011C0E0912703F091280390818091B8
:103620002C03892B80838091130390911403892BA1
:1036300011F00E945A0F88EF92E00E943A0E88EF34
:1036400092E00E94B80F8091FA029091FB029C8355
:103650008B838091FC029091FD029E838D838091EB
:10366000FE029091FF0298878F83809100039091D2
:1036700001039A87898780910203909103039C87B5
:103680008B8780910403909105039E878D8780919D
:10369000060390910703988B8F8780910803909180
:1036A00009039A8B898B80910A0390910B039C8B61
:1036B0008B8B80910C038D8B80910D038E8B809171
:1036C0000E038F8B80910F03888F80911003898F59
:1036D00080911103909112039B8F8A8F8AE691E06B
:1036E0009A83898380911303909114039D8F8C8F0B
:1036F00080911503909116039F8F8E8F80911703F1
:103700009091180399A388A3809119038AA38091AB
:103710001A038BA380911B038CA380911C038DA3A0
:1037200080911D038EA380911E038FA380911F03A0
:1037300088A78091200389A780912103909122037B
:103740009BA78AA780912303909124039DA78CA710
:1037500080912503909126039FA78EA78091270330
:103760009091280399AB88AB809129038AAB809113
:103770002A038BAB80912B038CAB80912C038DABF8
:1037800080912D0390912E039FAB8EAB80912F03E0
:1037900090913003A0913103B091320388AF99AF7B
:1037A000AAAFBBAF8091330390913403A09135034E
:1037B000B09136038CAF9DAFAEAFBFAF83E490E066
:1037C0000E94F4208C01AE014F5F5F4F7A01BA0175
:1037D0000E94C21010930F0200930E02C7010E94B4
:1037E000B61060E080E10E944C0C1E2D0F2DE09081
:1037F0000E02F0900F026701F2E0CF0ED11CC6015D
:103800000E943A0EF701848195819C838B83868187
:1038100097819E838D838085918598878F8382850C
:1038200093859A878987848595859C878B878685EC
:1038300097859E878D8780899189988B8F878289CC
:1038400093899A8B898B848995899C8B8B8B8689AC
:103850008D8B87898E8B808D8F8B818D888F828DCC
:10386000898F838D948D9B8F8A8F4AE651E05A838E
:103870004983858D968D9D8F8C8F878D90A19F8F8D
:103880008E8F81A192A199A388A383A18AA384A1E9
:103890008BA385A18CA386A18DA387A18EA380A5D0
:1038A0008FA381A588A782A589A783A594A59BA797
:1038B0008AA785A596A59DA78CA787A590A99FA750
:1038C0008EA781A992A999AB88AB83A98AAB84A959
:1038D0008BAB85A98CAB86A98DAB87A990AD9FAB2F
:1038E0008EAB81AD92ADA3ADB4AD88AF99AFAAAFA9
:1038F000BBAFFD9680819181A281B3818CAF9DAFDA
:10390000AEAFBFAF3496612F702F808191810E943E
:103910008E12812F902F0E94B610C6010E94B80F00
:10392000F70160817181072E000C880B990B0E94B2
:10393000C71F9B01AC0160E070E080E89FE30E943C
:103940001D1F20E030E04AE754E40E947C200E94E2
:10395000961F0E94880CF2E4F0937C0080917A001C
:10396000806480937A0080917A0086FDFCCF60911C
:1039700078008091790070E0782B072E000C880B7E
:10398000990B0E94C71F20E030EC4FE754E40E94DF
:103990001D1F2DEC3CEC4CE650E40E947C206B019A
:1039A0007C014B015C019B01AC010E94E920882352
:1039B00019F085E991E01AC026013701E89477F8FB
:1039C0002FEF3FEF4FE75FE7C301B2010E94E9200D
:1039D00081110FC02FEF3FEF4FE75FE7C301B20147
:1039E0000E94181F18162CF489E991E00E94F91121
:1039F000A0C02FEF3FEF4FE75FE4C701B6010E9481
:103A0000772018161CF48DE991E0F0CF2FEF3FEFEF
:103A10004FE75FECC701B6010E94181F87FDF3CF87
:103A200020E030E0A901C701B6010E94181F87FFFE
:103A30000BC06DE28BE592E00E94900B46015701AE
:103A4000B7FAB094B7F8B0942AE037ED43EA5BE3F5
:103A5000C501B4010E94AC1E6B017C010E94961F3F
:103A60004B015C010E94C51F9B01AC01C701B6015F
:103A70000E94AB1E2B013C0119A27E0141E2E40E23
:103A8000F11C1701C501B4012AE030E040E050E02C
:103A90000E947A1E49015A01605DF70162937F011D
:103AA000232B242B252B71F7CF010E94F9116EE2F5
:103AB0008BE592E00E94900B83E0F82EFA94FF20B1
:103AC000C1F120E030E040E251E4C301B2010E94C4
:103AD0007C204B015C010E94961F9B0140E050E05E
:103AE00019A22101762EC32ED42EE52ECA01B901CA
:103AF0002AE030E040E050E00E947A1E605DF20172
:103B000062932F01211531054105510579F7CF0148
:103B10000E94F911672D7C2D8D2D9E2D0E94C51FB1
:103B20009B01AC01C501B4010E94AB1E2B013C01FD
:103B3000C5CF82E991E00E94F91162E370E080E074
:103B400090E00E94880C0E94BB0551CE8F929F92FC
:103B5000AF92BF92CF92DF92EF92FF92CF93DF931B
:103B6000EC01688179818A819B81611571058105EC
:103B7000910521F464E279ED8BE597E02DE133EFD7
:103B800041E050E00E94481E49015A019B01AC01EE
:103B9000A7EAB1E40E94671E6B017C01ACEEB4EFB2
:103BA000A50194010E94751EDC01CB018C0D9D1DA9
:103BB000AE1DBF1DB7FF03C00197A109B0488883A0
:103BC0009983AA83BB83BC01CD019F77DF91CF91FD
:103BD000FF90EF90DF90CF90BF90AF909F908F902D
:103BE00008958F929F92AF92BF92CF92DF92EF9201
:103BF000FF9260910001709101018091020190910A
:103C00000301611571058105910521F464E279EDE7
:103C10008BE597E02DE133EF41E050E00E94481E34
:103C200049015A019B01AC01A7EAB1E40E94671E59
:103C30006B017C01ACEEB4EFA50194010E94751EEE
:103C4000DC01CB018C0D9D1DAE1DBF1DB7FF03C058
:103C50000197A109B0488093000190930101A093BE
:103C60000201B0930301BC01CD019F77FF90EF905B
:103C7000DF90CF90BF90AF909F908F90089560930A
:103C80000001709301018093020190930301089554
:103C9000052E97FB1EF400940E945F1E57FD07D06F
:103CA0000E947A1E07FC03D04EF40C945F1E5095C0
:103CB0004095309521953F4F4F4F5F4F0895909518
:103CC0008095709561957F4F8F4F9F4F08950E940B
:103CD0009C1EA59F900DB49F900DA49F800D911DDB
:103CE00011240895B7FF0C94671E0E94671E821B63
:103CF000930B0895A1E21A2EAA1BBB1BFD010DC058
:103D0000AA1FBB1FEE1FFF1FA217B307E407F5078B
:103D100020F0A21BB30BE40BF50B661F771F881F67
:103D2000991F1A9469F760957095809590959B01FD
:103D3000AC01BD01CF010895A29FB001B39FC001A6
:103D4000A39F700D811D1124911DB29F700D811DC7
:103D50001124911D08955058BB27AA270E94C31E05
:103D60000C943D200E942F2038F00E94362020F035
:103D700039F49F3F19F426F40C942C200EF4E095AE
:103D8000E7FB0C942620E92F0E944E2058F3BA1727
:103D9000620773078407950720F079F4A6F50C9461
:103DA00070200EF4E0950B2EBA2FA02D0B01B90157
:103DB00090010C01CA01A0011124FF27591B99F0A1
:103DC000593F50F4503E68F11A16F040A22F232FAD
:103DD000342F4427585FF3CF469537952795A795FD
:103DE000F0405395C9F77EF41F16BA0B620B730BA4
:103DF000840BBAF09150A1F0FF0FBB1F661F771F15
:103E0000881FC2F70EC0BA0F621F731F841F48F4C9
:103E1000879577956795B795F7959E3F08F0B0CF52
:103E20009395880F08F09927EE0F97958795089539
:103E30000E94022008F481E008950E94311F0C9432
:103E40003D200E94362058F00E942F2040F029F497
:103E50005F3F29F00C94262051110C9471200C9492
:103E60002C200E944E2068F39923B1F3552391F33F
:103E7000951B550BBB27AA2762177307840738F0D9
:103E80009F5F5F4F220F331F441FAA1FA9F335D036
:103E90000E2E3AF0E0E832D091505040E695001CEA
:103EA000CAF72BD0FE2F29D0660F771F881FBB1FA4
:103EB000261737074807AB07B0E809F0BB0B802D82
:103EC000BF01FF2793585F4F3AF09E3F510578F0AE
:103ED0000C9426200C9471205F3FE4F3983ED4F3B9
:103EE000869577956795B795F7959F5FC9F7880F82
:103EF000911D9695879597F90895E1E0660F771FD4
:103F0000881FBB1F621773078407BA0720F0621B64
:103F1000730B840BBA0BEE1F88F7E09508950E948F
:103F2000961F6894B1110C94712008950E94562038
:103F300088F09F5798F0B92F9927B751B0F0E1F06A
:103F4000660F771F881F991F1AF0BA95C9F714C01A
:103F5000B13091F00E947020B1E008950C9470206F
:103F6000672F782F8827B85F39F0B93FCCF3869553
:103F700077956795B395D9F73EF4909580957095B0
:103F800061957F4F8F4F9F4F0895E89409C097FB2D
:103F90003EF490958095709561957F4F8F4F9F4F20
:103FA0009923A9F0F92F96E9BB279395F695879564
:103FB00077956795B795F111F8CFFAF4BB0F11F427
:103FC00060FF1BC06F5F7F4F8F4F9F4F16C08823CE
:103FD00011F096E911C0772321F09EE8872F762F04
:103FE00005C0662371F096E8862F70E060E02AF045
:103FF0009A95660F771F881FDAF7880F9695879531
:1040000097F90895990F0008550FAA0BE0E8FEEF05
:1040100016161706E807F907C0F012161306E4078C
:10402000F50798F0621B730B840B950B39F40A2685
:1040300061F0232B242B252B21F408950A2609F463
:10404000A140A6958FEF811D811D089597F99F6767
:1040500080E870E060E008959FEF80EC0895002410
:104060000A941616170618060906089500240A94DD
:1040700012161306140605060895092E0394000C63
:1040800011F4882352F0BB0F40F4BF2B11F460FFF2
:1040900004C06F5F7F4F8F4F9F4F089557FD90581B
:1040A000440F551F59F05F3F71F04795880F97FBFC
:1040B000991F61F09F3F79F08795089512161306B6
:1040C0001406551FF2CF4695F1DF08C016161706E5
:1040D0001806991FF1CF869571056105089408951A
:1040E000E894BB2766277727CB0197F908950E94AC
:1040F000022008F48FEF08950E948F200C943D2039
:104100000E942F2038F00E94362020F0952311F0D5
:104110000C9426200C942C2011240C9471200E94C5
:104120004E2070F3959FC1F3950F50E0551F629F8D
:10413000F001729FBB27F00DB11D639FAA27F00D00
:10414000B11DAA1F649F6627B00DA11D661F829F27
:104150002227B00DA11D621F739FB00DA11D621F0C
:10416000839FA00D611D221F749F3327A00D611D29
:10417000231F849F600D211D822F762F6A2F11240B
:104180009F5750409AF0F1F088234AF0EE0FFF1F3E
:10419000BB1F661F771F881F91505040A9F79E3F95
:1041A000510580F00C9426200C9471205F3FE4F3BD
:1041B000983ED4F3869577956795B795F795E795EB
:1041C0009F5FC1F7FE2B880F911D9695879597F9F4
:1041D00008950E940220880B990B0895EE0FFF1F8F
:1041E0000590F491E02D09940F931F93CF93DF93E3
:1041F0008230910510F482E090E0E0914C03F09160
:104200004D0320E030E0A0E0B0E0309719F14081AC
:1042100051810281138148175907C8F08417950707
:1042200069F4109731F012960C93129713961C9321
:1042300027C000934C0310934D0322C02115310574
:1042400019F04217530718F49A01BD01EF01DF017D
:10425000F801DBCF21153105F9F0281B390B24308B
:10426000310580F48A819B816115710521F0FB0184
:104270009383828304C090934D0380934C03FE018B
:10428000329644C0FE01E20FF31F819391932250B6
:104290003109398328833AC020914A0330914B0376
:1042A000232B41F4209106013091070130934B03F9
:1042B00020934A0320910401309105012115310515
:1042C00041F42DB73EB74091080150910901241BDC
:1042D000350BE0914A03F0914B03E217F307A0F48A
:1042E0002E1B3F0B2817390778F0AC014E5F5F4F4C
:1042F0002417350748F04E0F5F1F50934B03409330
:104300004A038193919302C0E0E0F0E0CF01DF9196
:10431000CF911F910F910895CF93DF93009709F4E8
:1043200081C0FC01329713821282A0914C03B0919C
:104330004D03109781F420813181820F931F2091CA
:104340004A0330914B032817390751F5F0934B037B
:10435000E0934A0367C0ED0120E030E0CE17DF07AD
:1043600040F44A815B819E0141155105F1F0EA015B
:10437000F5CFD383C28340815181840F951FC81725
:10438000D90759F488819981840F951F02969183EA
:1043900080838A819B81938382832115310529F44F
:1043A000F0934D03E0934C033DC0E901FB83EA83A6
:1043B00049915991C40FD51FEC17FD0761F4808115
:1043C0009181840F951F0296E901998388838281E8
:1043D00093819B838A83E0E0F0E012968D919C911B
:1043E0001397009719F0FD01DC01F7CF8D919C9197
:1043F00011979D012E5F3F4F820F931F20914A031B
:1044000030914B032817390769F4309729F410923B
:104410004D0310924C0302C013821282B0934B03DF
:10442000A0934A03DF91CF91089581E090E0F89442
:104430000C942122DC0101C06D9341505040E0F703
:10444000089515E0C3E5D5E004C0FE010E94EE200A
:0C4450002196C435D107C9F7F894FFCFBE
:10445C000100000000004E03800000000000900BE3
:10446C0007177E05DD0BAF058D05A10500000000CB
:10447C000E09E108020AA007D908C508B608000011
:10448C000000070A0717020A010A050AA007C90754
:10449C00A107BD07B107D007A007EB05EA05670721
:1044AC002E07E906CC065F06000600000000050A90
:1044BC000717020A010A00000000070A0717020A80
:1044CC00010A3D09A007C907A107BD07B107D0071D
:1044DC00A007EB055E0FDF0A230BE906CC065F068F
:1044EC0000060D0A006E616E00696E66006F7666DE
:0244FC000000BE
:107800000C94343C0C94513C0C94513C0C94513CE1
:107810000C94513C0C94513C0C94513C0C94513CB4
:107820000C94513C0C94513C0C94513C0C94513CA4
:107830000C94513C0C94513C0C94513C0C94513C94
:107840000C94513C0C94513C0C94513C0C94513C84
:107850000C94513C0C94513C0C94513C0C94513C74
:107860000C94513C0C94513C11241FBECFEFD8E036
:10787000DEBFCDBF11E0A0E0B1E0ECE9FFE702C060
:1078800005900D92A230B107D9F712E0A2E0B1E065
:1078900001C01D92AD30B107E1F70E942D3D0C945F
:1078A000CC3F0C94003C982F959595959595959582
:1078B000905D8F708A307CF0282F295A8091C0000B
:1078C00085FFFCCF9093C6008091C00085FFFCCF60
:1078D0002093C6000895282F205DF0CF982F809127
:1078E000C00085FFFCCF9093C6000895EF92FF92F1
:1078F0000F931F93EE24FF2487018091C00087FD22
:1079000017C00894E11CF11C011D111D81E4E8164B
:1079100082E4F8068FE0080780E0180770F3E09132
:107920000401F091050109958091C00087FFE9CF1E
:107930008091C6001F910F91FF90EF9008950E94D3
:10794000763C982F8091C00085FFFCCF9093C600B5
:1079500091362CF490330CF09053892F089597555D
:10796000892F08951F930E949F3C182F0E949F3CCF
:107970001295107F810F1F9108951F93182F882350
:1079800021F00E94763C1150E1F71F9108951F935A
:10799000182F0E94763C803249F0809103018F5F5E
:1079A000809303018530C1F01F9108958091C0003C
:1079B00085FFFCCF84E18093C6008091C00085FFE5
:1079C000FCCF1093C6008091C00085FFFCCF80E102
:1079D0008093C6001F910895E0910401F091050184
:1079E00009951F9108950E94763C803241F0809164
:1079F00003018F5F80930301853081F008958091AA
:107A0000C00085FFFCCF84E18093C6008091C00058
:107A100085FFFCCF80E18093C6000895E0910401CA
:107A2000F09105010995089540E951E08823A1F0FE
:107A30002D9A28EE33E0FA013197F1F721503040CA
:107A4000D1F72D9828EE33E0FA013197F1F7215064
:107A50003040D1F7815061F708953F924F925F9285
:107A60006F927F928F929F92AF92BF92CF92DF924E
:107A7000EF92FF920F931F93CF93DF93000080E16B
:107A80008093C4001092C50088E18093C10086E015
:107A90008093C2005098589A259A81E00E94143D24
:107AA00024E1F22E9EE1E92E85E9D82E0FE0C02ECA
:107AB00010E1B12EAA24A394B1E49B2EA6E58A2E50
:107AC000F2E57F2EE0E26E2E79E4572E63E5462E36
:107AD00050E5352E0E94763C8033B1F18133B9F107
:107AE000803409F46FC0813409F476C0823409F41B
:107AF00085C0853409F488C0803531F1823521F1A3
:107B0000813511F1853509F485C0863509F48DC0BC
:107B1000843609F496C0843709F403C1853709F423
:107B200072C1863709F466C0809103018F5F80932C
:107B30000301853079F6E0910401F0910501099582
:107B40000E94763C803351F60E94F33CC3CF0E94E2
:107B5000763C803249F78091C00085FFFCCFF092DF
:107B6000C6008091C00085FFFCCF9092C600809136
:107B7000C00085FFFCCF8092C6008091C00085FFC9
:107B8000FCCF7092C6008091C00085FFFCCF609250
:107B9000C6008091C00085FFFCCF5092C600809146
:107BA000C00085FFFCCF4092C6008091C00085FFD9
:107BB000FCCF3092C6008091C00085FFFCCFB09210
:107BC000C60088CF0E94763C863808F4BDCF0E945C
:107BD000763C0E94F33C7ECF0E94763C803809F4CC
:107BE0009CC0813809F40BC1823809F43CC1883942
:107BF00009F48FC080E00E94C73C6CCF84E10E94F2
:107C0000BD3C0E94F33C66CF85E00E94BD3C0E94D3
:107C1000F33C60CF0E94763C809306010E94763C44
:107C2000809307010E94F33C55CF0E94763C80333D
:107C300009F41DC183E00E94BD3C80E00E94C73C66
:107C400049CF0E94763C809309020E94763C809343
:107C5000080280910C028E7F80930C020E94763C79
:107C6000853409F415C18091080290910902892B8D
:107C700089F000E010E00E94763CF801E85FFE4FDA
:107C800080830F5F1F4F80910802909109020817AF
:107C9000190788F30E94763C803209F045CF809125
:107CA0000C0280FF01C16091060170910701660F0F
:107CB000771F7093070160930601A0910802B091AD
:107CC00009021097C9F0E8E0F1E09B01AD014E0F09
:107CD0005F1FF999FECF32BD21BD819180BDFA9A17
:107CE000F99A2F5F3F4FE417F50799F76A0F7B1F4B
:107CF00070930701609306018091C00085FFFCCF5F
:107D0000F092C6008091C00085FFFCCFB092C60003
:107D1000E1CE83E00E94C73CDDCE82E00E94C73CFA
:107D2000D9CE0E94763C809309020E94763C8093D3
:107D300008028091060190910701880F991F909386
:107D40000701809306010E94763C853409F4A6C0A1
:107D500080910C028E7F80930C020E94763C8032D0
:107D600009F0B8CE8091C00085FFFCCFF092C6002C
:107D7000609108027091090261157105B9F140E046
:107D800050E080910C02A82FA170B82FB27011C0E2
:107D9000BB2309F45CC0E0910601F0910701319624
:107DA000F0930701E09306014F5F5F4F46175707B7
:107DB000E8F4AA2369F3F999FECF209106013091E6
:107DC000070132BD21BDF89A90B58091C00085FFB2
:107DD000FCCF9093C6002F5F3F4F30930701209355
:107DE00006014F5F5F4F4617570718F38091C00099
:107DF00085FDE5CE8091C00085FFF8CFE0CE81E023
:107E00000E94C73C67CE0E94763C803209F08CCE3F
:107E10008091C00085FFFCCFF092C6008091C00029
:107E200085FFFCCFE092C6008091C00085FFFCCFAB
:107E3000D092C6008091C00085FFFCCFC092C600E2
:107E40008091C00085FFFCCFB092C60043CEE09188
:107E50000601F091070194918091C00085FFFCCF4D
:107E60009093C6009CCF80E10E94C73C33CE0E9415
:107E7000763C0E94763C182F0E94763C112309F430
:107E800083C0113009F484C08FE00E94C73C22CE29
:107E900080910C02816080930C02E5CE80910C02EF
:107EA000816080930C0259CF809107018823880F4D
:107EB000880B8A2180930B02809106019091070123
:107EC000880F991F90930701809306018091080203
:107ED00080FF09C080910802909109020196909359
:107EE000090280930802F894F999FECF1127E091D6
:107EF0000601F0910701C8E0D1E08091080290915D
:107F00000902103091F40091570001700130D9F34B
:107F100003E000935700E89500915700017001308D
:107F2000D9F301E100935700E89509901990009169
:107F3000570001700130D9F301E000935700E89534
:107F40001395103498F011270091570001700130FB
:107F5000D9F305E000935700E895009157000170B0
:107F60000130D9F301E100935700E895329602976A
:107F700009F0C7CF103011F00296E5CF112480919F
:107F8000C00085FFB9CEBCCE8EE10E94C73CA2CD19
:0C7F900085E90E94C73C9ECDF894FFCF0D
:027F9C00800063
:040000030000780081
:00000001FF