:100000000C94B6020C94DE020C94DE020C94DE0218
:100010000C94DE020C94DE020C94DE020C94DE02E0
:100020000C94DE020C94DE020C94DE020C94DE02D0
:100030000C94DE020C94DE020C94DE020C94DE02C0
:100040000C9461100C94DE020C942B0D0C94050D95
:100050000C94DE020C94DE020C94DE020C94DE02A0
:100060000C94AB100C94DE025F0003030404030441
:10007000050C0BFFFE08FE08FE01760345048B20ED
:100080000500CC09210882C4894B8C002208336DFD
:100090008B884A0023128744BC4830123245829133
:1000A0009029128CC4002410A53CAB58252209319C
:1000B0004524915A080025198AC41D914C2289496A
:1000C000122529224944128C486221492C260126F6
:1000D0001188C42CA92428894A233291126522014F
:1000E0002706316D8A01280CA4B4BA504822D226C2
:1000F0000B06290CA4B48A604C498B280D002A0BEE
:10010000555CAB949449A610002B0A554CAB60A8E3
:10011000140C012C0842B4098A04002D06135C8AD1
:10012000012E0622C409022F0C84C4BAA458281632
:100130008AC500300B85449B89842F9209003109C0
:1001400084451BC9482F04320D85449B89842213A2
:1001500089628701330E85449B898422125228923A
:100160000900340C8544AB95882432BA8906350CD5
:1001700085448B8324C842914C00360D85449B896D
:10018000844691B0482600370B84448B432C140BD3
:100190006901380E85449B898422994858241300AC
:1001A000390D85449B89844542A34826003A07526D
:1001B000C40912013B0872B4091245023C0856CC2E
:1001C0004B91B2023D0735548B6A013E0956CC0B68
:1001D000B19222003F0D85449B899A481407C94477
:1001E000004014A93CBDA14C148D8428FA49228AF0
:1001F00043E420120041108943CC38603C0D094390
:10020000B253503222421087440C938A4852521102
:100210004944870800430E8744AC491A71AA18095B
:10022000862800441288C40C9B2C2493C82432894D
:100230004C228B9800450F86C40B8B2822099124F1
:1002400021514474461086C40B8B28228A484224CC
:1002500049484602470F8744AC491A712AAA4962A5
:10026000A24900481189440D0A452692894E3291CF
:100270004C249330490984C40A8A482F044A0C86C6
:10028000C42B9A5045979068044B1189C40C925A1C
:100290004C1494448B22990A69004C0B86C40B9A27
:1002A00050A788E8004D198B440E1A65368A4822FB
:1002B000A28824228A4822A29052486522214E1404
:1002C00088C40CD944161A8528A10829348A49669D
:1002D00011004F0D8744AC598A8C9B24161B01508A
:1002E0000F87440C938A48229294A4421A00511416
:1002F000983CAC612C2493C824320945241152A2A5
:100300001200520D88C40C9B48A7584DA485325347
:100310000C86C49B255AB1469A4C00540C86C48B5B
:100320008B9690501B0500551388C40CCA44169236
:1003300085642159481692C54800561288C40CCAD3
:10034000441692C5244149501215CB0057198B44CD
:100350000E8A6422128594429288242489486293EA
:10036000A14C281301581188C40CCA44169A04C71A
:10037000C3C828269910591088C40CCA441693047F
:100380002551B12A09005A0A86C48B9B6CB44D765C
:100390005B08A3348A8A7E195C0C84C48A583016A0
:1003A0008C0563015D08A3348A897E295E0B655440
:1003B000AB606C144993055F0616340B036007238A
:1003C000740A9100610854C48A998462620D86C4DB
:1003D0000BA116C984449A4C00630B55449B896851
:1003E000268A4C00640B86C4BBA1CA8965A200653D
:1003F0000955449B89E42024660D85C4AA892422DA
:1004000022C9942800670C8634CBD048A26966BB09
:1004100000680B86C40BA116C984C424690A84C46D
:100420001A9174A485006A0AA3B41AB5892E14001F
:100430006B0C86440BA11609892451196C0884C4DD
:100440008A91BE106D0E5AC40D8948B24212914471
:1004500024056E0A56C40B89644262126F0A56C4A0
:100460001B8A88494201700D76B40B896442225D73
:10047000843300710F77B49B8A482292484612A9B0
:100480009000720954C40AC9490900730854C49AF7
:1004900012A902740973449A88A4A224750956C447
:1004A0000B11978902760C56C48B894A4812138A1D
:1004B00000770F59448D892E21892426114A440042
:1004C000780B56C48B894A4C165119790E76B48B29
:1004D000894A4812138A6642007A0955440B8B48B0
:1004E000C9007B0BA4B42A89484526D2267C078103
:1004F000468B43007D0CA4B40A99484D22D22202B7
:100500007E0826DC9B89640200000004FFFF0000D7
:1005100000000000240027002A0000000000250041
:1005200028002B00000000002300260029000404FE
:10053000040404040404020202020202030303038B
:100540000303010204081020408001020408102067
:10055000010204081020000000080002010000034E
:1005600004070000000000000000401811241FBE16
:10057000CFEFD8E0DEBFCDBF11E0A0E0B1E0E0EE0C
:10058000FEE302C005900D92AC3FB107D9F726E01B
:10059000ACEFB1E001C01D92A53FB207E1F712E058
:1005A000C6EBD2E004C02197FE010E94721CC53B3D
:1005B000D107C9F70E949E150C946E1F0C94000081
:1005C000662329F06A3019F0862F90E008958FEFA6
:1005D0009FEF08950F93DC01DF963C91DF97431B5B
:1005E000D596ED91FC91D69709950F910895CF93EB
:1005F000DF93FC01A081B18193AD892F880F880F13
:10060000880F86AF50968C915097803208F08FE11A
:10061000880F880F880F85AF24AD822F880F880F31
:10062000880F87AF51963C915197422F50E0490F68
:10063000511D632F70E06417750714F4932F921BFC
:10064000EF01C05CDF4F8883219628E0929F800DE8
:1006500011248883219680EF888354968D919C91F4
:100660005597813F910508F48883ED5BFF4F5696BF
:100670008C918083DF91CF910895EF92FF920F9339
:100680001F93CF93DF93EC01742F7770E1E0F0E0DC
:10069000072E01C0EE0F0A94EAF73E2F7C018AE78D
:1006A000E80EF11CD7018C91823028F41E2F813086
:1006B00019F430E001C010E050E0487F89AD9AADF8
:1006C000A881B9815096FC91F49FD001F59FB00D9F
:1006D0001124A60FB11DA80FB91F01110BC08C91D9
:1006E000812B83278D932150D1F71CC0110F330F1D
:1006F0002223C1F09C91912B93279C937F5F77706D
:1007000021507111F3CF8DADA80FB11DF70180817C
:10071000823020F4813021F031E002C031E0E8CFB6
:1007200011E0E6CFDF91CF911F910F91FF90EF90F5
:10073000089580E00895213039F020F0223031F41E
:10074000861B0895860F0895841B0895840F0895CD
:10075000213039F020F0223031F4841B0895840FC9
:100760000895860F0895861B0895DC0118964C9114
:100770001897ED91FC911197249130E0042E02C05E
:10078000359527950A94E2F7842F860F883010F468
:10079000E22F0DC031961196FC93EE93E49198E010
:1007A000941B01C0EE0F9A95EAF7E22B8850189639
:1007B0008C9381E090E001C0880F6A95EAF7815040
:1007C0008E23089580E00895CF92DF92EF92FF92FA
:1007D0000F931F93CF93DF936C01EB017B01E40E2A
:1007E000F51E00E010E0CE15DF0561F06991D6013D
:1007F000ED91FC910190F081E02DC6010995080F63
:10080000191FF1CFC801DF91CF911F910F91FF9078
:10081000EF90DF90CF900895089580E090E00895E4
:10082000CF93DF93EC01862F683109F45FC060F449
:10083000B901843181F0873109F0CEC050E081EBFD
:1008400093E00E942D0E50C0693109F472C06032ED
:1008500009F44AC0C1C08C859D85AE85BF85892BB2
:100860008A2B8B2B71F4E881F981A585B0E020EA11
:1008700036E841E050E00E94CD196C877D878E8775
:100880009F8710927D0210927C0210927F0210923C
:100890007E021092850281E0809387021092860288
:1008A00061E082E10E94D10F61E083E10E94D10FFB
:1008B0008091B9008E7F8093B9008091B9008D7FBF
:1008C0008093B90088E48093B80085E48093BC00ED
:1008D0008FEF9DE0909381028093800280E09EE004
:1008E000909383028093820281E077C02C853D85BE
:1008F0004E855F8560E074E284EF90E00E94E0192D
:10090000DA01C9014097A109B109B695A795979554
:1009100087958093B8008E8990E09595879591E0B2
:1009200090937B028093200210927F0210927E02AD
:10093000DBCF20917E02213208F047C080918502F2
:100940008111FCCF8091200292E09093850291E08A
:10095000909387029FEF909384021092A9022093B4
:10096000A802EBE5F2E0A8E8B2E090E0291721F058
:1009700031913D939F5FFACF1092AA029091AA0203
:10098000880F892B8093AA0280918602813061F4BE
:10099000109286028091AA028093BB008091BC00D5
:1009A00083FDF8CF85EC01C085EE8093BC0080917B
:1009B00085028230E1F3809184028F3F31F0809193
:1009C0008402803211F08091840210927F02109292
:1009D0007E0210927B0288CF80E0DF91CF91089554
:1009E00084E00E94A80F21E0892B09F020E0822FEB
:1009F000089585E00E94A80F21E0892B09F020E0EE
:100A0000822F089583E00E94A80F21E0892B09F02E
:100A100020E0822F089582E00E94A80F21E0892B18
:100A200009F020E0822F08958F929F92AF92BF929B
:100A3000CF92DF92EF92FF92CF93DF93EC016C3273
:100A400088F46A3208F089C06832B9F0693209F076
:100A50006DC0C42ED12CE12CF12C0E943C104B0116
:100A60005C013DC06D3209F440C008F45FC084EB06
:100A7000860F823008F448C059C07C012FE1E20E95
:100A8000F11CD0E0F70181917F018F3F39F0D03127
:100A900010F461E001C062E00E940010DF5FD63117
:100AA00089F75BC00E943C10DC01CB0188199909D1
:100AB000AA09BB09883E9340A105B10580F0F1E089
:100AC000CF1AD108E108F10828EE820E23E0921E29
:100AD000A11CB11CC114D104E104F10419F7C11423
:100AE000D104E104F104F1F638C0433018F082E09B
:100AF00090E002C085E090E0880F991F880F991F51
:100B000005970197F1F729C0862F8F73C80FD11D64
:100B1000411107C061E08F8D0E94001060E08F8D51
:100B200012C062E08F8D0E94001017C06034B8F0D0
:100B3000962F9F73FE01E90FF11D878D8F3F69F09E
:100B4000903120F4642F0E94D10F07C00E94A80F9B
:100B500021E0892B09F420E02A8F81E001C080E0A8
:100B6000DF91CF91FF90EF90DF90CF90BF90AF904B
:100B70009F908F900895DC011696ED91FC91179748
:100B800020E030E040E069E10994DC011696ED9147
:100B9000FC91179720E030E040E068E109949A0169
:100BA000DC011696ED91FC911797462F67E10994A9
:100BB000EF92FF920F931F93CF93DF931F92CDB7C6
:100BC000DEB77C018B01D8016C916731E1F078F4DC
:100BD0006531A0F1F80141814983D7011696ED9165
:100BE000FC91179720E030E0C701099524C06A31D5
:100BF000A8F06E3F19F5F8014181498369E2C70108
:100C00000E94D91118C0F80181818983AE014F5F1C
:100C10005F4F61E0C7010E94CF050DC00F5F1F4FFE
:100C2000D7011696ED91FC91179720E030E040E057
:100C3000C7010995C8CF0E5F1F4FC5CF0F90DF9139
:100C4000CF911F910F91FF90EF900895462FDC01F7
:100C50001696ED91FC91179720E030E066E109943B
:100C6000462FDC011696ED91FC91179720E030E0BD
:100C700065E10994DC011896ED91FC91199720E04B
:100C800030E040E069E10994DC011896ED91FC91B7
:100C9000199720E030E040E068E10994CF93DF93BA
:100CA0001F92CDB7DEB76983BE016F5F7F4F0E9491
:100CB000FC0C0F90DF91CF9108950F93FC01EA5B3C
:100CC000FF4F308131965081451728F4301730F0AE
:100CD000041720F010C03017D8F30DC0FC01EC5BF6
:100CE000FF4F308131968081681738F4321740F019
:100CF00081E0261730F080E004C03217C8F3FBCF44
:100D000081E00F9108952F923F924F925F926F92E0
:100D10007F928F929F92AF92BF92CF92DF92EF928B
:100D2000FF920F931F93CF93DF93EC014C0184E468
:100D3000880E911CF4011082329720805E01F5E448
:100D4000AF0EB11CF5012082359730806E01F6E4BC
:100D5000CF0ED11CF6013082359740807E01F7E43A
:100D6000EF0EF11CF70140823496108132976080BB
:100D70003196708032975080012F262D472D652D9A
:100D8000CE010E945D06CC58DF4F811102C018824F
:100D900012C081E08883552011F0F4015082621462
:100DA00010F4F5016082371410F4F6017082141506
:100DB00010F4F7011083DF91CF911F910F91FF90F5
:100DC000EF90DF90CF90BF90AF909F908F907F90EB
:100DD0006F905F904F903F902F9008950F93DC019C
:100DE000802FFD01EC58FF4F9081992309F463C0D7
:100DF000222309F460C0223048F0023019F46F5FFA
:100E0000621B04C0033011F44F5F421B082F0170B6
:100E1000FD0180FD25C0EA5BFF4F8081481708F483
:100E20004AC031968081481708F045C032979081BA
:100E300031978081260F261730F4691718F42FEFA9
:100E4000290F03C0682F6917B0F58217A0F568173E
:100E500008F4682F291708F4922F292F261B22C087
:100E6000EC5BFF4F8081681730F131968081681705
:100E700010F53296908131978081240F241730F439
:100E8000491718F42FEF290F03C0482F491798F47A
:100E9000821788F4481708F4482F291708F4922F6E
:100EA000292F241BD796ED91FC91D8970480F581CA
:100EB000E02DCD0109950F9108955F926F927F9279
:100EC0008F929F92AF92BF92CF92DF92EF92FF925A
:100ED0000F931F93CF93DF935C01F62E642EEC01EA
:100EE000C05BDF4F1C81DD804C018AE7880E911CBE
:100EF000EE80E11ACF2CEF1408F4CE2C5B800C8529
:100F0000202F4D2D612F8A810E949B03782E202F48
:100F10004D2D612F852D0E94A803482F662011F0CA
:100F20008A8504C08985811108C08B85F40180837E
:100F30002C2D672DC5010E94EE06FE1420F0FE1830
:100F4000D39410E0D5CF1F0D1C83DD82DF91CF91AC
:100F50001F910F91FF90EF90DF90CF90BF90AF90D7
:100F60009F908F907F906F905F900895FC01E60FA7
:100F7000F11D849190E0982F88273196E4918E0F8F
:100F8000911D08956F927F928F929F92AF92BF9220
:100F9000CF92DF92EF92FF920F931F93CF93DF9345
:100FA000EC01062F142F7901FC01E45AFF4F8081D8
:100FB0008130C9F070F0823001F1833039F5FE01E3
:100FC000E25BFF4F0190F081E02DCE010995080F03
:100FD0001DC0FE01E25BFF4F0190F081E02DCE01CC
:100FE0000995180F13C0FE01E25BFF4F0190F081DD
:100FF000E02DCE010995081B09C0FE01E25BFF4F01
:101000000190F081E02DCE010995181BFE01EE5AEA
:10101000FF4F0083319610833797808191814796E7
:101020002FEFE216F10409F040F5E1E6EE16F104C7
:1010300020F0FE01E059FF4F07C0F1E4EF16F10484
:1010400038F0FE01E259FF4F20813181820F931F5A
:101050009C012F5F3F4FF9014491442309F40EC1D5
:10106000FC01449150E0E416F50611F4029634C0F8
:10107000F9012491820F911DEBCFFE01EE58FF4F35
:10108000C080D180C80ED91E860160E0C6010E94D2
:10109000B607080F191F62E0C6010E94B607F4E008
:1010A000CF0ED11C8E159F0580F3F801849190E03E
:1010B000982F88273196E4918E2B009709F4DEC093
:1010C000E816F90619F4C801039606C0F80132962D
:1010D000E4910E0F111DE9CF009709F4CFC07E01F6
:1010E000F0E5EF0EF11CF701918380831086719675
:1010F0006081C7010E94B503F70186837296608103
:10110000C7010E94B503D82EF70187835E01FAE775
:10111000AF0EB11CF5019081F701928781E091112A
:1011200080E0F7018387FE01ED59FF4F1081612FA9
:10113000C7010E94B5039FEF910F01E010E09801F5
:1011400001C0220F9A95EAF7782E721AFE01EC5927
:10115000FF4FC0806C2DC7010E94B503CA9448019F
:1011600001C0880CCA94EAF7682E6D0CFE01EB5999
:10117000FF4FC0806C2DC7010E94B503CA9401C007
:10118000000FCA94EAF7C82EC01AF701068110169C
:101190000CF075C094848618292D482D672D828106
:1011A0000E949B03182FF7018283292D482D672D5C
:1011B00083810E94A803F7018383F1E09F16B1F0B9
:1011C0009F1678F022E09216B9F093E099121FC0B2
:1011D000212F2D0D982F901B01E0080F81E0890F22
:1011E00018C0202F210F082F0D0D13C09D1821E0CE
:1011F000210F080F190D0DC091E0392F301B21E090
:10120000210F9D1901E0080F890F130F02C0082F4D
:10121000212F482F612FCE010E945D06882379F18E
:10122000F701148215828E01015A1F4F4E01F0E61C
:101230008F0E911CF8016081C7010E94B503682ED2
:10124000F4016081C7010E94B503782E40E0662D4D
:10125000CE010E945D0741E0672DCE010E945D072F
:1012600061E0C7010E94B5038111F0CFF7018581CC
:101270008D1504F38285F501808301C0C12C8C2D6E
:10128000DF91CF911F910F91FF90EF90DF90CF9062
:10129000BF90AF909F908F907F906F9008950F9325
:1012A0001F93CF93DF93EC018C010C5F1F4FFC0168
:1012B000E058FF4F0190F081E02DC80109958E3F65
:1012C0002FEF920770F4FE01ED57FF4FCE57DF4F1F
:1012D0009C0140816881C8010E94C2079881890FE2
:1012E000888381E090E0DF91CF911F910F91089565
:1012F000CF92DF92EF92FF920F931F93CF93DF93E2
:101300006C017A018B01C0E0D0E0CE15DF0581F0E1
:10131000D8016D918D01D601ED91FC910190F08184
:10132000E02DC6010995892B11F02196EECF7E01A3
:10133000C701DF91CF911F910F91FF90EF90DF9048
:10134000CF9008958F929F92AF92BF920F931F9369
:10135000CF93DF93CDB7DEB7A1970FB6F894DEBF7A
:101360000FBECDBF19A2423008F44AE08E010F5DD6
:101370001F4F842E912CA12CB12CA50194010E9409
:10138000E019E62FB901CA0101501109EA3014F43D
:10139000E05D01C0E95CD801EC93232B242B252BC5
:1013A00061F7B80184E193E00E94C713A1960FB6DC
:1013B000F894DEBF0FBECDBFDF91CF911F910F918B
:1013C000BF90AF909F908F900895CF92DF92EF9251
:1013D000FF92CF93DF936B017C016DE284E193E098
:1013E0000E94390FEC0166277727CB016C197D0924
:1013F0008E099F094AE00E94A2098C0F9D1FDF9170
:10140000CF91FF90EF90DF90CF900895CF93DF932F
:10141000BC01990F880B990B97FF03C00E94E50947
:1014200003C04AE00E94A209EC016FEA71E084E186
:1014300093E00E94C7138C0F9D1FDF91CF910895F9
:10144000CF93DF93EC01892BE1F460915604709106
:101450005704072E000C880B990B97FF03C00E94BE
:10146000E50903C04AE00E94A20962EB71E084E151
:1014700093E00E94C71380914804909149040E9410
:10148000060A8091480490914904209156043091B5
:101490005704AC01421B530B4B30510554F12097BC
:1014A00041F510924A0410924B0410924C04109291
:1014B0004D0410924E0410924F041092500410925A
:1014C00051048EE190E0909347048093460480E1BC
:1014D00090E090934904809348040E9411138091F6
:1014E000600490916104019690936104809360047C
:1014F00035C020915C0430915D04821B930B0B97E7
:101500006CF1219759F581E090E00E94060A109253
:101510004A0410924B0410924C0410924D04109205
:101520004E0410924F0410925004109251048EE118
:1015300090E0909347048093460480E190E090937C
:101540004904809348040E94111380915E04909195
:101550005F04019690935F0480935E04DF91CF91C6
:101560000895BF92CF92DF92EF92FF920F931F9355
:10157000CF93DF937C01B62EC22F102FD1E0D40F72
:10158000C02EC41AD22ED60E01E02D2F4C2D6D2D5B
:101590000E94EE06CB192D2F4C2D6C2FC7010E94F7
:1015A000EE062D2F412F6D2DC7010E94EE062D2F27
:1015B000412F6C2FC7010E94EE06DF91CF911F9142
:1015C0000F91FF90EF90DF90CF90BF9008954F92D2
:1015D0005F926F927F928F929F92AF92BF92CF92C3
:1015E000DF92EF92FF920F931F93CF93DF93709050
:1015F00048041091460404966C0103E0070D23E0B3
:10160000210F4EEF470D6EEF610F0E945D068111B5
:101610001AC080904A0490904B04A0904C04B09063
:101620004D0420E030E0A901C501B4010E94B41BC3
:1016300087FD74C020E030E040E05FE3C501B40105
:101640000E94121A73C0A0E1AA2EB12CB4EF8B2E07
:1016500099249A94C0E0D0E004E0E02EF12C612CB3
:1016600082E0582E072D212F462D652DC6010E94A0
:10167000B10A639497012C5F3F4FCE0DDF1D48E008
:10168000E40EF11CCE01880F991F880D991D1816C4
:1016900019065CF45A9458E0A51AB108AC014C1B29
:1016A0005D0BEA0158E0850E911CA216B306D4F634
:1016B00050E1A52EB12C64EF862E99249A94C0E0B7
:1016C000D0E074E0E72EF12CE2E05E2E612C072DD5
:1016D000212F452D662DC6010E94B10A6394970102
:1016E0002C5F3F4FCE0DDF1D88E0E80EF11CCE01D0
:1016F000880F991F880D991D181619065CF45A94C5
:1017000048E0A41AB108AC014C1B5D0BEA0158E09B
:10171000850E911CA216B306D4F67BCF20E030E0F4
:1017200040E05FE3C501B4010E94111A0E94F01A63
:10173000E0904604F09047048B010E0D1F1D10939E
:1017400047040093460440904E0450904F0460902C
:1017500050047090510420E030E0A901C301B201AF
:101760000E94B41B20E030E040E05FE387FD05C04D
:10177000C301B2010E94121A04C0C301B2010E9447
:10178000111A0E94F01AC0904804D0904904C60E65
:10179000D71ED0924904C092480420E030E0A9014D
:1017A000C501B4010E94B41B20E030E040E05FE3DB
:1017B00087FD05C0C501B4010E94121A04C0C5010D
:1017C000B4010E94111A0E94F01A7801E60EF71E69
:1017D00020E030E0A901C301B2010E94B41B20E067
:1017E00030E040E05FE387FD05C0C301B2010E9425
:1017F000121A04C0C301B2010E94111A0E94F01A09
:10180000EB01CC0DDD1DC7010497C59728F4CE016F
:1018100004974997C0F441C0B7FAB094B7F8B094B0
:1018200080924A0490924B04A0924C04B0924D04D2
:1018300081E090E024E0E216F10414F480E090E00E
:101840000E94200AE4CF80914E0490914F04A09111
:101850005004B0915104B05880934E0490934F04BB
:10186000A0935004B093510424971CF083E090E0BF
:1018700002C082E090E0DF91CF911F910F91FF9025
:10188000EF90DF90CF90BF90AF909F908F907F9020
:101890006F905F904F900C94200ADF91CF911F9131
:1018A0000F91FF90EF90DF90CF90BF90AF909F90FF
:1018B0008F907F906F905F904F900895CF92DF92BE
:1018C000EF92FF920F931F93CF93DF93CDB7DEB7C5
:1018D000C458D1090FB6F894DEBF0FBECDBF0E9429
:1018E000021461EC73E0CE0101960E94E312CE0176
:1018F00001960E94E70A61EC73E0CE0101960E9416
:10190000E312BE016F5F7F4F82E594E00E94E7140F
:1019100061EC73E0CE0101960E94E312BE016F5F9D
:101920007F4F88E594E00E94E71461EC73E0CE01FC
:1019300001960E94E312CE0101960E949814E12CB8
:10194000F12CB7010F2C000C880B990B0E94281B5F
:1019500020E030E040E450E40E94121A0E94F71A9E
:10196000162F0E2D1E1550F01E1579F0CC24C394A1
:101970009EE1D92E1F3FA9F41EEF13C01E2D062F86
:10198000CC24C3948EE1D82E0CC0D12EC12C0EE1F4
:101990001EE107C0C11008C06D2D802F0E947D146C
:1019A0000F5F1017B8F703C0602F8D2DF7CF86E0BB
:1019B000E80EF11C8EE1E816F10419F60E942414D9
:1019C0000E941914CC57DF4F0FB6F894DEBF0FBE3C
:1019D000CDBFDF91CF911F910F91FF90EF90DF90DE
:1019E000CF90089584E193E00E948E0D21E0892B31
:1019F00009F420E0822F08959B01DC011896ED91F7
:101A0000FC91199741E067E109941F920F920FB67C
:101A10000F9211242F933F934F935F936F937F9374
:101A20008F939F93AF93BF93EF93FF9384E193E0E2
:101A30000E94170FFF91EF91BF91AF919F918F91EE
:101A40007F916F915F914F913F912F910F900FBEBA
:101A50000F901F9018951F920F920FB60F9211249E
:101A60002F938F939F93EF93FF93E0912403F09133
:101A700025038081E0912A03F0912B0382FD12C09F
:101A8000908180912D038F5F8F7320912E03821799
:101A900051F0E0912D03F0E0EC5EFC4F958F8093C8
:101AA0002D0301C08081FF91EF919F918F912F9124
:101AB0000F900FBE0F901F901895FC01538D448D11
:101AC000252F30E0842F90E0821B930B541710F0E9
:101AD000CF96089501970895FC01918D828D9817F6
:101AE00061F0828DDF01A80FB11D5D968C91928D02
:101AF0009F5F9F73928F90E008958FEF9FEF0895FF
:101B0000FC01918D828D981731F0828DE80FF11DC7
:101B1000858D90E008958FEF9FEF0895FC01918DE2
:101B2000228D892F90E0805C9F4F821B91098F73DB
:101B30009927089580E090E0892B29F00E94F20C0B
:101B400081110C9400000895833081F028F48130D5
:101B500099F08230A1F008958730A9F08830B9F06B
:101B60008430D1F4809180008F7D03C0809180000B
:101B70008F7780938000089584B58F7702C084B5F5
:101B80008F7D84BD08958091B0008F7703C08091D0
:101B9000B0008F7D8093B000089585ED8093BC00E8
:101BA0008091BC0084FDFCCF109285020895409185
:101BB000EC02262F30E0240F311D21323105DCF4F8
:101BC000209185022430C9F4FC0180E090E0861762
:101BD00058F43091EC022191DC01A453BD4FA30FC6
:101BE000B11D2C930196F3CF8091EC02680F6093A6
:101BF000EC0280E0089581E0089582E00895089560
:101C000008950895E0917D0280917C02E81730F4F8
:101C1000F0E0E455FD4F808190E008958FEF9FEF55
:101C2000089590917D0280917C02981750F4E92FDD
:101C3000F0E0E455FD4F208130E09F5F90937D02FE
:101C400002C02FEF3FEFC901089580917C0290E020
:101C500020917D02821B91090895CF92DF92EF922D
:101C6000FF920F931F93CF93DF937C01CB018A01E7
:101C700020917B02222389F0EB016B01C40ED51E5B
:101C8000CC15DD0569F06991D701ED91FC910190CA
:101C9000F081E02DC7010995F3CF642F0E94D70D85
:101CA000C801DF91CF911F910F91FF90EF90DF90CE
:101CB000CF900895CF93DF931F92CDB7DEB769839E
:101CC00020917B022223D1F020917E02203240F02D
:101CD00021E030E0FC013383228380E090E015C0F6
:101CE00080917F02E82FF0E0E55AFD4F99819083C3
:101CF0008F5F80937F0280937E0205C061E0CE01FA
:101D000001960E94D70D81E090E00F90DF91CF9176
:101D1000089580E008950E94781CEF92FF921F932F
:101D2000CF93DF93EC01162F7A010E94440660E402
:101D3000CE010E944E06E885F9859701412F67E1A3
:101D4000CE010995CE01DF91CF911F91FF90EF90C9
:101D50000C943A06EF92FF921F93CF93DF93EC011E
:101D6000142F7901663121F128F46431E9F16531EC
:101D700049F056C0683109F44FC0F0F0693109F4F8
:101D800044C04EC08091AB02882319F0CE010E945E
:101D90003A06CE010E94440660E0CE010E944E0643
:101DA000612FCE010E944E0681E08093AB0239C0C4
:101DB000642F0E944E0632C08091AB02882319F036
:101DC000CE010E943A06A701193148F068E1CE0120
:101DD0000E948D0E185188E1E80EF11CF4CF612F9E
:101DE000CE010E948D0E18C08E898F3F11F488E7B6
:101DF0008E8BE885F9859701412F64E1CE01DF9153
:101E0000CF911F91FF90EF9009948091AB028823AE
:101E100019F0CE010E943A061092AB0281E001C097
:101E200080E0DF91CF911F91FF90EF900895FC012A
:101E3000848DDF01A80FB11DA35ABF4F2C91848D53
:101E400090E001968F739927848FA689B7892C9388
:101E5000A089B1898C91837080648C93938D848DDB
:101E6000981306C00288F389E02D80818F7D8083DE
:101E70000895EF92FF920F931F93CF93DF93EC019E
:101E800081E0888F9B8D8C8D981305C0E889F98936
:101E9000808185FD26C0F62E0B8D10E00F5F1F4F51
:101EA0000F731127E02E8C8DE8120CC00FB607FCC3
:101EB000FACFE889F989808185FFF5CFCE010E94AC
:101EC000170FF1CF8B8DFE01E80FF11DE35AFF4F85
:101ED000F0829FB7F8940B8FEA89FB89808180623A
:101EE0000AC09FB7F894EE89FF896083E889F98971
:101EF00080818370806480839FBF81E090E0DF9168
:101F0000CF911F910F91FF90EF900895CF93DF93A2
:101F1000EC01888D8823C9F0EA89FB89808185FDE1
:101F200005C0A889B9898C9186FD0FC00FB607FC42
:101F3000F5CF808185FFF2CFA889B9898C9185FF83
:101F4000EDCFCE010E94170FE7CFDF91CF9108951B
:101F5000CF93DF93282F30E0F901EA5AFA4F8491AA
:101F6000F901EE5BFA4FD491F901E25DFA4FC491A9
:101F7000CC2391F081110E94A40DEC2FF0E0EE0F24
:101F8000FF1FEC5DFA4FA591B491EC91ED2381E038
:101F900090E021F480E002C080E090E0DF91CF91FA
:101FA00008951F93CF93DF93282F30E0F901EA5A69
:101FB000FA4F8491F901EE5BFA4FD491F901E25D99
:101FC000FA4FC491CC23C1F0162F81110E94A40DA9
:101FD000EC2FF0E0EE0FFF1FE65EFA4FA591B491F3
:101FE0009FB7F894111104C08C91D095D82302C0EA
:101FF000EC91DE2BDC939FBFDF91CF911F91089571
:10200000CF93DF9390E0FC01EE5BFA4F2491FC014B
:10201000E25DFA4F8491882361F190E0880F991F67
:10202000FC01E05FFA4FC591D491FC01E65EFA4FE6
:10203000A591B491611109C09FB7F894888120954A
:1020400082238883EC912E230BC0623061F49FB70A
:10205000F8948881322F309583238883EC912E2B3E
:102060002C939FBF06C08FB7F894E8812E2B28834E
:102070008FBFDF91CF9108953FB7F89480911003FF
:1020800090911103A0911203B091130326B5A89B60
:1020900005C02F3F19F00196A11DB11D3FBFBA2FFA
:1020A000A92F982F8827820F911DA11DB11DBC015A
:1020B000CD0142E0660F771F881F991F4A95D1F71F
:1020C00008951F920F920FB60F9211242F933F93F2
:1020D0008F939F93AF93BF9380912102909122029F
:1020E000A0912302B091240230910F0323E0230F2B
:1020F0002D3720F40196A11DB11D05C026E8230F40
:102100000296A11DB11D20930F038093210290938D
:102110002202A0932302B093240280911003909195
:102120001103A0911203B09113030196A11DB11DDB
:102130008093100390931103A0931203B0931303A1
:10214000BF91AF919F918F913F912F910F900FBEB3
:102150000F901F9018951F920F920FB60F92112497
:102160002F933F934F935F936F937F938F939F939F
:10217000AF93BF93EF93FF938091B900887F803630
:1021800009F49CC068F5883209F45BC090F4803192
:1021900009F454C038F4882309F4F6C0883009F4EF
:1021A0004DC0F6C0883109F44CC0803209F45DC0DE
:1021B000EFC0803409F468C048F4803309F455C096
:1021C000883309F0E5C080938402D8C0803509F4D3
:1021D0004FC0883509F45DC0883409F0D9C0D6C035
:1021E000883909F4C7C0A8F4883709F467C038F4FF
:1021F000883609F463C0803709F460C0C9C08838E4
:1022000009F4B8C0803909F45FC0803809F0C0C053
:102210005BC0803B09F486C038F4803A09F466C09C
:10222000883A09F47FC0B4C0803C09F4A7C0883C58
:1022300009F4A4C0883B09F48AC0AAC08091AA020C
:1022400010C09091A9028091A802981770F5E091B2
:10225000A90281E08E0F8093A902F0E0E857FD4FBC
:1022600080818093BB0085EC86C0809384028EC001
:10227000E091A90281E08E0F8093A9028091BB00BA
:10228000F0E0E857FD4F80839091A9028091A80269
:102290006EC0E091A90281E08E0F8093A902809127
:1022A000BB00F0E0E857FD4F8083809187028111E9
:1022B0006DC081E08093860284EA61C083E08093F0
:1022C000850210920E03CFCF80910E03803208F06A
:1022D00051C0E0910E0381E08E0F80930E03809138
:1022E000BB00F0E0E251FD4F8083BDCF85EC8093D1
:1022F000BC001092850280910E03803230F4E09190
:102300000E03F0E0E251FD4F108260910E0370E089
:10231000E0918202F09183028EEE92E00995109294
:102320000E0336C084E0809385021092ED02109275
:10233000EC02E0918002F091810209958091EC021B
:10234000811105C081E08093EC021092CC02E091F3
:10235000ED0281E08E0F8093ED02F0E0E453FD4F3B
:1023600080818093BB009091ED028091EC029817E0
:1023700008F479CF85E88093BC000AC085EC80938F
:10238000BC001092850204C0109284020E94CD0D00
:10239000FF91EF91BF91AF919F918F917F916F913D
:1023A0005F914F913F912F910F900FBE0F901F9013
:1023B0001895DC011A96ED91FC911B9720E030E016
:1023C0000994EF92FF920F931F93CF93DF93EC0149
:1023D000142F7901693031F481E591E09983888384
:1023E0001C8A9AC06D3009F46AC030F46A3031F149
:1023F0006B3009F459C092C06E3009F473C06F306D
:1024000009F08CC00E94C505F70183810C89F8E0B2
:102410008F9F000D1124602F62956F706061CE0157
:102420000E943006602F6F70CE010E943006F701C7
:102430006481606BCE010E9430065FC0EA85FB8537
:1024400020E030E040E068E20995EE81FF8120E085
:1024500030E040E064E1CE01099541E06BE4CE015B
:102460000E94D911E881F981448169E2CE010E947C
:10247000D91140E06BE4CE010E94D911E881F981C5
:10248000448169E2CE010E94D91141E06BE4CE01A2
:102490000E94D911E881F981458169E2CE010E944B
:1024A000D9116CE171E007C0411103C067E171E02F
:1024B00002C062E171E0CE010E94D8052DC0411139
:1024C00008C06BE071E00E94D805E881F98182893B
:1024D00007C064E071E00E94D805E881F981838932
:1024E0008C8B1AC00E94C50561E8CE010E9430069F
:1024F000612FCE010E9426060CC0F7014081518158
:102500006281660F660F660FCE010E94CF051150E3
:10251000A1F7CE010E94BB0581E001C080E0DF9100
:10252000CF911F910F91FF90EF900895AF92BF92BE
:10253000CF92DF92FF920F931F93CF93DF938C0183
:10254000D62FDC0159961C9287E6C82E84E0D82E3F
:10255000F12CC8E05801BCE5AB0EB11CF60161914D
:102560006F01D8011296ED91FC911397C80109955E
:102570008F3FBFEF9B07E1F08E3FEFEF9E0771F3B8
:102580009C014C2F6D2FC8010E94C207D5019C9160
:10259000913049F030F0923041F0933039F4C81B5B
:1025A00005C0D80F03C0C80F01C0D81BF80ED6CF86
:1025B0008F2DDF91CF911F910F91FF90DF90CF90E2
:1025C000BF90AF900895FB0122813381FC013383DA
:1025D000228321EA31E0318320832CE7FB0134960A
:1025E000DC01149601900D922A95E1F7FB01E05869
:1025F000FF4F20813181FC01E058FF4F3183208360
:10260000FB01EE57FF4F2081FC01EE57FF4F208367
:10261000FB01ED57FF4F2081FC01ED57FF4F208359
:1026200008958F929F92AF92BF92CF92DF92EF92D6
:10263000FF92CF93DF930E949E196BE070E00E949F
:102640004A1CBC01665F7F4F072E000C880B990B5C
:102650000E94281B20E030E040E251E40E947E1AF4
:102660006B017C010E949E1964E670E00E944A1C86
:10267000C2972CF020E030E040E85FE304C020E0A7
:1026800030E040E85FEBC701B6010E94B91B6B0167
:102690007C0120E030E0A9010E94B41B18161CF454
:1026A000C701B60103C0C701B60190580E94F01AD5
:1026B000623071053CF0C62FD72F6C177D0724F4CC
:1026C000EB0102C0C1E0D0E0C701B6010E94F01AE0
:1026D000161617061CF481E090E002C08FEF9FEF02
:1026E0008C9FB0018D9F700D9C9F700D1124072E43
:1026F000000C880B990B0E94281B4B015C010E9467
:102700009E1964E670E00E944A1CC2972CF060E0BB
:1027100070E080E89FE304C060E070E080E89FEB39
:10272000A50194010E94B91B6B017C010E949E19B6
:1027300080924A0490924B04A0924C04B0924D04B3
:1027400064E670E00E944A1C61E070E0C29714F0F9
:1027500060E070E0072E000C880B990B0E94281B8C
:10276000A70196010E94B91B60934E0470934F0419
:102770008093500490935104DF91CF91FF90EF909C
:10278000DF90CF90BF90AF909F908F90089561158C
:10279000710551F0FB0101900020E9F73197AF017D
:1027A000461B570B0C94780980E090E00895CF9376
:1027B000DF93BC0184E193E00E94C713EC016FEA50
:1027C00071E084E193E00E94C7138C0F9D1FDF919D
:1027D000CF910895CF93DF9380930104CCEFD3E0A2
:1027E000E881F9810190F081E02D85EC93E0099575
:1027F000E881F9810280F381E02D85EC93E0DF919F
:10280000CF910994E091C503F091C603808940916E
:102810000004849FA001112483E0440F551F8A9572
:10282000E1F760E070E08091FE039091FF030C946B
:102830007D1CE091C903F091CA0320E030E040E044
:1028400060E185EC93E00994CF92DF92EF92FF92E2
:102850000F931F93CF93DF9300D000D01F92CDB77B
:10286000DEB7C090000400910104E091C503F0912F
:10287000C603D188102FE12CF12CE091C503F09113
:10288000C60380894091FE035091FF031C821D8383
:102890008B8328E0829FC00111248E9D90018F9D23
:1028A000300D9E9D300D1124CA01820F931F9A8313
:1028B0008983E091C903F091CA039E012F5F3F4FC6
:1028C00041E06FE085EC93E009951F5F812F801B4D
:1028D0008C1528F48FEFE81AF80A1D1570F20F9086
:1028E0000F900F900F900F90DF91CF911F910F914C
:1028F000FF90EF90DF90CF9008950F9390910B048D
:102900006917A0F090910C04691780F49091090464
:10291000891760F090910A04891740F4462F682FB8
:1029200000E021E085EC93E00E94EE060F9108950F
:10293000AF92BF92CF92DF92EF92FF920F931F93CD
:10294000CF93DF937C01EEE5F4E081818F9380816A
:102950008F9308EF11E01F930F93C7E6D4E0DF9346
:10296000CF930E94841C6701E4E0CE0ED11C80EE60
:10297000A82E82E0B82EF701B782A68260E1C601D8
:102980000E949612E0E6F4E081818F9380818F931C
:102990001F930F93DF93CF930E94841CF701B7829C
:1029A000A6828DB79EB70C960FB6F8949EBF0FBE49
:1029B0008DBF68E2C601DF91CF911F910F91FF900B
:1029C000EF90DF90CF90BF90AF900C949612CF9283
:1029D000DF92EF92FF920F931F93CF93DF93EC015F
:1029E000CC80DA807B0184E0E80EF11C0AE00C0D5B
:1029F00022E02D0D4C2D6D2DC7010E945D06811129
:102A00000AC0E881F9810280F381E02DCE010995A9
:102A100081110EC011C010E04C2D410F00E022E0EA
:102A20006D2DC7010E94EE061F5F1A30A9F7E9CF8E
:102A30000C811D8117FF10C0E881F9810190F081A0
:102A4000E02DCE010995882309F46FC00C811D810A
:102A500007311105B4F169C020E030E040EA50E4EC
:102A60006091BD037091BE038091BF039091C0033C
:102A70000E94B91B20E030E040E251E40E94B91B03
:102A80006B017C0120E030E0A9010E94B41B87FDAE
:102A900009C020E030E040E05FE3C701B6010E94DA
:102AA000121A08C020E030E040E05FE3C701B60141
:102AB0000E94111A0E94F01A061B170B1D830C832B
:102AC00034C020E030E040EA50E46091BD037091F2
:102AD000BE038091BF039091C0030E94B91B20E008
:102AE00030E040E251E40E94B91B6B017C0120E020
:102AF00030E0A9010E94B41B87FD09C020E030E04E
:102B000040E05FE3C701B6010E94121A08C020E04E
:102B100030E040E05FE3C701B6010E94111A0E9455
:102B2000F01A600F711F7D836C83DF91CF911F912D
:102B30000F91FF90EF90DF90CF900895789484B537
:102B4000826084BD84B5816084BD85B5826085BDA9
:102B500085B5816085BD80916E00816080936E0037
:102B60001092810080918100826080938100809129
:102B700081008160809381008091800081608093DA
:102B800080008091B10084608093B1008091B0009A
:102B900081608093B00080917A00846080937A0095
:102BA00080917A00826080937A0080917A008160BF
:102BB00080937A0080917A00806880937A001092E6
:102BC000C100E0912403F091250382E08083E0912D
:102BD0002003F09121031082E0912203F09123035E
:102BE0008FEC808310922C03E0912803F09129034D
:102BF00086E08083E0912603F09127038081806145
:102C00008083E0912603F091270380818860808390
:102C1000E0912603F0912703808180688083E09112
:102C20002603F091270380818F7D808384EB91E0E0
:102C30000E94D713E091C903F091CA0320E030E06D
:102C400040E06AE085EC93E00995809140048111B1
:102C50000E94021480E00E94EA130E942414C09192
:102C6000010480910004C80FE091C503F091C603F0
:102C70008189C817C0F00E94191480E00E94EA13ED
:102C8000E091C903F091CA0320E030E040E06BE03E
:102C900085EC93E009958091110490911204885677
:102CA000904041F4B5C08091400481110E9402140B
:102CB0008C2FD1CFE8E6F0E0F0931204E0931104FA
:102CC000E491E0932204E9E6F0E0E491E093230448
:102CD000EAE6F0E0E491E0932404EBE6F0E0E4912E
:102CE000E0932504ECE6F0E0E491E0932604EDE6C1
:102CF000F0E0E491E0932704EEE6F0E0E491E09365
:102D00002804EFE6F0E0E491E0932904E0E7F0E046
:102D1000E491E0932A04E1E7F0E0E491E0932B04EE
:102D2000E2E7F0E0E491E0932C04E3E7F0E0E491E3
:102D3000E0932D04E4E7F0E0E491E0932E04E5E76E
:102D4000F0E0E491E0932F04E6E7F0E0E491E09313
:102D50003004E7E7F0E0E491E0933104E8E7F0E0E5
:102D6000E491E093320461E188E690E00E94B607C6
:102D7000909334048093330463E188E690E00E94EA
:102D8000B607909336048093350465E188E690E0B9
:102D90000E94B60790933804809337048091110401
:102DA00090911204892BA1F180912F0480933B0410
:102DB0004091300440933C0490913A04992341F1AE
:102DC000913069F490913104891714F490933B0485
:102DD000809132048417E4F480933C0419C030914C
:102DE0002C0420912E04082E000C990B622F022E29
:102DF000000C770B630F711D37FD7A9586179707C7
:102E00001CF4320F30933B04241714F420933C0439
:102E10008CEC91E00E94D7130E94111360E082E0D5
:102E20000E94001060E083E00E94001060E084E0F7
:102E30000E94001060E085E00E940010C1EED1E029
:102E400005E212E02FB7F8948091210290912202BE
:102E5000A0912302B09124022FBF8093620490932B
:102E60006304A0936404B09365040E945E0C2FB7C2
:102E7000F8948091210290912202A0912302B091B6
:102E800024022FBFC0906204D0906304E0906404D9
:102E9000F0906504BC01CD016C197D098E099F0974
:102EA0000E94261B20E030E04AE754E40E947E1A8C
:102EB0006093BD037093BE038093BF039093C003E0
:102EC0002FB7F89460912102709122028091230221
:102ED000909124022FBF0E94261B2091570230910F
:102EE00058024091590250915A020E94111A20E052
:102EF00030E04AE754E40E94B41B18160CF047C0B7
:102F0000C090BD03D090BE03E090BF03F090C0031B
:102F1000A701960160E070E080E89FE30E947E1ABE
:102F20000E94F01A7F936F9320E030E04AE754E468
:102F3000C701B6010E94B91B0E94F01A7F936F93DC
:102F4000DF93CF931F930F930E94841C85E292E03E
:102F50000E94D7132FB7F89460912102709122023A
:102F600080912302909124022FBF0E94261B609320
:102F70005702709358028093590290935A028DB76A
:102F80009EB708960FB6F8949EBF0FBE8DBF0E94E5
:102F90009A0D58CFEDEBF3E010821182128213826A
:102FA00021EA31E03583248310924A0410924B04C5
:102FB00010924C0410924D0410924E0410924F0443
:102FC00010925004109251042EE130E030934704E7
:102FD0002093460420E130E03093490420934804D4
:102FE00010925504109254041092570410925604F3
:102FF00025E731E0309353042093520410925D048E
:1030000010925C042DE631E030935904209358046B
:103010002CE330E030935B0420935A0410925F0459
:1030200010925E0410926104109260041092620487
:10303000109263041092640410926504DC011296ED
:103040002D913C911397378326832CE7FC0134960E
:10305000A5ECB3E001900D922A95E1F7FC01E05850
:10306000FF4F2081318130934204209341043296F6
:1030700020812093430431968081809344040895F5
:103080001F93CF93DF93CDB7DEB7C458D1090FB6E6
:10309000F894DEBF0FBECDBF109217031092160337
:1030A00088EE93E0A0E0B0E08093180390931903BA
:1030B000A0931A03B0931B032DE731E0309315035F
:1030C0002093140325EC30E0309321032093200358
:1030D00024EC30E0309323032093220320EC30E0F3
:1030E000309325032093240321EC30E03093270311
:1030F0002093260322EC30E0309329032093280309
:1031000026EC30E030932B0320932A0310922D03FA
:1031100010922E0310922F03109230031092B403DA
:103120001092B3038093B5039093B603A093B703B3
:10313000B093B8038FE891E09093B2038093B1030A
:10314000109274061092730680EE92E09093F2064D
:103150008093F1061092F3061092F40610928E06F8
:1031600081EA91E090937206809371061092760640
:103170001092750610928A0610928D0610928106A2
:103180001092820610928306109284068FEF80932D
:103190008B0680939006E4E9F6E01FEF819396E0BA
:1031A000EA3AF907D1F781EE91E190937A0680939C
:1031B00079068AEA9EE090937C0680937B0680E104
:1031C00094E090937E0680937D0684E195E0909351
:1031D000800680937F0620E030E040E069E085E7EC
:1031E00096E00E94E1111092C2061092C1068DE392
:1031F00093E09093AB068093AA0681E794E09093C6
:10320000AF068093AE0684E08093B0061092B106BC
:103210001092CE061092EE0681E08093EF06809326
:10322000F00689EA91E09093AD068093AC0685E7BD
:1032300096E00E94F7021092BD061092BF0610930E
:10324000BE061093C006E091AC06F091AD06028078
:10325000F381E02D85E796E0099589E993E0909365
:10326000C4068093C3061092D10683E180939F0623
:1032700082E18093A0061092A10661E776E0CE017C
:1032800001960E94E312CE0101960E94CA17CC5704
:10329000DF4F0FB6F894DEBF0FBECDBFDF91CF91E9
:1032A0001F9108958F929F92AF92BF92CF92DF921B
:1032B000EF92FF92CF93DF93EC01688179818A814D
:1032C0009B81611571058105910521F464E279ED19
:1032D0008BE597E02DE133EF41E050E00E94AE191D
:1032E00049015A019B01AC01A7EAB1E40E94CD1942
:1032F0006B017C01ACEEB4EFA50194010E94DB19D7
:10330000DC01CB018C0D9D1DAE1DBF1DB7FF03C0A1
:103310000197A109B04888839983AA83BB839F77CB
:10332000DF91CF91FF90EF90DF90CF90BF90AF9063
:103330009F908F9008950E945219089580E091E027
:103340000E9452190895A0E0B0E08093000190938C
:103350000101A0930201B09303010895052E97FB8C
:103360001EF400940E94C51957FD07D00E94E01971
:1033700007FC03D04EF40C94C51950954095309538
:1033800021953F4F4F4F5F4F0895909580957095D1
:1033900061957F4F8F4F9F4F08950E94021AA59FFE
:1033A000900DB49F900DA49F800D911D1124089540
:1033B000B7FF0C94CD190E94CD19821B930B089571
:1033C000A1E21A2EAA1BBB1BFD010DC0AA1FBB1F29
:1033D000EE1FFF1FA217B307E407F50720F0A21B9B
:1033E000B30BE40BF50B661F771F881F991F1A9408
:1033F00069F760957095809590959B01AC01BD0132
:10340000CF010895A29FB001B39FC001A39F700D8B
:10341000811D1124911DB29F700D811D1124911DDC
:1034200008955058BB27AA270E94291A0C947A1B8A
:103430000E946C1B38F00E94731B20F039F49F3FF0
:1034400019F426F40C94691B0EF4E095E7FB0C9438
:10345000631BE92F0E948B1B58F3BA17620773078F
:103460008407950720F079F4A6F50C94AD1B0EF4B3
:10347000E0950B2EBA2FA02D0B01B90190010C0184
:10348000CA01A0011124FF27591B99F0593F50F49C
:10349000503E68F11A16F040A22F232F342F4427F4
:1034A000585FF3CF469537952795A795F0405395EC
:1034B000C9F77EF41F16BA0B620B730B840BBAF0BC
:1034C0009150A1F0FF0FBB1F661F771F881FC2F727
:1034D0000EC0BA0F621F731F841F48F4879577953B
:1034E0006795B795F7959E3F08F0B0CF9395880FF5
:1034F00008F09927EE0F9795879508950E94921AE4
:103500000C947A1B0E94731B58F00E946C1B40F0B5
:1035100029F45F3F29F00C94631B51110C94AE1BEE
:103520000C94691B0E948B1B68F39923B1F35523FC
:1035300091F3951B550BBB27AA27621773078407C6
:1035400038F09F5F5F4F220F331F441FAA1FA9F35C
:1035500035D00E2E3AF0E0E832D091505040E6954A
:10356000001CCAF72BD0FE2F29D0660F771F881FAB
:10357000BB1F261737074807AB07B0E809F0BB0B9E
:10358000802DBF01FF2793585F4F3AF09E3F5105B2
:1035900078F00C94631B0C94AE1B5F3FE4F3983EF1
:1035A000D4F3869577956795B795F7959F5FC9F79B
:1035B000880F911D9695879597F90895E1E0660F1C
:1035C000771F881FBB1F621773078407BA0720F095
:1035D000621B730B840BBA0BEE1F88F7E0950895FE
:1035E0000E94F71A6894B1110C94AE1B08950E94C2
:1035F000931B88F09F5798F0B92F9927B751B0F0D7
:10360000E1F0660F771F881F991F1AF0BA95C9F766
:1036100014C0B13091F00E94AD1BB1E008950C943C
:10362000AD1B672F782F8827B85F39F0B93FCCF3EF
:10363000869577956795B395D9F73EF490958095E3
:10364000709561957F4F8F4F9F4F0895E89409C003
:1036500097FB3EF490958095709561957F4F8F4FC5
:103660009F4F9923A9F0F92F96E9BB279395F695DB
:10367000879577956795B795F111F8CFFAF4BB0F59
:1036800011F460FF1BC06F5F7F4F8F4F9F4F16C0BD
:10369000882311F096E911C0772321F09EE8872F47
:1036A000762F05C0662371F096E8862F70E060E003
:1036B0002AF09A95660F771F881FDAF7880F96957C
:1036C000879597F9089597F99F6780E870E060E023
:1036D00008959FEF80EC089500240A9416161706AB
:1036E00018060906089500240A94121613061406F3
:1036F00005060895092E0394000C11F4882352F056
:10370000BB0F40F4BF2B11F460FF04C06F5F7F4F0D
:103710008F4F9F4F089557FD9058440F551F59F0F4
:103720005F3F71F04795880F97FB991F61F09F3FAE
:1037300079F087950895121613061406551FF2CFD7
:103740004695F1DF08C0161617061806991FF1CF27
:1037500086957105610508940895E894BB2766274E
:103760007727CB0197F908950E94261C08F48FEF64
:1037700008950E94CC1B0C947A1B0E946C1B38F09D
:103780000E94731B20F0952311F00C94631B0C9482
:10379000691B11240C94AE1B0E948B1B70F3959F28
:1037A000C1F3950F50E0551F629FF001729FBB2738
:1037B000F00DB11D639FAA27F00DB11DAA1F649FD4
:1037C0006627B00DA11D661F829F2227B00DA11D87
:1037D000621F739FB00DA11D621F839FA00D611D0D
:1037E000221F749F3327A00D611D231F849F600D2E
:1037F000211D822F762F6A2F11249F5750409AF057
:10380000F1F088234AF0EE0FFF1FBB1F661F771FE2
:10381000881F91505040A9F79E3F510580F00C94AD
:10382000631B0C94AE1B5F3FE4F3983ED4F3869584
:1038300077956795B795F795E7959F5FC1F7FE2B4D
:10384000880F911D9695879597F90895990F00080F
:10385000550FAA0BE0E8FEEF16161706E807F90762
:10386000C0F012161306E407F50798F0621B730BFD
:10387000840B950B39F40A2661F0232B242B252B7E
:1038800021F408950A2609F4A140A6958FEF811D21
:10389000811D089597FB072E16F4009407D077FD3D
:1038A00009D00E945E1C07FC05D03EF490958195DE
:1038B0009F4F0895709561957F4F0895AA1BBB1B7C
:1038C00051E107C0AA1FBB1FA617B70710F0A61B20
:1038D000B70B881F991F5A95A9F780959095BC0141
:1038E000CD010895EE0FFF1F0590F491E02D09948E
:1038F00081E090E0F8940C946E1FDC0101C06D93A0
:1039000041505040E0F70895AEE0B0E0EAE8FCE155
:103910000C94451F0D891E8986E08C831A830983C8
:103920008FEF9FE79E838D83AE01475E5F4F6F8968
:10393000788DCE0101960E94A61CEF81F885E00FDC
:10394000F11F10822E96E4E00C94611FABE0B0E012
:10395000ECEAFCE10C94371F6C017B018A01FC014D
:1039600017821682838181FFCCC1CE0101963C0172
:10397000F6019381F70193FD859193FF81917F017A
:10398000882309F4BAC1853239F493FD859193FFF8
:1039900081917F01853229F4B60190E00E949D1E3D
:1039A000E7CF912C212C312CFFE1F315D8F08B328D
:1039B00079F038F4803279F08332A1F4232D20613C
:1039C0001DC08D3261F0803369F4232D216016C053
:1039D000832D8260382EE32DE4603E2E2AC0F32D25
:1039E000F8601DC037FC2DC020ED280F2A3040F0B4
:1039F0008E32B9F436FC81C1232D2064322E19C0D9
:103A000036FE06C08AE0989E200D1124922E11C029
:103A1000EAE02E9E200D1124222EF32DF0623F2E7F
:103A200008C08C3621F4832D8068382E02C0883679
:103A300041F4F70193FD859193FF81917F018111FD
:103A4000B3CF982F9F7D9554933028F40C5F1F4F70
:103A50009FE399830DC0833631F0833771F083354E
:103A600009F059C021C0F801808189830E5F1F4F82
:103A700088248394912C530113C02801F2E04F0E47
:103A8000511CF801A080B18036FE03C0692D70E0A2
:103A900002C06FEF7FEFC5010E94921E4C018201B0
:103AA000F32DFF773F2E16C0280122E0420E511C55
:103AB000F801A080B18036FE03C0692D70E002C01D
:103AC0006FEF7FEFC5010E94871E4C01F32DF06858
:103AD0003F2E820133FC1BC0822D90E08816990690
:103AE000B0F4B60180E290E00E949D1E2A94F4CFCB
:103AF000F50137FC859137FE81915F01B60190E0B9
:103B00000E949D1E21102A9421E0821A910881149E
:103B1000910471F7E8C0843611F0893641F5F80157
:103B200037FE07C060817181828193810C5F1F4FD6
:103B300008C060817181072E000C880B990B0E5F05
:103B40001F4FF32DFF763F2E97FF09C0909580956C
:103B5000709561957F4F8F4F9F4FF0683F2E2AE001
:103B600030E0A3010E94D91E882E861845C08537F3
:103B700031F4232D2F7EB22E2AE030E025C0932D84
:103B8000997FB92E8F36C1F018F4883579F0B5C019
:103B9000803719F0883721F0B0C0E92FE061BE2EE0
:103BA000B4FE0DC0FB2DF460BF2E09C034FE0AC068
:103BB000292F2660B22E06C028E030E005C020E1A3
:103BC00030E002C020E132E0F801B7FE07C06081BA
:103BD0007181828193810C5F1F4F06C0608171816A
:103BE00080E090E00E5F1F4FA3010E94D91E882E37
:103BF0008618FB2DFF773F2E36FE0DC0232D2E7F1E
:103C0000A22E891458F434FE0BC032FC09C0832D57
:103C10008E7EA82E05C0B82CA32C03C0B82C01C0E2
:103C2000B92CA4FE0FC0FE01E80DF11D8081803388
:103C300021F49A2D997EA92E09C0A2FE06C0B39444
:103C4000B39404C08A2D867809F0B394A3FC11C004
:103C5000A0FE06C0B21488F4280C922C9B180EC04B
:103C6000B21460F4B60180E290E00E949D1EB3940D
:103C7000F7CFB21418F42B1802C0982C212CA4FEF4
:103C800010C0B60180E390E00E949D1EA2FE17C006
:103C9000A1FC03C088E790E002C088E590E0B6018F
:103CA0000CC08A2D867859F0A1FE02C08BE201C0BB
:103CB00080E2A7FC8DE2B60190E00E949D1E89146F
:103CC00038F4B60180E390E00E949D1E9A94F7CFED
:103CD0008A94F301E80DF11D8081B60190E00E9405
:103CE0009D1E8110F5CF222009F442CEB60180E25C
:103CF00090E00E949D1E2A94F6CFF601868197815E
:103D000002C08FEF9FEF2B96E2E10C94531FFC0152
:103D10000590615070400110D8F7809590958E0FF6
:103D20009F1F0895FC016150704001900110D8F769
:103D3000809590958E0F9F1F08950F931F93CF939B
:103D4000DF93FB01238121FD03C08FEF9FEF2CC088
:103D500022FF16C0468157812481358142175307BF
:103D600044F4A081B1819D012F5F3F4F31832083B7
:103D70008C93268137812F5F3F4F3783268314C072
:103D80008B01EC01FB010084F185E02D0995892B65
:103D9000E1F6D80116968D919C911797019617968A
:103DA0009C938E931697CE01DF91CF911F910F9127
:103DB0000895FA01AA27283051F1203181F1E894C1
:103DC0006F936E7F6E5F7F4F8F4F9F4FAF4FB1E00E
:103DD0003ED0B4E03CD0670F781F891F9A1FA11D09
:103DE000680F791F8A1F911DA11D6A0F711D811D0A
:103DF000911DA11D20D009F468943F912AE0269FCF
:103E000011243019305D3193DEF6CF010895462F2D
:103E10004770405D4193B3E00FD0C9F7F6CF462F0E
:103E20004F70405D4A3318F0495D31FD4052419377
:103E300002D0A9F7EACFB4E0A69597958795779534
:103E40006795BA95C9F700976105710508959B01BB
:103E5000AC010A2E06945795479537952795BA9544
:103E6000C9F7620F731F841F951FA01D08952F921D
:103E70003F924F925F926F927F928F929F92AF92FA
:103E8000BF92CF92DF92EF92FF920F931F93CF9347
:103E9000DF93CDB7DEB7CA1BDB0B0FB6F894DEBFDE
:103EA0000FBECDBF09942A88398848885F846E8404
:103EB0007D848C849B84AA84B984C884DF80EE804E
:103EC000FD800C811B81AA81B981CE0FD11D0FB657
:103ED000F894DEBF0FBECDBFED010895F894FFCF7B
:103EE000010000001815A015C019FF1815A115C86C
:103EF00019FF1815AE19FF1815AF19FF1815AE15D3
:103F0000D5168015A8161F15D316001540158D1649
:103F1000141520160015A115C815DA1602158116FC
:103F20008F15D916F115DB1640152E15A415A619F7
:103F3000FF0001140A6464323200127A000004287F
:103F400096100400008000200000000000F904F03A
:103F5000040000000002050B0500000000390F7886
:103F6000095D0D860F8E0D6C0D800D000000005A4E
:103F70000E2D0E0D04010E250E110E020E00000076
:103F8000004F09E4030D040C04F7028306EA020D56
:103F90000A002000496E697469616C697A696E670C
:103FA00020646973706C61792E2E2E0044697370E1
:103FB0006C617920496E697469616C697A65642EF7
:103FC0000044656C74612054696D653A2025646D08
:0C3FD000732C204650533A20256400005A
:00000001FF
