:100000000C9462000C948A000C948A000C948A0070
:100010000C948A000C948A000C948A000C948A0038
:100020000C948A000C948A000C948A000C948A0028
:100030000C948A000C948A000C948A000C948A0018
:100040000C9445060C948A000C94B60A0C94900A01
:100050000C948A000C948A000C948A000C948A00F8
:100060000C948F060C948A000000000024002700E6
:100070002A0000000000250028002B0000000000DE
:1000800023002600290004040404040404040202DA
:100090000202020203030303030301020408102007
:1000A0004080010204081020010204081020000012
:1000B0000008000201000003040700000000000027
:1000C0000000490E11241FBECFEFD8E0DEBFCDBF28
:1000D00011E0A0E0B1E0E8E2FFE102C005900D927E
:1000E000AE39B107D9F727E0AEE9B1E001C01D9202
:1000F000AD3FB207E1F710E0C2E6D0E004C02197BF
:10010000FE010E94800FC136D107C9F70E94020D7F
:100110000C94920F0C9400003FB7F8948091330236
:1001200090913402A0913502B091360226B5A89B79
:1001300005C02F3F19F00196A11DB11D3FBFBA2F79
:10014000A92F982F8827820F911DA11DB11DBC01D9
:10015000CD0142E0660F771F881F991F4A95D1F79E
:10016000089585ED8093BC008091BC0084FDFCCF98
:100170001092080208954091E401262F30E0240FE8
:10018000311D21323105DCF4209108022430C9F4FC
:10019000FC0180E090E0861758F43091E401219151
:1001A000DC01AC53BE4FA30FB11D2C930196F3CFCE
:1001B0008091E401680F6093E40180E0089581E09C
:1001C000089582E0089508958FEF9FEF08958FEFCF
:1001D0009FEF08958091C30190E0919581959109D9
:1001E0000895CF93DF93CB01EA01642F0E94BB00F7
:1001F000CE01DF91CF910895CF93DF931F92CDB7BA
:10020000DEB7698361E0CE0101960E94BB0081E008
:1002100090E00F90DF91CF91089580E00895DC0188
:100220001A96ED91FC911B9720E030E00994DC01D7
:100230001696ED91FC91179720E030E040E069E1DF
:100240000994DC011696ED91FC91179720E030E0BF
:1002500040E068E109949A01DC011696ED91FC9169
:100260001797462F67E10994EF92FF920F931F9320
:10027000CF93DF931F92CDB7DEB77C018B01D801FE
:100280006C916731E1F078F46531A0F1F8014181BA
:100290004983D7011696ED91FC91179720E030E045
:1002A000C701099524C06A31A8F06E3F19F5F8011D
:1002B0004181498369E2C7010E940F0118C0F8011A
:1002C00081818983AE014F5F5F4F61E0C7010E946A
:1002D0002B010DC00F5F1F4FD7011696ED91FC91BA
:1002E000179720E030E040E0C7010995C8CF0E5FC6
:1002F0001F4FC5CF0F90DF91CF911F910F91FF90AE
:10030000EF900895462FDC011696ED91FC9117971A
:1003100020E030E066E10994462FDC011696ED916D
:10032000FC91179720E030E065E10994EF92FF928D
:100330000F931F93CF93DF93EC01142F79016D304E
:10034000A9F118F46B3039F15FC06E3009F441C087
:100350006F3009F059C00E942101F70183810C8997
:10036000F8E08F9F000D112460E4CE010E948C0103
:10037000602F62956F706061CE010E948C01602FCA
:100380006F70CE010E948201F7016481606BCE0123
:100390000E94820129C0411103C063E171E002C0E3
:1003A0006EE071E0CE010E94340171C0411108C0BD
:1003B00067E071E00E943401E881F981828907C019
:1003C00060E071E00E943401E881F98183898C8BBF
:1003D0005EC00E94210161E8CE010E948C01612F64
:1003E000CE010E9482010CC0F701408151816281DF
:1003F000660F660F660FCE010E942B011150A1F708
:10040000CE010E94170143C0693031F48DE491E0C0
:10041000998388831C8A3BC06A30B9F5EA85FB85DD
:1004200020E030E040E068E2CE010995EE81FF81F6
:1004300020E030E040E064E1CE01099541E06BE46A
:10044000CE010E940F01E881F981448169E2CE0169
:100450000E940F0140E06BE4CE010E940F01E88191
:10046000F981448169E2CE010E940F0141E06BE411
:10047000CE010E940F01E881F981458169E2CE0138
:100480000E940F0168E171E08DCF80E001C081E042
:10049000DF91CF911F910F91FF90EF90089541E070
:1004A0006DE40C940F01DC01ED91FC9145856DE24A
:1004B0000C940F01CF93DF93EC0141E06CE40E94B8
:1004C0000F01CE01DF91CF910C945302CF93DF93B4
:1004D000EC01662319F00E944F0204C040E06DE475
:1004E0000E940F01CE010E945302CE010E945A02C7
:1004F00040E06CE4CE01DF91CF910C940F011F938B
:10050000CF93DF93EC01162F60780E946602612F73
:100510006074CE010E946602612F6072CE010E945B
:100520006602612F6071CE010E946602612F6870C1
:10053000CE010E946602612F6470CE010E946602A5
:10054000612F6270CE010E946602612F6170CE0140
:100550000E946602CE010E944F02CE010E94530209
:10056000CE010E945A02CE010E944F02CE010E948B
:10057000530240E06CE4CE01DF91CF911F910C94C7
:100580000F01DC011896ED91FC91199720E030E005
:1005900040E069E10994DC011896ED91FC9119970E
:1005A00020E030E040E068E10994662329F06A30F9
:1005B00019F0862F90E008958FEF9FEF08950F9325
:1005C000DC01DF963C91DF97431BD596ED91FC91C2
:1005D000D69709950F910895CF93DF93FC01A081E1
:1005E000B18193AD892F880F880F880F86AF509601
:1005F0008C915097803208F08FE1880F880F880F18
:1006000085AF24AD822F880F880F880F87AF519652
:100610003C915197422F50E0490F511D632F70E0DC
:100620006417750714F4932F921BEF01C05CDF4F22
:100630008883219628E0929F800D1124888321963B
:1006400080EF888354968D919C915597813F9105B9
:1006500008F48883ED5BFF4F56968C918083DF9181
:10066000CF910895EF92FF920F931F93CF93DF9353
:10067000EC01742F7770E1E0F0E0072E01C0EE0F7F
:100680000A94EAF73E2F7C018AE7E80EF11CD701B5
:100690008C91823028F41E2F813019F430E001C093
:1006A00010E050E0487F89AD9AADA881B98150969D
:1006B000FC91F49FD001F59FB00D1124A60FB11D40
:1006C000A80FB91F01110BC08C91812B83278D932B
:1006D0002150D1F71CC0110F330F2223C1F09C9180
:1006E000912B93279C937F5F777021507111F3CFEB
:1006F0008DADA80FB11DF7018081823020F48130CB
:1007000021F031E002C031E0E8CF11E0E6CFDF9127
:10071000CF911F910F91FF90EF9008950F93FC01DF
:10072000EA5BFF4F308131965081451728F430172E
:1007300030F0041720F010C03017D8F30DC0FC01C2
:10074000EC5BFF4F308131968081681738F43217A7
:1007500040F081E0261730F080E004C03217C8F383
:10076000FBCF81E00F9108952F923F924F925F92BD
:100770006F927F928F929F92AF92BF92CF92DF92B1
:10078000EF92FF920F931F93CF93DF93EC014C01F5
:1007900084E4880E911CF4011082329720805E015F
:1007A000F5E4AF0EB11CF5012082359730806E0163
:1007B000F6E4CF0ED11CF6013082359740807E01E1
:1007C000F7E4EF0EF11CF701408234961081329766
:1007D00060803196708032975080012F262D472DF2
:1007E000652DCE010E948E03CC58DF4F811102C0CF
:1007F000188212C081E08883552011F0F4015082E4
:10080000621410F4F5016082371410F4F60170825E
:10081000141510F4F7011083DF91CF911F910F9100
:10082000FF90EF90DF90CF90BF90AF909F908F9010
:100830007F906F905F904F903F902F90089580E051
:100840000895FC01E60FF11D849190E0982F882710
:100850003196E4918E0F911D0895EF92FF921F93B0
:10086000CF93DF93EC01142F7901683129F128F43B
:100870006431A9F0673141F055C0693109F43FC0D6
:10088000603209F44DC04EC0112309F449C0F7018C
:1008900061917F01CE010E947F021150F5CF41E0AE
:1008A0006CE40E940F0141E06DE4CE010E940F0153
:1008B000CE010E94530234C08F89882349F0CE01B3
:1008C0000E944F02CE010E945302CE010E945A02A2
:1008D000CE010E944F0240E06DE4CE010E940F0164
:1008E000CE010E94530240E06CE4CE010E940F0151
:1008F00081E08F8B6E89CE010E947F0211C040E0A3
:100900006DE40E940F01CE010E945302CE010E94AD
:100910005A02CE010E944F02CE010E9453021F8A4A
:1009200081E001C080E0DF91CF911F91FF90EF90B7
:100930000895CF92DF92EF92FF920F931F93CF9380
:10094000DF936C01EB017B01E40EF51E00E010E08B
:10095000CE15DF0561F06991D601ED91FC91019012
:10096000F081E02DC6010995080F191FF1CFC801CC
:10097000DF91CF911F910F91FF90EF90DF90CF907B
:100980000895089580E090E00895CF93DF931F923B
:10099000CDB7DEB76983BE016F5F7F4F0E94F90C50
:1009A0000F90DF91CF910895EF92FF921F93CF9315
:1009B000DF93EC01162F7A010E94CB0260E4CE0196
:1009C0000E94C504E885F9859701412F67E1CE01B2
:1009D0000995CE01DF91CF911F91FF90EF900C947C
:1009E000C102EF92FF921F93CF93DF93EC01142F7C
:1009F0007901663121F128F46431E9F1653149F07A
:100A000056C0683109F44FC0F0F0693109F444C0B0
:100A10004EC08091C201882319F0CE010E94C1020C
:100A2000CE010E94CB0260E0CE010E94C504612F7E
:100A3000CE010E94C50481E08093C20139C0642FB9
:100A40000E94C50432C08091C201882319F0CE01F2
:100A50000E94C102A701193148F068E1CE010E944D
:100A6000D404185188E1E80EF11CF4CF612FCE01B7
:100A70000E94D40418C08E898F3F11F488E78E8BB2
:100A8000E885F9859701412F64E1CE01DF91CF918F
:100A90001F91FF90EF9009948091C201882319F073
:100AA000CE010E94C1021092C20181E001C080E02B
:100AB000DF91CF911F91FF90EF900895CF93DF9337
:100AC00090E0FC01E656FF4F2491FC01EA57FF4FEE
:100AD0008491882361F190E0880F991FFC01E85907
:100AE000FF4FC591D491FC01EE58FF4FA591B491F1
:100AF000611109C09FB7F89488812095822388836B
:100B0000EC912E230BC0623061F49FB7F89488817A
:100B1000322F309583238883EC912E2B2C939FBF0B
:100B200006C08FB7F894E8812E2B28838FBFDF9102
:100B3000CF9108958F929F92AF92BF92CF92DF9202
:100B4000EF92FF926B017C010E948C004B015C01D3
:100B5000C114D104E104F104F1F00E948C00DC0125
:100B6000CB0188199909AA09BB09883E9340A105C0
:100B7000B10570F321E0C21AD108E108F10888EE4E
:100B8000880E83E0981EA11CB11CC114D104E1049D
:100B9000F10419F7DDCFFF90EF90DF90CF90BF9079
:100BA000AF909F908F9008950F931F93CF93DF93F3
:100BB000EC01862F642F8C3270F48A3208F05DC00D
:100BC000883289F0893209F042C070E080E090E01C
:100BD0000E949A0552C08D32D1F0C8F194EB980F63
:100BE000923020F134C08E01015E1F4FD0E0F80139
:100BF00081918F018F3F39F0D03110F461E001C055
:100C000062E00E945E05DF5FD63189F736C043306F
:100C100018F082E090E002C085E090E0880F991F14
:100C2000880F991F05970197F1F727C08F73C80F99
:100C3000D11D411107C061E08F8D0E945E0560E00B
:100C40008F8D11C062E08F8D0E945E0516C08034CA
:100C5000B0F0982F9F73FE01E90FF11D878D8F3F34
:100C600061F0903118F40E94110B07C00E94E80A4D
:100C700021E0892B09F420E02A8F81E001C080E087
:100C8000DF91CF911F910F9108951F920F920FB690
:100C90000F9211242F933F938F939F93AF93BF9302
:100CA00080912F0290913002A0913102B0913202D6
:100CB00030912E0223E0230F2D3720F40196A11D41
:100CC000B11D05C026E8230F0296A11DB11D20937A
:100CD0002E0280932F0290933002A0933102B093A2
:100CE00032028091330290913402A0913502B0918A
:100CF00036020196A11DB11D8093330290933402F8
:100D0000A0933502B0933602BF91AF919F918F911E
:100D10003F912F910F900FBE0F901F9018951F922B
:100D20000F920FB60F9211242F933F934F935F931F
:100D30006F937F938F939F93AF93BF93EF93FF93A3
:100D40008091B900887F803609F49CC068F58832AC
:100D500009F45BC090F4803109F454C038F488235E
:100D600009F4F2C0883009F44DC0F2C0883109F4AA
:100D70004CC0803209F45DC0EBC0803409F468C017
:100D800048F4803309F455C0883309F0E1C08093FA
:100D90000702D4C0803509F44FC0883509F45DC01E
:100DA000883409F0D5C0D2C0883909F4C3C0A8F48A
:100DB000883709F467C038F4883609F463C080378F
:100DC00009F460C0C5C0883809F4B4C0803909F49A
:100DD0005FC0803809F0BCC05BC0803B09F484C0B0
:100DE00038F4803A09F466C0883A09F47DC0B0C08E
:100DF000803C09F4A3C0883C09F4A0C0883B09F4F6
:100E000086C0A6C080912D0210C090912C028091C6
:100E10002B02981770F5E0912C0281E08E0F8093E1
:100E20002C02F0E0E55FFD4F80818093BB0085ECF4
:100E300082C0809307028AC0E0912C0281E08E0F6D
:100E400080932C028091BB00F0E0E55FFD4F808332
:100E500090912C0280912B026AC0E0912C0281E0DB
:100E60008E0F80932C028091BB00F0E0E55FFD4F78
:100E7000808380910A02811169C081E08093090218
:100E800084EA5DC083E08093080210920602CFCF0F
:100E900080910602803208F04DC0E091060281E0A8
:100EA0008E0F809306028091BB00F0E0EA51FE4F66
:100EB0008083BDCF85EC8093BC00109208028091A6
:100EC0000602803230F4E0910602F0E0EA51FE4F73
:100ED00010826091060270E086EE91E0E0E0F0E0C2
:100EE00009951092060234C084E0809308021092A3
:100EF000E5011092E401E0E0F0E009958091E40161
:100F0000811105C081E08093E4011092C401E09159
:100F1000E50181E08E0F8093E501F0E0EC53FE4F98
:100F200080818093BB009091E5018091E401981746
:100F300008F47DCF85E88093BC000AC085EC8093DF
:100F4000BC001092080204C0109207020E94B10077
:100F5000FF91EF91BF91AF919F918F917F916F9191
:100F60005F914F913F912F910F900FBE0F901F9067
:100F70001895213039F020F0223031F4861B089585
:100F8000860F0895841B0895840F0895213039F049
:100F900020F0223031F4841B0895840F0895860FC9
:100FA0000895861B08952F923F924F925F926F9201
:100FB0007F928F929F92AF92BF92CF92DF92EF92E9
:100FC000FF920F931F93CF93DF93EC016C0124E00A
:100FD000C20ED11CFC01E058FF4F0190F081E02DC2
:100FE000C60109957C018EEFE8168FEFF80608F030
:100FF00075C1FE01ED57FF4F10814E0192E8890E39
:10100000911CF4010081B29780818130C9F070F0A9
:10101000823001F1833039F5FE01EE5AFF4F019025
:10102000F081E02DC6010995080F1DC0FE01EE5AA2
:10103000FF4F0190F081E02DC6010995180F13C0F4
:10104000FE01EE5AFF4F0190F081E02DC601099597
:10105000081B09C0FE01EE5AFF4F0190F081E02D00
:10106000C6010995181BFE01EA5AFF4F008331960D
:1010700010833797808191814796FFEFEF16F10437
:1010800009F040F521E6E216F10420F0FE01EC58EB
:10109000FF4F07C0E1E4EE16F10438F0FE01EE5810
:1010A000FF4F20813181820F931F9C012F5F3F4FA3
:1010B000F9014491442309F40FC1FC01449150E02B
:1010C000E416F50611F4029634C0F9012491820F5A
:1010D000911DEBCFFE01EA58FF4FA080B180A80E12
:1010E000B91E850160E0C5010E942104080F191F87
:1010F00062E0C5010E942104F4E0AF0EB11C8E1520
:101100009F0580F3F801849190E0982F882731960D
:10111000E4918E2B009709F4DFC0E816F90619F464
:10112000C801039606C0F8013296E4910E0F111D16
:10113000E9CF009709F4D0C07E01F4E5EF0EF11C71
:10114000F70191838083108671966081C7010E94A8
:10115000D90BF701868372966081C7010E94D90B73
:10116000782EF70187835E01FEE7AF0EB11CF50113
:101170009081F701928781E0911180E0F7018387E8
:10118000FE01E959FF4F1081612FC7010E94D90B61
:101190009FEF910F01E010E0980101C0220F9A9596
:1011A000EAF7382E321AFE01E859FF4F6080662DAB
:1011B000C7010E94D90B6A94280101C0440C6A94AB
:1011C000EAF7282E270CFE01E759FF4F6080662DB5
:1011D000C7010E94D90B6A9401C0000F6A94EAF714
:1011E000682E601AF701068110160CF070C0548446
:1011F0004218252D442D632D82810E94B907182F96
:10120000F7018283252D442D632D83810E94C6071B
:10121000F7018383F1E05F16B1F05F1678F022E00A
:101220005216B9F093E059121FC0212F270D982FA5
:10123000901B01E0080F81E0890F18C0202F210FBB
:10124000082F070D13C0571821E0210F080F150DA7
:101250000DC091E0392F301B21E0210F971901E0DB
:10126000080F890F130F02C0082F212F482F612F5D
:10127000C6010E948E03882351F1F7011482158262
:101280008E010D591F4FCC59DF4FF8016081C70106
:101290000E94D90B482E6881C7010E94D90B582E95
:1012A00040E0642DC6010E94060C41E0652DC60198
:1012B0000E94060C61E0C7010E94D90B8111F0CF9A
:1012C000F701858187150CF38285F5018083F40190
:1012D0008081680E608202C0612CF9CF81E090E0CD
:1012E000DF91CF911F910F91FF90EF90DF90CF9002
:1012F000BF90AF909F908F907F906F905F904F9036
:101300003F902F900895FC01538D448D252F30E0A0
:10131000842F90E0821B930B541710F0CF96089502
:1013200001970895FC01918D828D981761F0828D4F
:10133000DF01A80FB11D5D968C91928D9F5F9F7309
:10134000928F90E008958FEF9FEF0895FC01918DAB
:10135000828D981731F0828DE80FF11D858D90E018
:1013600008958FEF9FEF0895FC01918D228D892FB5
:1013700090E0805C9F4F821B91098F73992708959D
:1013800087E392E00E94B40921E0892B09F420E070
:10139000822F0895FC01848DDF01A80FB11DA35A8F
:1013A000BF4F2C91848D90E001968F739927848F85
:1013B000A689B7892C93A089B1898C9183708064A8
:1013C0008C93938D848D981306C00288F389E02D49
:1013D00080818F7D80830895EF92FF920F931F93FA
:1013E000CF93DF93EC0181E0888F9B8D8C8D9813D8
:1013F00005C0E889F989808185FD26C0F62E0B8D10
:1014000010E00F5F1F4F0F731127E02E8C8DE81235
:101410000CC00FB607FCFACFE889F989808185FFF7
:10142000F5CFCE010E94CA09F1CF8B8DFE01E80FE6
:10143000F11DE35AFF4FF0829FB7F8940B8FEA89B2
:10144000FB89808180620AC09FB7F894EE89FF898A
:101450006083E889F98980818370806480839FBF7D
:1014600081E090E0DF91CF911F910F91FF90EF907D
:101470000895CF93DF93EC01888D8823C9F0EA8922
:10148000FB89808185FD05C0A889B9898C9186FD7D
:101490000FC00FB607FCF5CF808185FFF2CFA8897A
:1014A000B9898C9185FFEDCFCE010E94CA09E7CFA3
:1014B000DF91CF91089580E090E0892B29F00E9480
:1014C000C00981110C9400000895833081F028F444
:1014D000813099F08230A1F008958730A9F08830EA
:1014E000B9F08430D1F4809180008F7D03C0809169
:1014F00080008F7780938000089584B58F7702C035
:1015000084B58F7D84BD08958091B0008F7703C02E
:101510008091B0008F7D8093B00008950E94860F67
:101520001F920F920FB60F9211242F933F934F9358
:101530005F936F937F938F939F93AF93BF93EF933B
:10154000FF9387E392E00E94CA09FF91EF91BF9158
:10155000AF919F918F917F916F915F914F913F914B
:101560002F910F900FBE0F901F9018951F920F9202
:101570000FB60F9211242F938F939F93EF93FF93A6
:10158000E0914702F09148028081E0914D02F09194
:101590004E0282FD12C09081809150028F5F8F7346
:1015A00020915102821751F0E0915002F0E0E95C85
:1015B000FD4F958F8093500201C08081FF91EF9184
:1015C0009F918F912F910F900FBE0F901F901895A4
:1015D000CF93DF93282F30E0F901E255FF4F84913C
:1015E000F901E656FF4FD491F901EA57FF4FC49134
:1015F000CC2391F081110E94650AEC2FF0E0EE0FF0
:10160000FF1FE458FF4FA591B491EC91ED2381E0C9
:1016100090E021F480E002C080E090E0DF91CF9183
:1016200008951F93CF93DF93282F30E0F901E255FF
:10163000FF4F8491F901E656FF4FD491F901EA5723
:10164000FF4FC491CC23C1F0162F81110E94650A6F
:10165000EC2FF0E0EE0FFF1FEE58FF4FA591B49175
:101660009FB7F894111104C08C91D095D82302C073
:10167000EC91DE2BDC939FBFDF91CF911F910895FA
:101680000F93DC01802FFD01EC58FF4F90819923CF
:1016900009F463C0222309F460C0223048F002300C
:1016A00019F46F5F621B04C0033011F44F5F421BDB
:1016B000082F0170FD0180FD25C0EA5BFF4F80818E
:1016C000481708F44AC031968081481708F045C091
:1016D0003297908131978081260F261730F4691751
:1016E00018F42FEF290F03C0682F6917B0F5821780
:1016F000A0F5681708F4682F291708F4922F292FEE
:10170000261B22C0EC5BFF4F8081681730F13196B9
:101710008081681710F53296908131978081240F6F
:10172000241730F4491718F42FEF290F03C0482F5E
:10173000491798F4821788F4481708F4482F291796
:1017400008F4922F292F241BD796ED91FC91D8975E
:101750000480F581E02DCD0109950F910895CF9278
:10176000DF92EF92FF920F931F93CF93DF936C0161
:101770007A018B01C0E0D0E0CE15DF0581F0D80101
:101780006D918D01D601ED91FC910190F081E02DDC
:10179000C6010995892B11F02196EECF7E01C70174
:1017A000DF91CF911F910F91FF90EF90DF90CF903D
:1017B0000895DC0118964C911897ED91FC911197C2
:1017C000249130E0042E02C0359527950A94E2F763
:1017D000842F860F883010F4E22F0DC031961196B9
:1017E000FC93EE93E49198E0941B01C0EE0F9A9560
:1017F000EAF7E22B885018968C9381E090E001C0C4
:10180000880F6A95EAF781508E2308955F926F9250
:101810007F928F929F92AF92BF92CF92DF92EF9280
:10182000FF920F931F93CF93DF935C01162F642ECB
:10183000EC01C05BDF4FDC80ED804C018AE7880E55
:10184000911CFE80FD18CF2C1F1508F4C12E5B8063
:101850000C85202F4E2D6D2D8A810E94B907782E80
:10186000202F4E2D6D2D852D0E94C607482F6620F6
:1018700011F08A8504C08985811108C08B85F40127
:1018800080832C2D672DC5010E94400B1F1520F071
:101890001F19E394D12CD5CF1D0D1C83ED82DF9150
:1018A000CF911F910F91FF90EF90DF90CF90BF905D
:1018B000AF909F908F907F906F905F900895CF939F
:1018C000DF9380931903C4E1D3E0E881F9810190AB
:1018D000F081E02D8DED92E00995E881F98102809B
:1018E000F381E02D8DED92E0DF91CF910994E091AD
:1018F000DD02F091DE02808940911803849FA001EF
:10190000112483E0440F551F8A95E1F760E070E0F1
:1019100080911603909117030C948B0FCF92DF9256
:10192000EF92FF920F931F93CF93DF9300D000D0DD
:101930001F92CDB7DEB7C090180300911903E09154
:10194000DD02F091DE02D188102FE12CF12CE09124
:10195000DD02F091DE028089409116035091170359
:101960001C821D838B8328E0829FC00111248E9DE1
:1019700090018F9D300D9E9D300D1124CA01820F64
:10198000931F9A838983E091E102F091E2029E0124
:101990002F5F3F4F41E06FE08DED92E009951F5FB3
:1019A000812F801B8C1528F48FEFE81AF80A1D157B
:1019B00070F20F900F900F900F900F90DF91CF91DA
:1019C0001F910F91FF90EF90DF90CF9008950097B7
:1019D00069F0FC0101900020E9F73197AF01481B45
:1019E000590BBC0187E392E00C94AF0B80E090E0D0
:1019F00008959B01DC011896ED91FC91199741E047
:101A000067E10994CF93DF93CDB7DEB7A1970FB607
:101A1000F894DEBF0FBECDBF789484B5826084BDDC
:101A200084B5816084BD85B5826085BD85B58160E2
:101A300085BD80916E00816080936E001092810060
:101A4000809181008260809381008091810081601B
:101A500080938100809180008160809380008091DC
:101A6000B10084608093B1008091B0008160809368
:101A7000B00080917A00846080937A0080917A002F
:101A8000826080937A0080917A00816080937A00EE
:101A900080917A00806880937A001092C100E09172
:101AA0004702F091480282E08083E0914302F09186
:101AB00044021082E0914502F09146028FEC80834F
:101AC00010924F02E0914B02F0914C0286E080832D
:101AD000E0914902F0914A02808180618083E09127
:101AE0004902F0914A02808188608083E091490236
:101AF000F0914A02808180688083E0914902F091F0
:101B00004A0280818F7D8083E091E102F091E202C0
:101B100020E030E040E06AE08DED92E009958091B0
:101B2000580381110E94770C80E00E945F0C0E9494
:101B30008E0C1091190380911803180FE091DD02AB
:101B4000F091DE028189181770F1E091E102F091C5
:101B5000E20220E030E040E060E18DED92E00995A6
:101B600080E00E945F0CE091E102F091E20220E04F
:101B700030E040E06BE08DED92E0099562E082E0BC
:101B80000E945E0562E082E00E945E0562E084E001
:101B90000E945E0562E085E00E945E0562E085E0ED
:101BA0000E945E051DC08091580381110E94770C30
:101BB000812FBBCF205D28A3CE0180960E94E70C29
:101BC00042E050E06BE971E087E392E00E94AF0BE6
:101BD00064EF71E080E090E00E949A050E945B0A49
:101BE00082E00E94E80A19A221E0892B19F320E083
:101BF000E1CFE5EDF2E010821182128213822DE82E
:101C000031E03583248310925E0310925D031092BD
:101C1000600310925F031092690310926A0310929E
:101C20006B0310926C03DC0112962D913C9113977B
:101C3000378326832CE7FC013496ADEDB2E00190AA
:101C40000D922A95E1F7FC01E058FF4F2081318188
:101C500030935A03209359033296208120935B03DB
:101C60003196808180935C0380E090E0A0EAB0E44C
:101C70008093610390936203A0936303B093640322
:101C80008093650390936603A0936703B093680302
:101C900008951F93CF93DF93CDB7DEB7C458D10912
:101CA0000FB6F894DEBF0FBECDBF10923A0210926D
:101CB000390288EE93E0A0E0B0E080933B0290937D
:101CC0003C02A0933D02B0933E0229E631E03093FE
:101CD00038022093370225EC30E030934402209301
:101CE000430224EC30E0309346022093450220EC7E
:101CF00030E0309348022093470221EC30E03093EB
:101D00004A022093490222EC30E030934C022093A7
:101D10004B0226EC30E030934E0220934D0210929D
:101D200050021092510210925202109253021092DD
:101D3000700310926F038093710390937203A093CA
:101D40007303B09374038BE791E090936E038093D9
:101D50006D0310927C0710927B0785ED92E09093C3
:101D6000FA078093F9071092FB071092FC07109274
:101D700096078DE891E090937A0780937907109207
:101D80007E0710927D07109292071092950710928D
:101D9000890710928A0710928B0710928C078FEF99
:101DA0008093930780939807ECE9F7E01FEF819306
:101DB00097E0E23BF907D1F786E991E0909382073B
:101DC0008093810781EF94E0909384078093830749
:101DD0008DE294E0909386078093850784ED95E0EB
:101DE000909388078093870720E030E040E069E027
:101DF0008DE797E00E9496011092CA071092C907DA
:101E000082E393E09093B3078093B20789E793E06E
:101E10009093B7078093B60788E08093B807109235
:101E2000B9071092D6071092F60781E08093F70762
:101E30008093F80785E991E09093B5078093B40704
:101E40008DE797E00E94EC021092C5071092C70739
:101E50001093C6071093C807E091B407F091B50737
:101E60000280F381E02D8DE797E009958FE194E002
:101E70009093CC078093CB071092D90782E180938F
:101E8000A80781E18093A9071092A70780917B079B
:101E900090917C079C838B838DE891E09A83898362
:101EA0008CE7EDE7F7E0DE01159601900D928A953B
:101EB000E1F78091F9079091FA07CF57DF4F9983A7
:101EC0008883C158D0408091FB07CD57DF4F88836E
:101ED000C358D0408091FC07CC57DF4F8883C4584B
:101EE000D040CE0101960E94F90DCC57DF4F0FB6BE
:101EF000F894DEBF0FBECDBFDF91CF911F91089543
:101F0000EE0FFF1F0590F491E02D099481E090E021
:101F1000F8940C94920FDC0101C06D934150504035
:081F2000E0F70895F894FFCFEB
:101F28001815A015C019FF1815A115C819FF1815FF
:101F3800AE19FF1815AF19FF1815AE15D51680156F
:101F4800A8163F15D316001540158D161415201622
:101F58000015A115C815DA1612158116CF15D91650
:101F6800F115DB1640152E15A415A619FF0001144E
:101F78000A6464323200127A0000042896100800BD
:101F8800008000400000000000EC09AF0B83093915
:101F98000AB4099209A60900000000FC00F100C279
:101FA80004E300EA00E700E40000000000D307991A
:0E1FB80004C204C104EC02B403DF020D0A00EF
:107800000C94343C0C94513C0C94513C0C94513CE1
:107810000C94513C0C94513C0C94513C0C94513CB4
:107820000C94513C0C94513C0C94513C0C94513CA4
:107830000C94513C0C94513C0C94513C0C94513C94
:107840000C94513C0C94513C0C94513C0C94513C84
:107850000C94513C0C94513C0C94513C0C94513C74
:107860000C94513C0C94513C11241FBECFEFD8E036
:10787000DEBFCDBF11E0A0E0B1E0ECE9FFE702C060
:1078800005900D92A230B107D9F712E0A2E0B1E065
:1078900001C01D92AD30B107E1F70E942D3D0C945F
:1078A000CC3F0C94003C982F959595959595959582
:1078B000905D8F708A307CF0282F295A8091C0000B
:1078C00085FFFCCF9093C6008091C00085FFFCCF60
:1078D0002093C6000895282F205DF0CF982F809127
:1078E000C00085FFFCCF9093C6000895EF92FF92F1
:1078F0000F931F93EE24FF2487018091C00087FD22
:1079000017C00894E11CF11C011D111D81E4E8164B
:1079100082E4F8068FE0080780E0180770F3E09132
:107920000401F091050109958091C00087FFE9CF1E
:107930008091C6001F910F91FF90EF9008950E94D3
:10794000763C982F8091C00085FFFCCF9093C600B5
:1079500091362CF490330CF09053892F089597555D
:10796000892F08951F930E949F3C182F0E949F3CCF
:107970001295107F810F1F9108951F93182F882350
:1079800021F00E94763C1150E1F71F9108951F935A
:10799000182F0E94763C803249F0809103018F5F5E
:1079A000809303018530C1F01F9108958091C0003C
:1079B00085FFFCCF84E18093C6008091C00085FFE5
:1079C000FCCF1093C6008091C00085FFFCCF80E102
:1079D0008093C6001F910895E0910401F091050184
:1079E00009951F9108950E94763C803241F0809164
:1079F00003018F5F80930301853081F008958091AA
:107A0000C00085FFFCCF84E18093C6008091C00058
:107A100085FFFCCF80E18093C6000895E0910401CA
:107A2000F09105010995089540E951E08823A1F0FE
:107A30002D9A28EE33E0FA013197F1F721503040CA
:107A4000D1F72D9828EE33E0FA013197F1F7215064
:107A50003040D1F7815061F708953F924F925F9285
:107A60006F927F928F929F92AF92BF92CF92DF924E
:107A7000EF92FF920F931F93CF93DF93000080E16B
:107A80008093C4001092C50088E18093C10086E015
:107A90008093C2005098589A259A81E00E94143D24
:107AA00024E1F22E9EE1E92E85E9D82E0FE0C02ECA
:107AB00010E1B12EAA24A394B1E49B2EA6E58A2E50
:107AC000F2E57F2EE0E26E2E79E4572E63E5462E36
:107AD00050E5352E0E94763C8033B1F18133B9F107
:107AE000803409F46FC0813409F476C0823409F41B
:107AF00085C0853409F488C0803531F1823521F1A3
:107B0000813511F1853509F485C0863509F48DC0BC
:107B1000843609F496C0843709F403C1853709F423
:107B200072C1863709F466C0809103018F5F80932C
:107B30000301853079F6E0910401F0910501099582
:107B40000E94763C803351F60E94F33CC3CF0E94E2
:107B5000763C803249F78091C00085FFFCCFF092DF
:107B6000C6008091C00085FFFCCF9092C600809136
:107B7000C00085FFFCCF8092C6008091C00085FFC9
:107B8000FCCF7092C6008091C00085FFFCCF609250
:107B9000C6008091C00085FFFCCF5092C600809146
:107BA000C00085FFFCCF4092C6008091C00085FFD9
:107BB000FCCF3092C6008091C00085FFFCCFB09210
:107BC000C60088CF0E94763C863808F4BDCF0E945C
:107BD000763C0E94F33C7ECF0E94763C803809F4CC
:107BE0009CC0813809F40BC1823809F43CC1883942
:107BF00009F48FC080E00E94C73C6CCF84E10E94F2
:107C0000BD3C0E94F33C66CF85E00E94BD3C0E94D3
:107C1000F33C60CF0E94763C809306010E94763C44
:107C2000809307010E94F33C55CF0E94763C80333D
:107C300009F41DC183E00E94BD3C80E00E94C73C66
:107C400049CF0E94763C809309020E94763C809343
:107C5000080280910C028E7F80930C020E94763C79
:107C6000853409F415C18091080290910902892B8D
:107C700089F000E010E00E94763CF801E85FFE4FDA
:107C800080830F5F1F4F80910802909109020817AF
:107C9000190788F30E94763C803209F045CF809125
:107CA0000C0280FF01C16091060170910701660F0F
:107CB000771F7093070160930601A0910802B091AD
:107CC00009021097C9F0E8E0F1E09B01AD014E0F09
:107CD0005F1FF999FECF32BD21BD819180BDFA9A17
:107CE000F99A2F5F3F4FE417F50799F76A0F7B1F4B
:107CF00070930701609306018091C00085FFFCCF5F
:107D0000F092C6008091C00085FFFCCFB092C60003
:107D1000E1CE83E00E94C73CDDCE82E00E94C73CFA
:107D2000D9CE0E94763C809309020E94763C8093D3
:107D300008028091060190910701880F991F909386
:107D40000701809306010E94763C853409F4A6C0A1
:107D500080910C028E7F80930C020E94763C8032D0
:107D600009F0B8CE8091C00085FFFCCFF092C6002C
:107D7000609108027091090261157105B9F140E046
:107D800050E080910C02A82FA170B82FB27011C0E2
:107D9000BB2309F45CC0E0910601F0910701319624
:107DA000F0930701E09306014F5F5F4F46175707B7
:107DB000E8F4AA2369F3F999FECF209106013091E6
:107DC000070132BD21BDF89A90B58091C00085FFB2
:107DD000FCCF9093C6002F5F3F4F30930701209355
:107DE00006014F5F5F4F4617570718F38091C00099
:107DF00085FDE5CE8091C00085FFF8CFE0CE81E023
:107E00000E94C73C67CE0E94763C803209F08CCE3F
:107E10008091C00085FFFCCFF092C6008091C00029
:107E200085FFFCCFE092C6008091C00085FFFCCFAB
:107E3000D092C6008091C00085FFFCCFC092C600E2
:107E40008091C00085FFFCCFB092C60043CEE09188
:107E50000601F091070194918091C00085FFFCCF4D
:107E60009093C6009CCF80E10E94C73C33CE0E9415
:107E7000763C0E94763C182F0E94763C112309F430
:107E800083C0113009F484C08FE00E94C73C22CE29
:107E900080910C02816080930C02E5CE80910C02EF
:107EA000816080930C0259CF809107018823880F4D
:107EB000880B8A2180930B02809106019091070123
:107EC000880F991F90930701809306018091080203
:107ED00080FF09C080910802909109020196909359
:107EE000090280930802F894F999FECF1127E091D6
:107EF0000601F0910701C8E0D1E08091080290915D
:107F00000902103091F40091570001700130D9F34B
:107F100003E000935700E89500915700017001308D
:107F2000D9F301E100935700E89509901990009169
:107F3000570001700130D9F301E000935700E89534
:107F40001395103498F011270091570001700130FB
:107F5000D9F305E000935700E895009157000170B0
:107F60000130D9F301E100935700E895329602976A
:107F700009F0C7CF103011F00296E5CF112480919F
:107F8000C00085FFB9CEBCCE8EE10E94C73CA2CD19
:0C7F900085E90E94C73C9ECDF894FFCF0D
:027F9C00800063
:040000030000780081
:00000001FF