:100000000C9462000C948A000C948A000C948A0070
:100010000C948A000C948A000C948A000C948A0038
:100020000C948A000C948A000C948A000C948A0028
:100030000C948A000C948A000C948A000C948A0018
:100040000C949C090C948A000C94DD100C94B7104D
:100050000C948A000C948A000C948A000C948A00F8
:100060000C94E6090C948A0000000000240027008C
:100070002A0000000000250028002B0000000000DE
:1000800023002600290004040404040404040202DA
:100090000202020203030303030301020408102007
:1000A0004080010204081020010204081020000012
:1000B0000008000201000003040700000000000027
:1000C0000000DF1111241FBECFEFD8E0DEBFCDBF8F
:1000D00012E0A0E0B1E0EEE9F4E302C005900D9279
:1000E000A430B107D9F726E0A4E0B2E001C01D9228
:1000F000AB3EB207E1F710E0C2E6D0E004C02197C2
:10010000FE010E945117C136D107C9F70E94F112B2
:100110000C944D1A0C940000662329F06A3019F0F3
:10012000862F90E008958FEF9FEF08950F93DC01E5
:10013000DF963C91DF97431BD596ED91FC91D697C6
:1001400009950F910895CF93DF93FC01A081B181B0
:1001500093AD892F880F880F880F86AF50968C91AA
:100160005097803208F08FE1880F880F880F85AF95
:1001700024AD822F880F880F880F87AF51963C914E
:100180005197422F50E0490F511D632F70E06417C3
:10019000750714F4932F921BEF01C05CDF4F888327
:1001A000219628E0929F800D11248883219680EF6C
:1001B000888354968D919C915597813F910508F4C1
:1001C0008883ED5BFF4F56968C918083DF91CF91B2
:1001D0000895EF92FF920F931F93CF93DF93EC015B
:1001E000742F7770E1E0F0E0072E01C0EE0F0A9463
:1001F000EAF73E2F7C018AE7E80EF11CD7018C91CB
:10020000823028F41E2F813019F430E001C010E054
:1002100050E0487F89AD9AADA881B9815096FC9194
:10022000F49FD001F59FB00D1124A60FB11DA80FAA
:10023000B91F01110BC08C91812B83278D93215005
:10024000D1F71CC0110F330F2223C1F09C91912BC9
:1002500093279C937F5F777021507111F3CF8DAD01
:10026000A80FB11DF7018081823020F4813021F088
:1002700031E002C031E0E8CF11E0E6CFDF91CF916D
:100280001F910F91FF90EF90089580E00895FC0179
:10029000E60FF11D849190E0982F88273196E49124
:1002A0008E0F911D089580E00895CF92DF92EF9216
:1002B000FF920F931F93CF93DF936C01EB017B01B0
:1002C000E40EF51E00E010E0CE15DF0561F0699147
:1002D000D601ED91FC910190F081E02DC6010995C8
:1002E000080F191FF1CFC801DF91CF911F910F9116
:1002F000FF90EF90DF90CF900895089580E090E018
:100300000895CF93DF93EC01862F683109F45FC025
:1003100060F4B901843181F0873109F0CEC050E03A
:100320008FE793E00E94680750C0693109F472C0FA
:10033000603209F44AC0C1C08C859D85AE85BF85F9
:10034000892B8A2B8B2B71F4E881F981A585B0E08C
:1003500020EA36E841E050E00E94AC146C877D87CB
:100360008E879F8710924B0210924A0210924D0284
:1003700010924C021092530281E080935502109229
:10038000540261E082E10E940C0961E083E10E9475
:100390000C098091B9008E7F8093B9008091B900DB
:1003A0008D7F8093B90088E48093B80085E48093C2
:1003B000BC008AE397E090934F0280934E028BE358
:1003C00097E0909351028093500281E077C02C8592
:1003D0003D854E855F8560E074E284EF90E00E9489
:1003E000BF14DA01C9014097A109B109B695A795D3
:1003F000979587958093B8008E8990E0959587951D
:1004000091E0909349028093280210924D0210923D
:100410004C02DBCF20914C02213208F047C0809182
:1004200053028111FCCF8091280292E090935302F5
:1004300091E0909355029FEF9093520210927702B1
:1004400020937602E9E2F2E0A6E5B2E090E0291717
:1004500021F031913D939F5FFACF109278029091F5
:100460007802880F892B8093780280915402813022
:1004700061F410925402809178028093BB008091C5
:10048000BC0083FDF8CF85EC01C085EE8093BC00F5
:10049000809153028230E1F3809152028F3F31F01C
:1004A00080915202803211F08091520210924D02DE
:1004B00010924C021092490288CF80E0DF91CF91D8
:1004C000089585E00E94E30821E0892B09F020E0EF
:1004D000822F089584E00E94E30821E0892B09F02F
:1004E00020E0822F089583E00E94E30821E0892B19
:1004F00009F020E0822F089582E00E94E30821E0C5
:10050000892B09F020E0822F08958F929F92AF925D
:10051000BF92CF92DF92EF92FF92CF93DF93EC01E5
:100520006C3288F46A3208F089C06832B9F06932F6
:1005300009F06DC0C42ED12CE12CF12C0E9477095A
:100540004B015C013DC06D3209F440C008F45FC04E
:1005500084EB860F823008F448C059C07C012FE13B
:10056000E20EF11CD0E0F70181917F018F3F39F05D
:10057000D03110F461E001C062E00E943B09DF5F0E
:10058000D63189F75BC00E947709DC01CB0188195D
:100590009909AA09BB09883E9340A105B10580F0DD
:1005A000F1E0CF1AD108E108F10828EE820E23E02D
:1005B000921EA11CB11CC114D104E104F10419F76D
:1005C000C114D104E104F104F1F638C0433018F04D
:1005D00082E090E002C085E090E0880F991F880FCC
:1005E000991F05970197F1F729C0862F8F73C80FC0
:1005F000D11D411107C061E08F8D0E943B0960E071
:100600008F8D12C062E08F8D0E943B0917C060344D
:10061000B8F0962F9F73FE01E90FF11D878D8F3F74
:1006200069F0903120F4642F0E940C0907C00E94E9
:10063000E30821E0892B09F420E02A8F81E001C042
:1006400080E0DF91CF91FF90EF90DF90CF90BF904F
:10065000AF909F908F900895DC011696ED91FC91DC
:10066000179720E030E040E069E10994DC0116963C
:10067000ED91FC91179720E030E040E068E10994AB
:100680009A01DC011696ED91FC911797462F67E1D0
:100690000994EF92FF920F931F93CF93DF931F92D2
:1006A000CDB7DEB77C018B01D8016C916731E1F0E9
:1006B00078F46531A0F1F80141814983D70116969C
:1006C000ED91FC91179720E030E0C701099524C017
:1006D0006A31A8F06E3F19F5F8014181498369E25A
:1006E000C7010E94140B18C0F80181818983AE01F3
:1006F0004F5F5F4F61E0C7010E9440030DC00F5F75
:100700001F4FD7011696ED91FC91179720E030E02E
:1007100040E0C7010995C8CF0E5F1F4FC5CF0F90AE
:10072000DF91CF911F910F91FF90EF900895462F89
:10073000DC011696ED91FC91179720E030E066E120
:100740000994462FDC011696ED91FC91179720E055
:1007500030E065E10994DC011896ED91FC91199760
:1007600020E030E040E069E10994DC011896ED9169
:10077000FC91199720E030E040E068E10994CF93C4
:10078000DF931F92CDB7DEB76983BE016F5F7F4FE6
:100790000E94AE100F90DF91CF9108950F93FC014E
:1007A000EA5BFF4F308131965081451728F43017AE
:1007B00030F0041720F010C03017D8F30DC0FC0142
:1007C000EC5BFF4F308131968081681738F4321727
:1007D00040F081E0261730F080E004C03217C8F303
:1007E000FBCF81E00F9108952F923F924F925F923D
:1007F0006F927F928F929F92AF92BF92CF92DF9231
:10080000EF92FF920F931F93CF93DF93EC014C0174
:1008100084E4880E911CF4011082329720805E01DE
:10082000F5E4AF0EB11CF5012082359730806E01E2
:10083000F6E4CF0ED11CF6013082359740807E0160
:10084000F7E4EF0EF11CF7014082349610813297E5
:1008500060803196708032975080012F262D472D71
:10086000652DCE010E94CE03CC58DF4F811102C00E
:10087000188212C081E08883552011F0F401508263
:10088000621410F4F5016082371410F4F6017082DE
:10089000141510F4F7011083DF91CF911F910F9180
:1008A000FF90EF90DF90CF90BF90AF909F908F9090
:1008B0007F906F905F904F903F902F9008950F938F
:1008C000DC01802FFD01EC58FF4F9081992309F442
:1008D00063C0222309F460C0223048F0023019F4CA
:1008E0006F5F621B04C0033011F44F5F421B082F7F
:1008F0000170FD0180FD25C0EA5BFF4F8081481734
:1009000008F44AC031968081481708F045C03297F4
:10091000908131978081260F261730F4691718F4DB
:100920002FEF290F03C0682F6917B0F58217A0F5C4
:10093000681708F4682F291708F4922F292F261B0F
:1009400022C0EC5BFF4F8081681730F131968081C7
:10095000681710F53296908131978081240F241703
:1009600030F4491718F42FEF290F03C0482F491707
:1009700098F4821788F4481708F4482F291708F4C8
:10098000922F292F241BD796ED91FC91D8970480A4
:10099000F581E02DCD0109950F910895213039F0B1
:1009A00020F0223031F4861B0895860F0895841BB1
:1009B0000895840F0895213039F020F0223031F469
:1009C000841B0895840F0895860F0895861B08954B
:1009D0002F923F924F925F926F927F928F929F924F
:1009E000AF92BF92CF92DF92EF92FF920F931F933D
:1009F000CF93DF93EC016C0124E0C20ED11CFC010B
:100A0000E058FF4F0190F081E02DC60109957C016F
:100A10008EEFE8168FEFF80608F075C1FE01ED576E
:100A2000FF4F10814E0192E8890E911CF401008164
:100A3000B29780818130C9F070F0823001F183304B
:100A400039F5FE01EE5AFF4F0190F081E02DC6010D
:100A50000995080F1DC0FE01EE5AFF4F0190F0816D
:100A6000E02DC6010995180F13C0FE01EE5AFF4F85
:100A70000190F081E02DC6010995081B09C0FE0117
:100A8000EE5AFF4F0190F081E02DC6010995181B29
:100A9000FE01EA5AFF4F0083319610833797808119
:100AA00091814796FFEFEF16F10409F040F521E63A
:100AB000E216F10420F0FE01EC58FF4F07C0E1E41C
:100AC000EE16F10438F0FE01EE58FF4F208131811F
:100AD000820F931F9C012F5F3F4FF90144914423E4
:100AE00009F40FC1FC01449150E0E416F50611F43D
:100AF000029634C0F9012491820F911DEBCFFE01C3
:100B0000EA58FF4FA080B180A80EB91E850160E0B1
:100B1000C5010E944701080F191F62E0C5010E942C
:100B20004701F4E0AF0EB11C8E159F0580F3F8016C
:100B3000849190E0982F88273196E4918E2B00972E
:100B400009F4DFC0E816F90619F4C801039606C0D7
:100B5000F8013296E4910E0F111DE9CF009709F4C8
:100B6000D0C07E01F4E5EF0EF11CF7019183808384
:100B7000108671966081C7010E94D10BF7018683B0
:100B800072966081C7010E94D10B782EF70187838E
:100B90005E01FEE7AF0EB11CF5019081F70192876F
:100BA00081E0911180E0F7018387FE01E959FF4F51
:100BB0001081612FC7010E94D10B9FEF910F01E0BF
:100BC00010E0980101C0220F9A95EAF7382E321AE8
:100BD000FE01E859FF4F6080662DC7010E94D10BCE
:100BE0006A94280101C0440C6A94EAF7282E270C65
:100BF000FE01E759FF4F6080662DC7010E94D10BAF
:100C00006A9401C0000F6A94EAF7682E601AF7012F
:100C1000068110160CF070C054844218252D442D06
:100C2000632D82810E94CE04182FF7018283252D27
:100C3000442D632D83810E94DB04F7018383F1E05F
:100C40005F16B1F05F1678F022E05216B9F093E02B
:100C500059121FC0212F270D982F901B01E0080F5C
:100C600081E0890F18C0202F210F082F070D13C016
:100C7000571821E0210F080F150D0DC091E0392FF5
:100C8000301B21E0210F971901E0080F890F130F86
:100C900002C0082F212F482F612FC6010E94CE03CA
:100CA000882351F1F701148215828E010D591F4FCF
:100CB000CC59DF4FF8016081C7010E94D10B482E4B
:100CC0006881C7010E94D10B582E40E0642DC601F7
:100CD0000E94FE0B41E0652DC6010E94FE0B61E003
:100CE000C7010E94D10B8111F0CFF70185818715D3
:100CF0000CF38285F5018083F4018081680E6082A7
:100D000002C0612CF9CF81E090E0DF91CF911F917B
:100D10000F91FF90EF90DF90CF90BF90AF909F909A
:100D20008F907F906F905F904F903F902F9008959D
:100D3000FC01538D448D252F30E0842F90E0821BE1
:100D4000930B541710F0CF96089501970895FC0166
:100D5000918D828D981761F0828DDF01A80FB11DF2
:100D60005D968C91928D9F5F9F73928F90E0089516
:100D70008FEF9FEF0895FC01918D828D981731F0D0
:100D8000828DE80FF11D858D90E008958FEF9FEF24
:100D90000895FC01918D228D892F90E0805C9F4FFA
:100DA000821B91098F739927089580E090E0892B29
:100DB00029F00E94A41081110C9400000895833042
:100DC00081F028F4813099F08230A1F008958730C5
:100DD000A9F08830B9F08430D1F4809180008F7D03
:100DE00003C0809180008F7780938000089584B540
:100DF0008F7702C084B58F7D84BD08958091B00047
:100E00008F7703C08091B0008F7D8093B0000895EC
:100E100085ED8093BC008091BC0084FDFCCF1092D6
:100E2000530208954091BA02262F30E0240F311D5D
:100E300021323105DCF4209153022430C9F4FC0145
:100E400080E090E0861758F43091BA022191DC01DD
:100E5000A656BD4FA30FB11D2C930196F3CF8091E1
:100E6000BA02680F6093BA0280E0089581E00895A5
:100E700082E00895089508950895E0914B028091CD
:100E80004A02E81730F4F0E0E658FD4F808190E028
:100E900008958FEF9FEF089590914B0280914A0241
:100EA000981750F4E92FF0E0E658FD4F208130E02C
:100EB0009F5F90934B0202C02FEF3FEFC90108954F
:100EC00080914A0290E020914B02821B9109089583
:100ED000CF92DF92EF92FF920F931F93CF93DF9306
:100EE0007C01CB018A0120914902222389F0EB0188
:100EF0006B01C40ED51ECC15DD0569F06991D701D3
:100F0000ED91FC910190F081E02DC7010995F3CF9F
:100F1000642F0E941207C801DF91CF911F910F919A
:100F2000FF90EF90DF90CF900895CF93DF931F92C3
:100F3000CDB7DEB76983209149022223D1F02091F9
:100F40004C02203240F021E030E0FC013383228368
:100F500080E090E015C080914D02E82FF0E0E75D61
:100F6000FD4F998190838F5F80934D0280934C0257
:100F700005C061E0CE0101960E94120781E090E079
:100F80000F90DF91CF91089580E008950E94571748
:100F9000EF92FF921F93CF93DF93EC01162F7A010C
:100FA0000E94B50360E4CE010E94BF03E885F98585
:100FB0009701412F67E1CE010995CE01DF91CF91D5
:100FC0001F91FF90EF900C94AB03EF92FF921F9351
:100FD000CF93DF93EC01142F7901663121F128F4CE
:100FE0006431E9F1653149F056C0683109F44FC008
:100FF000F0F0693109F444C04EC080917902882331
:1010000019F0CE010E94AB03CE010E94B50360E04F
:10101000CE010E94BF03612FCE010E94BF0381E079
:101020008093790239C0642F0E94BF0332C080913F
:101030007902882319F0CE010E94AB03A701193170
:1010400048F068E1CE010E94C807185188E1E80E17
:10105000F11CF4CF612FCE010E94C80718C08E8901
:101060008F3F11F488E78E8BE885F9859701412F32
:1010700064E1CE01DF91CF911F91FF90EF90099431
:1010800080917902882319F0CE010E94AB0310925F
:10109000790281E001C080E0DF91CF911F91FF9044
:1010A000EF900895FC01848DDF01A80FB11DA35AB4
:1010B000BF4F2C91848D90E001968F739927848F78
:1010C000A689B7892C93A089B1898C91837080649B
:1010D0008C93938D848D981306C00288F389E02D3C
:1010E00080818F7D80830895EF92FF920F931F93ED
:1010F000CF93DF93EC0181E0888F9B8D8C8D9813CB
:1011000005C0E889F989808185FD26C0F62E0B8D02
:1011100010E00F5F1F4F0F731127E02E8C8DE81228
:101120000CC00FB607FCFACFE889F989808185FFEA
:10113000F5CFCE010E945208F1CF8B8DFE01E80F52
:10114000F11DE35AFF4FF0829FB7F8940B8FEA89A5
:10115000FB89808180620AC09FB7F894EE89FF897D
:101160006083E889F98980818370806480839FBF70
:1011700081E090E0DF91CF911F910F91FF90EF9070
:101180000895CF93DF93EC01888D8823C9F0EA8915
:10119000FB89808185FD05C0A889B9898C9186FD70
:1011A0000FC00FB607FCF5CF808185FFF2CFA8896D
:1011B000B9898C9185FFEDCFCE010E945208E7CF0F
:1011C000DF91CF910895CF93DF93282F30E0F9017D
:1011D000E255FF4F8491F901E656FF4FD491F90192
:1011E000EA57FF4FC491CC2391F081110E94DF0692
:1011F000EC2FF0E0EE0FFF1FE458FF4FA591B491E4
:10120000EC91ED2381E090E021F480E002C080E0E9
:1012100090E0DF91CF9108951F93CF93DF93282F14
:1012200030E0F901E255FF4F8491F901E656FF4F96
:10123000D491F901EA57FF4FC491CC23C1F0162F86
:1012400081110E94DF06EC2FF0E0EE0FFF1FEE5839
:10125000FF4FA591B4919FB7F894111104C08C91E0
:10126000D095D82302C0EC91DE2BDC939FBFDF9199
:10127000CF911F910895CF93DF9390E0FC01E65644
:10128000FF4F2491FC01EA57FF4F8491882361F1BD
:1012900090E0880F991FFC01E859FF4FC591D49148
:1012A000FC01EE58FF4FA591B491611109C09FB7A1
:1012B000F8948881209582238883EC912E230BC09B
:1012C000623061F49FB7F8948881322F3095832380
:1012D0008883EC912E2B2C939FBF06C08FB7F89478
:1012E000E8812E2B28838FBFDF91CF9108953FB7E0
:1012F000F8948091DE029091DF02A091E002B0911B
:10130000E10226B5A89B05C02F3F19F00196A11D4B
:10131000B11D3FBFBA2FA92F982F8827820F911D8B
:10132000A11DB11DBC01CD0142E0660F771F881FD2
:10133000991F4A95D1F708951F920F920FB60F92F9
:1013400011242F933F938F939F93AF93BF938091DB
:10135000B5069091B606A091B706B091B806309147
:10136000DD0223E0230F2D3720F40196A11DB11DCE
:1013700005C026E8230F0296A11DB11D2093DD02B2
:101380008093B5069093B606A093B706B093B806BF
:101390008091DE029091DF02A091E002B091E10223
:1013A0000196A11DB11D8093DE029093DF02A093F0
:1013B000E002B093E102BF91AF919F918F913F9175
:1013C0002F910F900FBE0F901F9018951F920F92A4
:1013D0000FB60F9211242F933F934F935F936F9308
:1013E0007F938F939F93AF93BF93EF93FF938091DE
:1013F000B900887F803609F49CC068F5883209F40A
:101400005BC090F4803109F454C038F4882309F4A7
:10141000F6C0883009F44DC0F6C0883109F44CC0DC
:10142000803209F45DC0EFC0803409F468C048F42C
:10143000803309F455C0883309F0E5C08093520227
:10144000D8C0803509F44FC0883509F45DC08834B0
:1014500009F0D9C0D6C0883909F4C7C0A8F48837C4
:1014600009F467C038F4883609F463C0803709F49A
:1014700060C0C9C0883809F4B8C0803909F45FC0B9
:10148000803809F0C0C05BC0803B09F486C038F4E6
:10149000803A09F466C0883A09F47FC0B4C0803C41
:1014A00009F4A7C0883C09F4A4C0883B09F48AC0A9
:1014B000AAC08091780210C0909177028091760244
:1014C000981770F5E091770281E08E0F8093770294
:1014D000F0E0EA5AFD4F80818093BB0085EC86C026
:1014E000809352028EC0E091770281E08E0F80934C
:1014F00077028091BB00F0E0EA5AFD4F8083909123
:101500007702809176026EC0E091770281E08E0FC3
:10151000809377028091BB00F0E0EA5AFD4F808310
:101520008091550281116DC081E08093540284EA5C
:1015300061C083E0809353021092DC02CFCF809190
:10154000DC02803208F051C0E091DC0281E08E0FB5
:101550008093DC028091BB00F0E0E454FD4F808377
:10156000BDCF85EC8093BC00109253028091DC02C9
:10157000803230F4E091DC02F0E0E454FD4F108260
:101580006091DC0270E0E0915002F09151028CEB2E
:1015900092E009951092DC0236C084E080935302F9
:1015A0001092BB021092BA02E0914E02F0914F02EB
:1015B00009958091BA02811105C081E08093BA0239
:1015C00010929A02E091BB0281E08E0F8093BB02E1
:1015D000F0E0E656FD4F80818093BB009091BB0206
:1015E0008091BA02981708F479CF85E88093BC00FF
:1015F0000AC085EC8093BC001092530204C0109284
:1016000052020E940807FF91EF91BF91AF919F9105
:101610008F917F916F915F914F913F912F910F909B
:101620000FBE0F901F901895DC011A96ED91FC915A
:101630001B9720E030E00994EF92FF920F931F93E5
:10164000CF93DF93EC01142F7901693031F481E5F8
:1016500091E0998388831C8A9AC06D3009F46AC02E
:1016600030F46A3031F16B3009F459C092C06E30F9
:1016700009F473C06F3009F08CC00E943603F70183
:1016800083810C89F8E08F9F000D1124602F6295F3
:101690006F706061CE010E94A103602F6F70CE0158
:1016A0000E94A103F7016481606BCE010E94A10337
:1016B0005FC0EA85FB8520E030E040E068E2099504
:1016C000EE81FF8120E030E040E064E1CE01099549
:1016D00041E06BE4CE010E94140BE881F981448162
:1016E00069E2CE010E94140B40E06BE4CE010E943F
:1016F000140BE881F981448169E2CE010E94140B48
:1017000041E06BE4CE010E94140BE881F981458130
:1017100069E2CE010E94140B6CE171E007C0411137
:1017200003C067E171E002C062E171E0CE010E9496
:1017300049032DC0411108C06BE071E00E944903CC
:10174000E881F981828907C064E071E00E94490361
:10175000E881F98183898C8B1AC00E94360361E885
:10176000CE010E94A103612FCE010E9497030CC0FD
:10177000F701408151816281660F660F660FCE01CD
:101780000E9440031150A1F7CE010E942C0381E07A
:1017900001C080E0DF91CF911F910F91FF90EF90FA
:1017A0000895DC0118964C911897ED91FC911197D2
:1017B000249130E0042E02C0359527950A94E2F773
:1017C000842F860F883010F4E22F0DC031961196C9
:1017D000FC93EE93E49198E0941B01C0EE0F9A9570
:1017E000EAF7E22B885018968C9381E090E001C0D4
:1017F000880F6A95EAF781508E2308955F926F9261
:101800007F928F929F92AF92BF92CF92DF92EF9290
:10181000FF920F931F93CF93DF935C01162F642EDB
:10182000EC01C05BDF4FDC80ED804C018AE7880E65
:10183000911CFE80FD18CF2C1F1508F4C12E5B8073
:101840000C85202F4E2D6D2D8A810E94CE04782E7E
:10185000202F4E2D6D2D852D0E94DB04482F6620F4
:1018600011F08A8504C08985811108C08B85F40137
:1018700080832C2D672DC5010E945F041F1520F069
:101880001F19E394D12CD5CF1D0D1C83ED82DF9160
:10189000CF911F910F91FF90EF90DF90CF90BF906D
:1018A000AF909F908F907F906F905F900895FB0115
:1018B00022813381FC013383228321EA31E03183A9
:1018C00020832CE7FB013496DC01149601900D92E5
:1018D0002A95E1F7FB01E058FF4F20813181FC019F
:1018E000E058FF4F31832083FB01EE57FF4F2081EB
:1018F000FC01EE57FF4F2083FB01ED57FF4F208186
:10190000FC01ED57FF4F208308956115710551F0DB
:10191000FB0101900020E9F73197AF01461B570BFF
:101920000C945B0E80E090E008950F931F93CF938B
:10193000DF93EC010E94850C8C016FEA71E0CE010F
:101940000E94850C800F911FDF91CF911F910F9105
:101950000895CF93DF938093CF03CAECD3E0E8815F
:10196000F9810190F081E02D83E993E00995E88108
:10197000F9810280F381E02D83E993E0DF91CF913B
:101980000994E0919303F091940380894091CE03F0
:10199000849FA001112483E0440F551F8A95E1F72D
:1019A00060E070E08091CC039091CD030C945C17C3
:1019B000E0919703F091980320E030E040E060E18F
:1019C00083E993E00994CF92DF92EF92FF920F9315
:1019D0001F93CF93DF9300D000D01F92CDB7DEB717
:1019E000C090CE030091CF03E0919303F091940354
:1019F000D188102FE12CF12CE0919303F091940306
:101A000080894091CC035091CD031C821D838B8330
:101A100028E0829FC00111248E9D90018F9D300D82
:101A20009E9D300D1124CA01820F931F9A838983D2
:101A3000E0919703F09198039E012F5F3F4F41E0A3
:101A40006FE083E993E009951F5F812F801B8C1560
:101A500028F48FEFE81AF80A1D1570F20F900F9016
:101A60000F900F900F90DF91CF911F910F91FF90EA
:101A7000EF90DF90CF900895CF92DF92EF92FF9298
:101A80000F931F93CF93DF93EC01CC80DA807B011F
:101A900084E0E80EF11C0AE00C0D22E02D0D4C2D27
:101AA0006D2DC7010E94CE0381110AC0E881F98122
:101AB0000280F381E02DCE01099581110EC012C084
:101AC00010E04C2D410F00E022E06D2DC7010E9477
:101AD0005F041F5F1A30A9F7E9CF0C811D81053023
:101AE000110584F4E881F9810190F081E02DCE01A7
:101AF0000995882309F46FC00C811D8102311105FD
:101B0000B4F169C020E030E040EA50E460918B031A
:101B100070918C0380918D0390918E030E94981692
:101B200020E030E048EC52E40E9498166B017C0102
:101B300020E030E0A9010E94931687FD09C020E053
:101B400030E040E05FE3C701B6010E94F11408C035
:101B500020E030E040E05FE3C701B6010E94F014EE
:101B60000E94CF15061B170B1D830C8334C020E089
:101B700030E040EA50E460918B0370918C038091D7
:101B80008D0390918E030E94981620E030E048EC7F
:101B900052E40E9498166B017C0120E030E0A9011C
:101BA0000E94931687FD09C020E030E040E05FE32B
:101BB000C701B6010E94F11408C020E030E040E007
:101BC0005FE3C701B6010E94F0140E94CF15600FB9
:101BD000711F7D836C83DF91CF911F910F91FF90D7
:101BE000EF90DF90CF900895209116043091170464
:101BF0008091240490912504821B930B97FF03C0CE
:101C00009195819591090B9734F0809114049091EE
:101C1000150404979CF080912A0490912B04821B58
:101C2000930B97FF03C09195819591090B9764F0F1
:101C30008091140490911504C99734F062EB71E01F
:101C400082EE92E00C94950C0895BF92CF92DF92B1
:101C5000EF92FF920F931F93CF93DF937C01B62EE9
:101C6000C22F102FD1E0D40FC02EC41AD22ED60E00
:101C700001E02D2F4C2D6D2D0E945F04CB192D2FCF
:101C80004C2D6C2FC7010E945F042D2F412F6D2D0D
:101C9000C7010E945F042D2F412F6C2FC7010E94A6
:101CA0005F04DF91CF911F910F91FF90EF90DF9034
:101CB000CF90BF900895CF92DF92EF92FF920F9353
:101CC0001F93CF93DF936C017A018B01C0E0D0E0CA
:101CD000CE15DF0581F0D8016D918D01D601ED9112
:101CE000FC910190F081E02DC6010995892B11F03E
:101CF0002196EECF7E01C701DF91CF911F910F9109
:101D0000FF90EF90DF90CF9008953F924F925F92B7
:101D10006F927F928F929F92AF92BF92CF92DF92FB
:101D2000EF92FF920F931F93CF93DF93CDB7DEB760
:101D3000A1970FB6F894DEBF0FBECDBF509016042A
:101D40001091140404965C0103E0050D23E0210FBB
:101D50004EEF450D6EEF610F0E94CE0381112CC036
:101D600080908B0390908C03A0908D03B0908E0395
:101D7000209118043091190440911A0450911B04C9
:101D8000C501B4010E94981620E030E048EC52E40E
:101D90000E9498166B017C0120E030E0A9010E94AE
:101DA000931687FD74C020E030E040E05FE3C70198
:101DB000B6010E94F11473C0A0E18A2E912CB4EFF9
:101DC0006B2E77247A94E12CF12C04E0C02ED12CD8
:101DD000412C82E0382E052D212F442D632DC50185
:101DE0000E94250E439496012C5F3F4FEC0CFD1C86
:101DF00048E0C40ED11CC701880F991F860D971D9E
:101E0000181619065CF43A9458E0851A9108FC01FA
:101E1000EE19FF097F01F8E06F0E711C8216930620
:101E2000D4F650E1852E912C64EF662E77247A94B7
:101E3000E12CF12C74E0C72ED12CE2E03E2E412C97
:101E4000052D212F432D642DC5010E94250E43949D
:101E500096012C5F3F4FEC0CFD1C48E0C40ED11CDA
:101E6000C701880F991F860D971D181619065CF477
:101E70003A9458E0851A9108FC01EE19FF097F0198
:101E8000F8E06F0E711C82169306D4F669CF20E03D
:101E900030E040E05FE3C701B6010E94F0140E9409
:101EA000CF156B0120911C0430911D0440911E043C
:101EB00050911F04C501B4010E94981620E030E043
:101EC00048EC52E40E9498164B015C0120E030E09F
:101ED000A9010E94931620E030E040E05FE387FD17
:101EE00005C0C501B4010E94F11404C0C501B401CC
:101EF0000E94F0140E94CF15809114049091150453
:101F00008C0D9D1D909315048093140480911604EC
:101F100090911704680F791F70931704609316044B
:101F20000D2C000CEE08FF08F7FE25C06DE282EED6
:101F300092E00E94740822273327A9012C193D0939
:101F40004E095F0919A2CE0181967C019AE0892E83
:101F5000912CA12CB12CCA01B901A50194010E94B8
:101F6000BF14605DF70162937F01211531054105C2
:101F7000510589F71AC0A701960119A2CE018196D1
:101F80007C018AE0882E912CA12CB12CCA01B901C8
:101F9000A50194010E94BF14605DF70162937F0167
:101FA000211531054105510589F7B70182EE92E00F
:101FB0000E94850C6FEA71E082EE92E00E94850C2F
:101FC0008090180490901904A0901A04B0901B04FB
:101FD00040908B0350908C0360908D0370908E0323
:101FE00020911C0430911D0440911E0450911F0447
:101FF000C301B2010E94981620E030E048EC52E4A0
:102000000E9498160E94CF15E0901604F0901704D5
:10201000E60EF71EA3019201C501B4010E949816B5
:1020200020E030E048EC52E40E9498160E94CF1560
:102030002091140430911504620F731F64507109CC
:1020400065337105D8F4F4E0EF1AF10849E1E416BC
:10205000F10418F180911C0490911D04A0911E04BC
:10206000B0911F04B05880931C0490931D04A0935A
:102070001E04B0931F040E94F40D0FC0B7FAB09471
:10208000B7F8B0948092180490921904A0921A04A0
:10209000B0921B040E94F40DD6CFA1960FB6F8940F
:1020A000DEBF0FBECDBFDF91CF911F910F91FF908B
:1020B000EF90DF90CF90BF90AF909F908F907F90E8
:1020C0006F905F904F903F900895CF93DF93CDB77F
:1020D000DEB7C458D1090FB6F894DEBF0FBECDBF2E
:1020E0000E94C10C6FE873E0CE0101960E94570C6C
:1020F000CE0101960E94850E6FE873E0CE01019635
:102100000E94570CBE016F5F7F4F80E294E00E94F7
:102110003C0D6FE873E0CE0101960E94570CBE01A2
:102120006F5F7F4F86E294E00E943C0D0E94E30CBB
:102130000E94D80CCC57DF4F0FB6F894DEBF0FBE0D
:10214000CDBFDF91CF91089582EE92E00E94C90643
:1021500021E0892B09F420E0822F08959B01DC0106
:102160001896ED91FC91199741E067E109941F924F
:102170000F920FB60F9211242F933F934F935F93BB
:102180006F937F938F939F93AF93BF93EF93FF933F
:1021900082EE92E00E945208FF91EF91BF91AF91C1
:1021A0009F918F917F916F915F914F913F912F916F
:1021B0000F900FBE0F901F9018951F920F920FB6A1
:1021C0000F9211242F938F939F93EF93FF93E0919E
:1021D000F202F091F3028081E091F802F091F902AD
:1021E00082FD12C090818091FB028F5F8F732091DE
:1021F000FC02821751F0E091FB02F0E0EE51FD4F3E
:10220000958F8093FB0201C08081FF91EF919F9198
:102210008F912F910F900FBE0F901F901895CF9216
:10222000DF92EF92FF9210928B0310928C03109228
:102230008D0310928E0321EA31E0309390032093B6
:102240008F03109218041092190410921A0410921D
:102250001B0410921C0410921D0410921E04109274
:102260001F042EE130E0309315042093140420E184
:1022700030E0309317042093160410922304109238
:102280002204109225041092240425E731E03093B3
:1022900021042093200410922B0410922A042DE68E
:1022A00031E030932704209326042CE330E0309370
:1022B00029042093280410922C0410922D041092CB
:1022C0002E0410922F04FC0122813381309392035B
:1022D000209391032CE73496A3E9B3E001900D928B
:1022E0002A95E1F7FC01E058FF4F208131813093BE
:1022F000100420930F04329620812093110431960C
:102300008081809312040E947D1464E170E00E9439
:102310002917BC016F5F7F4F072E000C880B990BAC
:102320000E94071620E030E040E251E40E945D1573
:102330006B017C010E947D146BE570E00E942917FF
:1023400089972CF420E030E040E85FEB04C020E007
:1023500030E040E85FE3C701B6010E9498166B01C8
:102360007C010E947D14C0921804D0921904E0925E
:102370001A04F0921B0463E370E00E942917BC0169
:102380006E5C7F4F072E000C880B990B0E9407167E
:10239000A70196010E94981620E030E048EC52E434
:1023A0000E945D1560931C0470931D0480931E04AD
:1023B00090931F04FF90EF90DF90CF9008951F93AC
:1023C000CF93DF93CDB7DEB7C458D1090FB6F894D9
:1023D000DEBF0FBECDBF1092E5021092E40288EE80
:1023E00093E0A0E0B0E08093E6029093E702A09330
:1023F000E802B093E9022DE731E03093E302209345
:10240000E20225EC30E03093EF022093EE0224EC60
:1024100030E03093F1022093F00220EC30E0309372
:10242000F3022093F20221EC30E03093F502209386
:10243000F40222EC30E03093F7022093F60226EC0F
:1024400030E03093F9022093F8021092FB021092D0
:10245000FC021092FD021092FE0210928203109272
:1024600081038093830390938403A0938503B093A7
:1024700086038FE891E09093800380937F0310920E
:102480003406109233068CE890E09093B206809365
:10249000B1061092B3061092B40610924E0681EA6D
:1024A00091E0909332068093310610923606109296
:1024B000350610924A0610924D061092410610926F
:1024C000420610924306109244068FEF80934B060B
:1024D00080935006E4E5F6E01FEF819396E0EA363C
:1024E000F907D1F78CE19BE090933A068093390687
:1024F00085EE97E090933C0680933B0681E891E05F
:1025000090933E0680933D0685E892E090934006C6
:1025100080933F0620E030E040E069E085E396E00C
:102520000E941C0B109282061092810689EE90E0A8
:1025300090936B0680936A0681E394E090936F0614
:1025400080936E0684E0809370061092710610925C
:102550008E061092AE0681E08093AF068093B0069F
:1025600089EA91E090936D0680936C0685E396E08E
:102570000E94A30010927D0610927F0610937E06A3
:1025800010938006E0916C06F0916D060280F38155
:10259000E02D85E396E0099585E491E0909384062B
:1025A000809383061092910683E180935F0682E117
:1025B000809360061092610661E376E0CE01019699
:1025C0000E94570CCE0101960E940F11CC57DF4F8D
:1025D0000FB6F894DEBF0FBECDBFDF91CF911F9134
:1025E0000895789484B5826084BD84B5816084BD8B
:1025F00085B5826085BD85B5816085BD80916E00A1
:10260000816080936E0010928100809181008260D1
:10261000809381008091810081608093810080910E
:1026200080008160809380008091B10084608093FD
:10263000B1008091B00081608093B00080917A00F9
:10264000846080937A0080917A00826080937A001F
:1026500080917A00816080937A0080917A0080680E
:1026600080937A001092C100E091F202F091F3029F
:1026700082E08083E091EE02F091EF021082E0911F
:10268000F002F091F1028FEC80831092FA02E09157
:10269000F602F091F70286E08083E091F402F09177
:1026A000F502808180618083E091F402F091F5026F
:1026B000808188608083E091F402F091F50280814E
:1026C00080688083E091F402F091F50280818F7D33
:1026D00080836DEB71E082EE92E00E94950CE091B8
:1026E0009703F091980320E030E040E06AE083E94E
:1026F00093E0099580910E0481110E94C10C80E045
:102700000E94A90C0E94E30CC091CF038091CE03DC
:10271000C80FE0919303F09194038189C81758F191
:102720000E94D80C80E00E94A90CE0919703F091E0
:10273000980320E030E040E06BE083E993E0099506
:1027400065ED71E082EE92E00E94950C60E082E01F
:102750000E943B0960E083E00E943B0960E084E066
:102760000E943B0960E085E00E943B090AEE11E00F
:10277000C9EBD6E007C080910E0481110E94C10C04
:102780008C2FBECF2FB7F8948091B5069091B606E6
:10279000A091B706B091B8062FBF80932C049093F8
:1027A0002D04A0932E04B0932F040E9465102FB720
:1027B000F8948091B5069091B606A091B706B091B5
:1027C000B8062FBFC0902C04D0902D04E0902E04AA
:1027D000F0902F04BC01CD016C197D098E099F0971
:1027E0000E94051620E030E04AE754E40E945D159F
:1027F0006B017C0160938B0370938C0380938D033A
:1028000090938E039B01AC0160E070E080E89FE351
:102810000E945D150E94CF157F936F9320E030E0FA
:102820004AE754E4C701B6010E9498160E94CF15EA
:102830007F936F931F930F93DF93CF930E94631740
:1028400069EB76E082EE92E00E94950C8DB79EB720
:1028500008960FB6F8949EBF0FBE8DBF0E94D50696
:1028600091CF8F929F92AF92BF92CF92DF92EF92D1
:10287000FF92CF93DF93EC01688179818A819B81FC
:10288000611571058105910521F464E279ED8BE50F
:1028900097E02DE133EF41E050E00E948D144901B3
:1028A0005A019B01AC01A7EAB1E40E94AC146B0190
:1028B0007C01ACEEB4EFA50194010E94BA14DC01D6
:1028C000CB018C0D9D1DAE1DBF1DB7FF03C0019731
:1028D000A109B04888839983AA83BB839F77DF913E
:1028E000CF91FF90EF90DF90CF90BF90AF909F90EF
:1028F0008F9008950E943114089580E091E00E9425
:1029000031140895A0E0B0E080930001909301019C
:10291000A0930201B09303010895052E97FB1EF4C6
:1029200000940E94A41457FD07D00E94BF1407FC16
:1029300003D04EF40C94A4145095409530952195F5
:102940003F4F4F4F5F4F08959095809570956195DB
:102950007F4F8F4F9F4F08950E94E114A59F900DC8
:10296000B49F900DA49F800D911D11240895B7FF71
:102970000C94AC140E94AC14821B930B0895A1E23A
:102980001A2EAA1BBB1BFD010DC0AA1FBB1FEE1FE9
:10299000FF1FA217B307E407F50720F0A21BB30B34
:1029A000E40BF50B661F771F881F991F1A9469F7B0
:1029B00060957095809590959B01AC01BD01CF010C
:1029C0000895A29FB001B39FC001A39F700D811D08
:1029D0001124911DB29F700D811D1124911D089528
:1029E0005058BB27AA270E9408150C9459160E941C
:1029F0004B1638F00E94521620F039F49F3F19F41C
:102A000026F40C9448160EF4E095E7FB0C9442165D
:102A1000E92F0E946A1658F3BA17620773078407F2
:102A2000950720F079F4A6F50C948C160EF4E09539
:102A30000B2EBA2FA02D0B01B90190010C01CA0178
:102A4000A0011124FF27591B99F0593F50F4503E23
:102A500068F11A16F040A22F232F342F4427585F15
:102A6000F3CF469537952795A795F0405395C9F72D
:102A70007EF41F16BA0B620B730B840BBAF09150E5
:102A8000A1F0FF0FBB1F661F771F881FC2F70EC084
:102A9000BA0F621F731F841F48F487957795679557
:102AA000B795F7959E3F08F0B0CF9395880F08F043
:102AB0009927EE0F9795879508950E9471150C94AC
:102AC00059160E94521658F00E944B1640F029F4F5
:102AD0005F3F29F00C94421651110C948D160C9402
:102AE00048160E946A1668F39923B1F3552391F3AF
:102AF000951B550BBB27AA2762177307840738F06D
:102B00009F5F5F4F220F331F441FAA1FA9F335D0C9
:102B10000E2E3AF0E0E832D091505040E695001C7D
:102B2000CAF72BD0FE2F29D0660F771F881FBB1F37
:102B3000261737074807AB07B0E809F0BB0B802D15
:102B4000BF01FF2793585F4F3AF09E3F510578F041
:102B50000C9442160C948D165F3FE4F3983ED4F328
:102B6000869577956795B795F7959F5FC9F7880F15
:102B7000911D9695879597F90895E1E0660F771F67
:102B8000881FBB1F621773078407BA0720F0621BF8
:102B9000730B840BBA0BEE1F88F7E09508950E9423
:102BA000D6156894B1110C948D1608950E94721672
:102BB00088F09F5798F0B92F9927B751B0F0E1F0FE
:102BC000660F771F881F991F1AF0BA95C9F714C0AE
:102BD000B13091F00E948C16B1E008950C948C16DF
:102BE000672F782F8827B85F39F0B93FCCF38695E7
:102BF00077956795B395D9F73EF490958095709544
:102C000061957F4F8F4F9F4F0895E89409C097FBC0
:102C10003EF490958095709561957F4F8F4F9F4FB3
:102C20009923A9F0F92F96E9BB279395F6958795F7
:102C300077956795B795F111F8CFFAF4BB0F11F4BA
:102C400060FF1BC06F5F7F4F8F4F9F4F16C0882361
:102C500011F096E911C0772321F09EE8872F762F97
:102C600005C0662371F096E8862F70E060E02AF0D8
:102C70009A95660F771F881FDAF7880F96958795C4
:102C800097F9089597F99F6780E870E060E00895EC
:102C90009FEF80EC089500240A9416161706180674
:102CA0000906089500240A94121613061406050650
:102CB0000895092E0394000C11F4882352F0BB0FE1
:102CC00040F4BF2B11F460FF04C06F5F7F4F8F4F44
:102CD0009F4F089557FD9058440F551F59F05F3F7F
:102CE00071F04795880F97FB991F61F09F3F79F02E
:102CF00087950895121613061406551FF2CF4695B0
:102D0000F1DF08C0161617061806991FF1CF869531
:102D10007105610508940895E894BB276627772715
:102D2000CB0197F908950E94051708F48FEF0895D5
:102D30000E94AB160C9459160E944B1638F00E9454
:102D4000521620F0952311F00C9442160C9448165C
:102D500011240C948D160E946A1670F3959FC1F38E
:102D6000950F50E0551F629FF001729FBB27F00D39
:102D7000B11D639FAA27F00DB11DAA1F649F66278E
:102D8000B00DA11D661F829F2227B00DA11D621FDD
:102D9000739FB00DA11D621F839FA00D611D221F97
:102DA000749F3327A00D611D231F849F600D211D7B
:102DB000822F762F6A2F11249F5750409AF0F1F0FE
:102DC00088234AF0EE0FFF1FBB1F661F771F881F67
:102DD00091505040A9F79E3F510580F00C94421647
:102DE0000C948D165F3FE4F3983ED4F38695779567
:102DF0006795B795F795E7959F5FC1F7FE2B880F0D
:102E0000911D9695879597F90895990F0008550F8C
:102E1000AA0BE0E8FEEF16161706E807F907C0F060
:102E200012161306E407F50798F0621B730B840B68
:102E3000950B39F40A2661F0232B242B252B21F442
:102E400008950A2609F4A140A6958FEF811D811DE2
:102E5000089597FB072E16F4009407D077FD09D04C
:102E60000E943D1707FC05D03EF4909581959F4F39
:102E70000895709561957F4F0895AA1BBB1B51E182
:102E800007C0AA1FBB1FA617B70710F0A61BB70BDA
:102E9000881F991F5A95A9F780959095BC01CD017F
:102EA0000895EE0FFF1F0590F491E02D099481E045
:102EB00090E0F8940C944D1ADC0101C06D934150E0
:102EC0005040E0F70895AEE0B0E0E9E6F7E10C9499
:102ED000241A0D891E8986E08C831A8309838FEF5B
:102EE0009FE79E838D83AE01475E5F4F6F89788D2C
:102EF000CE0101960E948517EF81F885E00FF11F42
:102F000010822E96E4E00C94401AABE0B0E0EBE8BF
:102F1000F7E10C94161A6C017B018A01FC011782FF
:102F20001682838181FFCCC1CE0101963C01F6015E
:102F30009381F70193FD859193FF81917F01882310
:102F400009F4BAC1853239F493FD859193FF8191DB
:102F50007F01853229F4B60190E00E947C19E7CF09
:102F6000912C212C312CFFE1F315D8F08B3279F024
:102F700038F4803279F08332A1F4232D20611DC012
:102F80008D3261F0803369F4232D216016C0832DCA
:102F90008260382EE32DE4603E2E2AC0F32DF860C7
:102FA0001DC037FC2DC020ED280F2A3040F08E3296
:102FB000B9F436FC81C1232D2064322E19C036FEAF
:102FC00006C08AE0989E200D1124922E11C0EAE0DE
:102FD0002E9E200D1124222EF32DF0623F2E08C0CC
:102FE0008C3621F4832D8068382E02C0883641F457
:102FF000F70193FD859193FF81917F018111B3CFFB
:10300000982F9F7D9554933028F40C5F1F4F9FE3BA
:1030100099830DC0833631F0833771F0833509F021
:1030200059C021C0F801808189830E5F1F4F882419
:103030008394912C530113C02801F2E04F0E511CD0
:10304000F801A080B18036FE03C0692D70E002C097
:103050006FEF7FEFC5010E9471194C018201F32DC2
:10306000FF773F2E16C0280122E0420E511CF801C6
:10307000A080B18036FE03C0692D70E002C06FEF02
:103080007FEFC5010E9466194C01F32DF0683F2EB9
:10309000820133FC1BC0822D90E088169906B0F4A3
:1030A000B60180E290E00E947C192A94F4CFF501E9
:1030B00037FC859137FE81915F01B60190E00E9457
:1030C0007C1921102A9421E0821A9108811491041C
:1030D00071F7E8C0843611F0893641F5F80137FE02
:1030E00007C060817181828193810C5F1F4F08C08E
:1030F00060817181072E000C880B990B0E5F1F4FAA
:10310000F32DFF763F2E97FF09C09095809570951F
:1031100061957F4F8F4F9F4FF0683F2E2AE030E040
:10312000A3010E94B819882E861845C0853731F44E
:10313000232D2F7EB22E2AE030E025C0932D997FDB
:10314000B92E8F36C1F018F4883579F0B5C08037C4
:1031500019F0883721F0B0C0E92FE061BE2EB4FE2F
:103160000DC0FB2DF460BF2E09C034FE0AC0292F0C
:103170002660B22E06C028E030E005C020E130E035
:1031800002C020E132E0F801B7FE07C06081718122
:10319000828193810C5F1F4F06C06081718180E046
:1031A00090E00E5F1F4FA3010E94B819882E861869
:1031B000FB2DFF773F2E36FE0DC0232D2E7FA22E36
:1031C000891458F434FE0BC032FC09C0832D8E7E66
:1031D000A82E05C0B82CA32C03C0B82C01C0B92C54
:1031E000A4FE0FC0FE01E80DF11D8081803321F4A3
:1031F0009A2D997EA92E09C0A2FE06C0B394B3945D
:1032000004C08A2D867809F0B394A3FC11C0A0FEF7
:1032100006C0B21488F4280C922C9B180EC0B2146D
:1032200060F4B60180E290E00E947C19B394F7CF7D
:10323000B21418F42B1802C0982C212CA4FE10C034
:10324000B60180E390E00E947C19A2FE17C0A1FCA9
:1032500003C088E790E002C088E590E0B6010CC0AA
:103260008A2D867859F0A1FE02C08BE201C080E26F
:10327000A7FC8DE2B60190E00E947C19891438F415
:10328000B60180E390E00E947C199A94F7CF8A946B
:10329000F301E80DF11D8081B60190E00E947C19D8
:1032A0008110F5CF222009F442CEB60180E290E0F1
:1032B0000E947C192A94F6CFF6018681978102C07C
:1032C0008FEF9FEF2B96E2E10C94321AFC010590F0
:1032D000615070400110D8F7809590958E0F9F1F18
:1032E0000895FC016150704001900110D8F780955D
:1032F00090958E0F9F1F08950F931F93CF93DF9389
:10330000FB01238121FD03C08FEF9FEF2CC022FF23
:1033100016C046815781248135814217530744F4F2
:10332000A081B1819D012F5F3F4F318320838C931A
:10333000268137812F5F3F4F3783268314C08B014F
:10334000EC01FB010084F185E02D0995892BE1F664
:10335000D80116968D919C911797019617969C937C
:103360008E931697CE01DF91CF911F910F91089503
:10337000FA01AA27283051F1203181F1E8946F93A6
:103380006E7F6E5F7F4F8F4F9F4FAF4FB1E03ED04C
:10339000B4E03CD0670F781F891F9A1FA11D680FEA
:1033A000791F8A1F911DA11D6A0F711D811D911D1D
:1033B000A11D20D009F468943F912AE0269F112492
:1033C0003019305D3193DEF6CF010895462F4770F6
:1033D000405D4193B3E00FD0C9F7F6CF462F4F7051
:1033E000405D4A3318F0495D31FD4052419302D0AF
:1033F000A9F7EACFB4E0A695979587957795679555
:10340000BA95C9F700976105710508959B01AC0154
:103410000A2E06945795479537952795BA95C9F77B
:10342000620F731F841F951FA01D08952F923F9256
:103430004F925F926F927F928F929F92AF92BF92C4
:10344000CF92DF92EF92FF920F931F93CF93DF9370
:10345000CDB7DEB7CA1BDB0B0FB6F894DEBF0FBECD
:10346000CDBF09942A88398848885F846E847D841A
:103470008C849B84AA84B984C884DF80EE80FD801C
:103480000C811B81AA81B981CE0FD11D0FB6F89492
:0E349000DEBF0FBECDBFED010895F894FFCF53
:10349E00010000001815A015C019FF1815A115C8B8
:1034AE0019FF1815AE19FF1815AF19FF1815AE151F
:1034BE00D5168015A8161F15D316001540158D1696
:1034CE00141520160015A115C815DA160215811649
:1034DE008F15D916F115DB1640152E15A415A61944
:1034EE00FF0001140A6464323200127A00000428CC
:1034FE009610040000800020000000000061026AA7
:10350E00020000000073027C020000000074085BE1
:10351E000E9806C108C906A706BB06000000009556
:10352E000768077E013C0760074C073D0700000057
:10353E0000E80455017E017D01A300F40396000D01
:10354E000A0047616D65204F7665722100496E69EC
:10355E007469616C697A696E6720646973706C61F5
:10356E00792E2E2E00446973706C617920496E6934
:10357E007469616C697A65642E0044656C746120AF
:10358E0054696D653A2025646D732C204650533A6C
:04359E002025640080
:107E0000112484B714BE81FFF0D085E080938100F7
:107E100082E08093C00088E18093C10086E0809377
:107E2000C20080E18093C4008EE0C9D0259A86E02C
:107E300020E33CEF91E0309385002093840096BBD3
:107E4000B09BFECF1D9AA8958150A9F7CC24DD24C4
:107E500088248394B5E0AB2EA1E19A2EF3E0BF2EE7
:107E6000A2D0813461F49FD0082FAFD0023811F036
:107E7000013811F484E001C083E08DD089C08234E0
:107E800011F484E103C0853419F485E0A6D080C0E4
:107E9000853579F488D0E82EFF2485D0082F10E0AE
:107EA000102F00270E291F29000F111F8ED06801E7
:107EB0006FC0863521F484E090D080E0DECF843638
:107EC00009F040C070D06FD0082F6DD080E0C81688
:107ED00080E7D80618F4F601B7BEE895C0E0D1E017
:107EE00062D089930C17E1F7F0E0CF16F0E7DF06D8
:107EF00018F0F601B7BEE89568D007B600FCFDCFD4
:107F0000A601A0E0B1E02C9130E011968C91119780
:107F100090E0982F8827822B932B1296FA010C0160
:107F200087BEE89511244E5F5F4FF1E0A038BF0790
:107F300051F7F601A7BEE89507B600FCFDCF97BE46
:107F4000E89526C08437B1F42ED02DD0F82E2BD052
:107F50003CD0F601EF2C8F010F5F1F4F84911BD097
:107F6000EA94F801C1F70894C11CD11CFA94CF0C13
:107F7000D11C0EC0853739F428D08EE10CD085E9AC
:107F80000AD08FE07ACF813511F488E018D01DD067
:107F900080E101D065CF982F8091C00085FFFCCF94
:107FA0009093C60008958091C00087FFFCCF809118
:107FB000C00084FD01C0A8958091C6000895E0E648
:107FC000F0E098E1908380830895EDDF803219F02E
:107FD00088E0F5DFFFCF84E1DECF1F93182FE3DFCA
:107FE0001150E9F7F2DF1F91089580E0E8DFEE27F6
:047FF000FF270994CA
:027FFE00040479
:0400000300007E007B
:00000001FF