:100000000C9462000C948A000C948A000C948A0070
:100010000C948A000C948A000C948A000C948A0038
:100020000C948A000C948A000C948A000C948A0028
:100030000C948A000C948A000C948A000C948A0018
:100040000C946B060C948A000C94AF0D0C94890DE3
:100050000C948A000C948A000C948A000C948A00F8
:100060000C94B5060C948A000000000024002700C0
:100070002A0000000000250028002B0000000000DE
:1000800023002600290004040404040404040202DA
:100090000202020203030303030301020408102007
:1000A0004080010204081020010204081020000012
:1000B0000008000201000003040700000000000027
:1000C0000000E21011241FBECFEFD8E0DEBFCDBF8D
:1000D00011E0A0E0B1E0E4EEF7E202C005900D927D
:1000E000A43CB107D9F728E0A4ECB1E001C01D920F
:1000F000A832B207E1F710E0C2E6D0E004C02197D1
:10010000FE010E94DE13C136D107C9F70E94880F95
:100110000C94F0130C940000FC01918D228D892F1A
:1001200090E0805C9F4F821B91098F7399270895FF
:1001300080E090E0892B29F00E94070D81110C943A
:1001400000000895833081F028F4813099F08230E6
:10015000A1F008958730A9F08830B9F08430D1F447
:10016000809180008F7D03C0809180008F77809385
:100170008000089584B58F7702C084B58F7D84BDDB
:1001800008958091B0008F7703C08091B0008F7D7B
:100190008093B00008951F93CF93DF93282F30E012
:1001A000F901E255FF4F8491F901E656FF4FD491D2
:1001B000F901EA57FF4FC491CC23C1F0162F8111EA
:1001C0000E94A200EC2FF0E0EE0FFF1FEE58FF4F51
:1001D000A591B4919FB7F894111104C08C91D0955A
:1001E000D82302C0EC91DE2BDC939FBFDF91CF912F
:1001F0001F9108953FB7F89480915502909156024F
:10020000A0915702B091580226B5A89B05C02F3F78
:1002100019F00196A11DB11D3FBFBA2FA92F982F2C
:100220008827820F911DA11DB11DBC01CD0142E0A7
:10023000660F771F881F991F4A95D1F7089585ED9E
:100240008093BC008091BC0084FDFCCF10922E02F4
:10025000089540910A02262F30E0240F311D2132EB
:100260003105DCF420912E022430C9F4FC0180E039
:1002700090E0861758F430910A022191DC01A651D2
:10028000BE4FA30FB11D2C930196F3CF80910A02AC
:10029000680F60930A0280E0089581E0089582E08B
:1002A000089508958FEF9FEF08958FEF9FEF0895C2
:1002B0008091E90190E09195819591090895CF93FE
:1002C000DF93CB01EA01642F0E942901CE01DF9167
:1002D000CF910895CF93DF931F92CDB7DEB7698397
:1002E00061E0CE0101960E94290181E090E00F902B
:1002F000DF91CF91089580E00895DC011A96ED9189
:10030000FC911B9720E030E00994DC011696ED91FA
:10031000FC91179720E030E040E069E10994DC01AE
:100320001696ED91FC91179720E030E040E068E1EF
:1003300009949A01DC011696ED91FC911797462FCE
:1003400067E10994EF92FF920F931F93CF93DF938E
:100350001F92CDB7DEB77C018B01D8016C9167315C
:10036000E1F078F46531A0F1F80141814983D701CA
:100370001696ED91FC91179720E030E0C7010995A2
:1003800024C06A31A8F06E3F19F5F8014181498314
:1003900069E2C7010E947D0118C0F801818189834B
:1003A000AE014F5F5F4F61E0C7010E9499010DC030
:1003B0000F5F1F4FD7011696ED91FC91179720E024
:1003C00030E040E0C7010995C8CF0E5F1F4FC5CF91
:1003D0000F90DF91CF911F910F91FF90EF900895B3
:1003E000462FDC011696ED91FC91179720E030E046
:1003F00066E10994462FDC011696ED91FC91179762
:1004000020E030E065E10994EF92FF920F931F9393
:10041000CF93DF93EC01142F79016D30A9F118F41B
:100420006B3039F15FC06E3009F441C06F3009F0B4
:1004300059C00E948F01F70183810C89F8E08F9FDA
:10044000000D112460E4CE010E94FA01602F629534
:100450006F706061CE010E94FA01602F6F70CE0153
:100460000E94F001F7016481606BCE010E94F001EF
:1004700029C0411103C063E171E002C06EE071E088
:10048000CE010E94A20171C0411108C067E071E075
:100490000E94A201E881F981828907C060E071E0D1
:1004A0000E94A201E881F98183898C8B5EC00E9441
:1004B0008F0161E8CE010E94FA01612FCE010E94F6
:1004C000F0010CC0F701408151816281660F660F17
:1004D000660FCE010E9499011150A1F7CE010E9432
:1004E000850143C0693031F48DE491E099838883BC
:1004F0001C8A3BC06A30B9F5EA85FB8520E030E014
:1005000040E068E2CE010995EE81FF8120E030E015
:1005100040E064E1CE01099541E06BE4CE010E9428
:100520007D01E881F981448169E2CE010E947D016B
:1005300040E06BE4CE010E947D01E881F9814481B5
:1005400069E2CE010E947D0141E06BE4CE010E9490
:100550007D01E881F981458169E2CE010E947D013A
:1005600068E171E08DCF80E001C081E0DF91CF9143
:100570001F910F91FF90EF90089541E06DE40C946E
:100580007D01DC01ED91FC9145856DE20C947D01CE
:10059000CF93DF93EC0141E06CE40E947D01CE013A
:1005A000DF91CF910C94C102CF93DF93EC016623CE
:1005B00019F00E94BD0204C040E06DE40E947D017C
:1005C000CE010E94C102CE010E94C80240E06CE44C
:1005D000CE01DF91CF910C947D011F93CF93DF93D8
:1005E000EC01162F60780E94D402612F6074CE0156
:1005F0000E94D402612F6072CE010E94D402612F4A
:100600006071CE010E94D402612F6870CE010E94F9
:10061000D402612F6470CE010E94D402612F6270F7
:10062000CE010E94D402612F6170CE010E94D402DB
:10063000CE010E94BD02CE010E94C102CE010E94E5
:10064000C802CE010E94BD02CE010E94C10240E05C
:100650006CE4CE01DF91CF911F910C947D01DC0100
:100660001896ED91FC91199720E030E040E069E1A7
:100670000994DC011896ED91FC91199720E030E087
:1006800040E068E10994662329F06A3019F0862F6A
:1006900090E008958FEF9FEF08950F93DC01DF96B0
:1006A0003C91DF97431BD596ED91FC91D697099528
:1006B0000F910895CF93DF93FC01A081B18193AD99
:1006C000892F880F880F880F86AF50968C9150978E
:1006D000803208F08FE1880F880F880F85AF24AD36
:1006E000822F880F880F880F87AF51963C915197C2
:1006F000422F50E0490F511D632F70E064177507BA
:1007000014F4932F921BEF01C05CDF4F8883219676
:1007100028E0929F800D11248883219680EF8883A2
:1007200054968D919C915597813F910508F488834B
:10073000ED5BFF4F56968C918083DF91CF910895AA
:10074000EF92FF920F931F93CF93DF93EC01742FDF
:100750007770E1E0F0E0072E01C0EE0F0A94EAF7AF
:100760003E2F7C018AE7E80EF11CD7018C91823084
:1007700028F41E2F813019F430E001C010E050E061
:10078000487F89AD9AADA881B9815096FC91F49FBC
:10079000D001F59FB00D1124A60FB11DA80FB91FF0
:1007A00001110BC08C91812B83278D932150D1F7A0
:1007B0001CC0110F330F2223C1F09C91912B932762
:1007C0009C937F5F777021507111F3CF8DADA80F8F
:1007D000B11DF7018081823020F4813021F031E0B9
:1007E00002C031E0E8CF11E0E6CFDF91CF911F9159
:1007F0000F91FF90EF90089580E00895FC01E60FBF
:10080000F11D849190E0982F88273196E4918E0F06
:10081000911D0895EF92FF921F93CF93DF93EC0108
:10082000142F7901683129F128F46431A9F0673176
:1008300041F055C0693109F43FC0603209F44DC040
:100840004EC0112309F449C0F70161917F01CE0127
:100850000E94ED021150F5CF41E06CE40E947D0151
:1008600041E06DE4CE010E947D01CE010E94C102F3
:1008700034C08F89882349F0CE010E94BD02CE0189
:100880000E94C102CE010E94C802CE010E94BD0298
:1008900040E06DE4CE010E947D01CE010E94C102C4
:1008A00040E06CE4CE010E947D0181E08F8B6E8977
:1008B000CE010E94ED0211C040E06DE40E947D0176
:1008C000CE010E94C102CE010E94C802CE010E9448
:1008D000BD02CE010E94C1021F8A81E001C080E0FA
:1008E000DF91CF911F91FF90EF900895CF92DF920B
:1008F000EF92FF920F931F93CF93DF936C01EB0165
:100900007B01E40EF51E00E010E0CE15DF0561F07E
:100910006991D601ED91FC910190F081E02DC60125
:100920000995080F191FF1CFC801DF91CF911F91D1
:100930000F91FF90EF90DF90CF900895089580E0A1
:1009400090E008950E94E413CF93DF931F92CDB7F8
:10095000DEB76983BE016F5F7F4F0E94800D0F90ED
:10096000DF91CF910895EF92FF921F93CF93DF9382
:10097000EC01162F7A010E94390360E4CE010E9437
:10098000A404E885F9859701412F67E1CE01099517
:10099000CE01DF91CF911F91FF90EF900C942F0328
:1009A000EF92FF921F93CF93DF93EC01142F790105
:1009B000663121F128F46431E9F1653149F056C01E
:1009C000683109F44FC0F0F0693109F444C04EC0F9
:1009D0008091E801882319F0CE010E942F03CE01F7
:1009E0000E94390360E0CE010E94A404612FCE0171
:1009F0000E94A40481E08093E80139C0642F0E9422
:100A0000A40432C08091E801882319F0CE010E942D
:100A10002F03A701193148F068E1CE010E94B30409
:100A2000185188E1E80EF11CF4CF612FCE010E942D
:100A3000B30418C08E898F3F11F488E78E8BE88548
:100A4000F9859701412F64E1CE01DF91CF911F918C
:100A5000FF90EF9009948091E801882319F0CE016E
:100A60000E942F031092E80181E001C080E0DF9135
:100A7000CF911F91FF90EF900895FC01848DDF01CD
:100A8000A80FB11DA35ABF4F2C91848D90E0019601
:100A90008F739927848FA689B7892C93A089B189F0
:100AA0008C91837080648C93938D848D981306C091
:100AB0000288F389E02D80818F7D80830895CF9314
:100AC000DF93282F30E0F901E255FF4F8491F901BF
:100AD000E656FF4FD491F901EA57FF4FC491CC235A
:100AE00091F081110E94A200EC2FF0E0EE0FFF1FA9
:100AF000E458FF4FA591B491EC91ED2381E090E093
:100B000021F480E002C080E090E0DF91CF91089571
:100B1000CF93DF9390E0FC01E656FF4F2491FC0158
:100B2000EA57FF4F8491882361F190E0880F991F65
:100B3000FC01E859FF4FC591D491FC01EE58FF4FDD
:100B4000A591B491611109C09FB7F894888120954F
:100B500082238883EC912E230BC0623061F49FB70F
:100B6000F8948881322F309583238883EC912E2B43
:100B70002C939FBF06C08FB7F894E8812E2B288353
:100B80008FBFDF91CF9108958F929F92AF92BF92C6
:100B9000CF92DF92EF92FF92CF93DF93EC016C3212
:100BA00088F46A3208F089C06832B9F0693209F015
:100BB0006DC0C42ED12CE12CF12C0E94FA004B0107
:100BC0005C013DC06D3209F440C008F45FC084EBA5
:100BD000860F823008F448C059C07C012FE1E20E34
:100BE000F11CD0E0F70181917F018F3F39F0D031C6
:100BF00010F461E001C062E00E948805DF5FD63139
:100C000089F75BC00E94FA00DC01CB0188199909C1
:100C1000AA09BB09883E9340A105B10580F0F1E027
:100C2000CF1AD108E108F10828EE820E23E0921EC7
:100C3000A11CB11CC114D104E104F10419F7C114C1
:100C4000D104E104F104F1F638C0433018F082E039
:100C500090E002C085E090E0880F991F880F991FEF
:100C600005970197F1F729C0862F8F73C80FD11D03
:100C7000411107C061E08F8D0E94880560E08F8D73
:100C800012C062E08F8D0E94880517C06034B8F0F2
:100C9000962F9F73FE01E90FF11D878D8F3F69F03D
:100CA000903120F4642F0E94CB0007C00E945F05A2
:100CB00021E0892B09F420E02A8F81E001C080E047
:100CC000DF91CF91FF90EF90DF90CF90BF90AF90EA
:100CD0009F908F9008951F920F920FB60F9211243C
:100CE0002F933F938F939F93AF93BF93809159021C
:100CF00090915A02A0915B02B0915C023091540233
:100D000023E0230F2D3720F40196A11DB11D05C04E
:100D100026E8230F0296A11DB11D20935402809353
:100D2000590290935A02A0935B02B0935C028091A7
:100D3000550290915602A0915702B0915802019627
:100D4000A11DB11D8093550290935602A0935702A6
:100D5000B0935802BF91AF919F918F913F912F9186
:100D60000F900FBE0F901F9018951F920F920FB605
:100D70000F9211242F933F934F935F936F937F9321
:100D80008F939F93AF93BF93EF93FF938091B9009D
:100D9000887F803609F49CC068F5883209F45BC00E
:100DA00090F4803109F454C038F4882309F4F2C077
:100DB000883009F44DC0F2C0883109F44CC080324B
:100DC00009F45DC0EBC0803409F468C048F4803396
:100DD00009F455C0883309F0E1C080932D02D4C0D6
:100DE000803509F44FC0883509F45DC0883409F0B6
:100DF000D5C0D2C0883909F4C3C0A8F4883709F433
:100E000067C038F4883609F463C0803709F460C0DD
:100E1000C5C0883809F4B4C0803909F45FC080388F
:100E200009F0BCC05BC0803B09F484C038F4803A50
:100E300009F466C0883A09F47DC0B0C0803C09F46A
:100E4000A3C0883C09F4A0C0883B09F486C0A6C0B2
:100E50008091530210C090915202809151029817D4
:100E600070F5E091520281E08E0F80935202F0E023
:100E7000EF5CFD4F80818093BB0085EC82C0809346
:100E80002D028AC0E091520281E08E0F80935202BF
:100E90008091BB00F0E0EF5CFD4F808390915202A7
:100EA000809151026AC0E091520281E08E0F8093DE
:100EB00052028091BB00F0E0EF5CFD4F8083809197
:100EC0003002811169C081E080932F0284EA5DC005
:100ED00083E080932E0210922C02CFCF80912C02BF
:100EE000803208F04DC0E0912C0281E08E0F80939B
:100EF0002C028091BB00F0E0E45FFD4F8083BDCF0A
:100F000085EC8093BC0010922E0280912C028032DE
:100F100030F4E0912C02F0E0E45FFD4F108260912C
:100F20002C0270E08CE092E0E0E0F0E00995109295
:100F30002C0234C084E080932E0210920B02109297
:100F40000A02E0E0F0E0099580910A02811105C0F3
:100F500081E080930A021092EA01E0910B0281E0A5
:100F60008E0F80930B02F0E0E651FE4F808180935C
:100F7000BB0090910B0280910A02981708F47DCF74
:100F800085E88093BC000AC085EC8093BC00109279
:100F90002E0204C010922D020E941F01FF91EF91BA
:100FA000BF91AF919F918F917F916F915F914F9181
:100FB0003F912F910F900FBE0F901F9018950F9398
:100FC000FC01EA5BFF4F308131965081451728F4D0
:100FD000301730F0041720F010C03017D8F30DC0D0
:100FE000FC01EC5BFF4F308131968081681738F44B
:100FF000321740F081E0261730F080E004C032174D
:10100000C8F3FBCF81E00F9108952F923F924F924A
:101010005F926F927F928F929F92AF92BF92CF9288
:10102000DF92EF92FF920F931F93CF93DF93EC0128
:101030004C0184E4880E911CF401108232972080C8
:101040005E01F5E4AF0EB11CF501208235973080CA
:101050006E01F6E4CF0ED11CF60130823597408048
:101060007E01F7E4EF0EF11CF70140823496108107
:10107000329760803196708032975080012F262DF4
:10108000472D652DCE010E94DF07CC58DF4F81111F
:1010900002C0188212C081E08883552011F0F4014B
:1010A0005082621410F4F5016082371410F4F601D6
:1010B0007082141510F4F7011083DF91CF911F9106
:1010C0000F91FF90EF90DF90CF90BF90AF909F90E7
:1010D0008F907F906F905F904F903F902F900895EA
:1010E0000F93DC01802FFD01EC58FF4F9081992375
:1010F00009F463C0222309F460C0223048F00230B2
:1011000019F46F5F621B04C0033011F44F5F421B80
:10111000082F0170FD0180FD25C0EA5BFF4F808133
:10112000481708F44AC031968081481708F045C036
:101130003297908131978081260F261730F46917F6
:1011400018F42FEF290F03C0682F6917B0F5821725
:10115000A0F5681708F4682F291708F4922F292F93
:10116000261B22C0EC5BFF4F8081681730F131965F
:101170008081681710F53296908131978081240F15
:10118000241730F4491718F42FEF290F03C0482F04
:10119000491798F4821788F4481708F4482F29173C
:1011A00008F4922F292F241BD796ED91FC91D89704
:1011B0000480F581E02DCD0109950F91089521302E
:1011C00039F020F0223031F4861B0895860F0895FF
:1011D000841B0895840F0895213039F020F02230C7
:1011E00031F4841B0895840F0895860F0895861B9B
:1011F00008952F923F924F925F926F927F928F92BB
:101200009F92AF92BF92CF92DF92EF92FF920F9395
:101210001F93CF93DF93EC016C0124E0C20ED11C2D
:10122000FC01E058FF4F0190F081E02DC6010995C7
:101230007C018EEFE8168FEFF80608F075C1FE010D
:10124000ED57FF4F10814E0192E8890E911CF40179
:101250000081B29780818130C9F070F0823001F155
:10126000833039F5FE01EE5AFF4F0190F081E02DF9
:10127000C6010995080F1DC0FE01EE5AFF4F0190EF
:10128000F081E02DC6010995180F13C0FE01EE5A3A
:10129000FF4F0190F081E02DC6010995081B09C0A0
:1012A000FE01EE5AFF4F0190F081E02DC601099535
:1012B000181BFE01EA5AFF4F0083319610833797BF
:1012C000808191814796FFEFEF16F10409F040F518
:1012D00021E6E216F10420F0FE01EC58FF4F07C0B2
:1012E000E1E4EE16F10438F0FE01EE58FF4F2081E4
:1012F0003181820F931F9C012F5F3F4FF901449171
:10130000442309F40FC1FC01449150E0E416F506B2
:1013100011F4029634C0F9012491820F911DEBCF94
:10132000FE01EA58FF4FA080B180A80EB91E8501CA
:1013300060E0C5010E94FE03080F191F62E0C501AD
:101340000E94FE03F4E0AF0EB11C8E159F0580F3E2
:10135000F801849190E0982F88273196E4918E2BA4
:10136000009709F4DFC0E816F90619F4C8010396DE
:1013700006C0F8013296E4910E0F111DE9CF0097D7
:1013800009F4D0C07E01F4E5EF0EF11CF701918362
:101390008083108671966081C7010E94E10DF7017C
:1013A000868372966081C7010E94E10D782EF70155
:1013B00087835E01FEE7AF0EB11CF5019081F70156
:1013C000928781E0911180E0F7018387FE01E9595E
:1013D000FF4F1081612FC7010E94E10D9FEF910F18
:1013E00001E010E0980101C0220F9A95EAF7382E2B
:1013F000321AFE01E859FF4F6080662DC7010E9436
:10140000E10D6A94280101C0440C6A94EAF7282E81
:10141000270CFE01E759FF4F6080662DC7010E942F
:10142000E10D6A9401C0000F6A94EAF7682E601A11
:10143000F701068110160CF070C054844218252D57
:10144000442D632D82810E94DF08182FF7018283CB
:10145000252D442D632D83810E94EC08F7018383A1
:10146000F1E05F16B1F05F1678F022E05216B9F0A5
:1014700093E059121FC0212F270D982F901B01E0D8
:10148000080F81E0890F18C0202F210F082F070DAA
:1014900013C0571821E0210F080F150D0DC091E062
:1014A000392F301B21E0210F971901E0080F890F18
:1014B000130F02C0082F212F482F612FC6010E9451
:1014C000DF07882351F1F701148215828E010D592F
:1014D0001F4FCC59DF4FF8016081C7010E94E10D19
:1014E000482E6881C7010E94E10D582E40E0642D0E
:1014F000C6010E940E0E41E0652DC6010E940E0E2F
:1015000061E0C7010E94E10D8111F0CFF7018581F3
:1015100087150CF38285F5018083F4018081680EC4
:10152000608202C0612CF9CF81E090E0DF91CF9121
:101530001F910F91FF90EF90DF90CF90BF90AF90F1
:101540009F908F907F906F905F904F903F902F90E3
:101550000895CF92DF92EF92FF920F931F93CF9354
:10156000DF936C017A018B01C0E0D0E0CE15DF057E
:1015700081F0D8016D918D01D601ED91FC91019022
:10158000F081E02DC6010995892B11F02196EECF4F
:101590007E01C701DF91CF911F910F91FF90EF90D6
:1015A000DF90CF900895FC01538D448D252F30E0BE
:1015B000842F90E0821B930B541710F0CF96089560
:1015C00001970895FC01918D828D981761F0828DAD
:1015D000DF01A80FB11D5D968C91928D9F5F9F7367
:1015E000928F90E008958FEF9FEF0895FC01918D09
:1015F000828D981731F0828DE80FF11D858D90E076
:1016000008958FEF9FEF0895BF92CF92DF92EF92F0
:10161000FF920F931F93CF93DF937C01B62EC22FBF
:10162000102FD1E0D40FC02EC41AD22ED60E01E056
:101630002D2F4C2D6D2D0E947008CB192D2F4C2D68
:101640006C2FC7010E9470082D2F412F6D2DC701EF
:101650000E9470082D2F412F6C2FC7010E94700827
:10166000DF91CF911F910F91FF90EF90DF90CF907E
:10167000BF9008955F926F927F928F929F92AF92E8
:10168000BF92CF92DF92EF92FF920F931F93CF936F
:10169000DF93709085031091830304966C0107E03B
:1016A000070D24E0210F4AEF470D6DEF610F0E94F7
:1016B000DF07811148C0C090FA02D090FB02E09091
:1016C000FC02F090FD022091870330918803409145
:1016D000890350918A03C701B6010E944F130E94EB
:1016E0008B122091830330918403620F731F7093D8
:1016F00084036093830320918B0330918C0340918A
:101700008D0350918E03C701B6010E944F130E94B2
:101710008B122091850330918603620F731F7093A3
:10172000860360938503DF91CF911F910F91FF9006
:10173000EF90DF90CF90BF90AF909F908F907F9071
:101740006F905F900895A8EDAA2EB12CBCE48B2E6B
:1017500099249A94C0E0D0E009E0E02EF12C612CAD
:1017600083E0582E072D212F462D652DC6010E949E
:10177000040B63949701275F3F4FCE0DDF1D42E1BD
:10178000E40EF11CCE01880F991F880D991D1816C3
:1017900019065CF45A9458E4A51AB108AC014C1B24
:1017A0005D0BEA0158E4850E911CA216B306D4F62F
:1017B0005CE6A52EB12C6DE9862E99249A94C0E0A2
:1017C000D0E074E2E72EF12CE6E05E2E612C072DCE
:1017D000212F452D662DC6010E94040B63949701AD
:1017E0002C5D3F4FCE0DDF1D88E4E80EF11CCE01CD
:1017F000880F991F880D991D181619065CF45A94C4
:1018000042E1A41AB108AC014C1B5D0BEA0152E1A4
:10181000850E911CA216B306D4F64DCFEF92FF921F
:101820000F931F93CF93DF9310919103D0918F0368
:1018300004967C0104E1010F22E02D0F412F6D2F52
:101840000E94DF0781110BC082E00E945F05892B97
:1018500099F48091910390919203019717C0C0E091
:10186000412F4C1B00E022E06D2FC7010E94700841
:10187000C150CC3EA9F7E8CF83E00E945F05892BD9
:1018800049F4809191039091920301969093920371
:101890008093910387EA91E00E94FA0E82E00E9411
:1018A0005F0521E030E0892B11F020E030E0C90134
:1018B0000E940C0F85EB91E00E94FA0E83E00E94DB
:1018C0005F0521E030E0892B11F020E030E0C90114
:1018D000DF91CF911F910F91FF90EF900C940C0F1F
:1018E0008F929F92AF92BF92CF92DF92EF92FF9230
:1018F0000F931F93CF93DF93CDB7DEB7C458D109B1
:101900000FB6F894DEBF0FBECDBF0E947F0E8AEFE8
:10191000882E82E0982EF401868197819C838B83A8
:101920009DE8A92E91E0B92EBA82A9828CE7E2E067
:10193000F3E0DE01159601900D928A95E1F72EE70E
:10194000C22E23E0D22EF60180819181CF57DF4F46
:1019500099838883C158D04030E8E32E33E0F32EDA
:10196000F7018081CD57DF4F8883C358D04001E80D
:1019700013E0F8018081CC57DF4F8883C458D040F2
:10198000CE0101960E943A0BF401868197819C83D7
:101990008B83BA82A9828CE7E2E0F3E0DE01159640
:1019A00001900D928A95E1F7F60180819181CF57E0
:1019B000DF4F99838883C158D040F7018081CD578C
:1019C000DF4F8883C358D040F8018081CC57DF4F68
:1019D0008883C458D040CE0101960E940E0C0E940C
:1019E000A10E0E94960ECC57DF4F0FB6F894DEBFC3
:1019F0000FBECDBFDF91CF911F910F91FF90EF9060
:101A0000DF90CF90BF90AF909F908F9008958DE51D
:101A100092E00E948C0021E0892B09F420E0822FC3
:101A20000895EF92FF920F931F93CF93DF93EC01F2
:101A300081E0888F9B8D8C8D981305C0E889F9898A
:101A4000808185FD26C0F62E0B8D10E00F5F1F4FA5
:101A50000F731127E02E8C8DE8120CC00FB607FC17
:101A6000FACFE889F989808185FFF5CFCE010E9400
:101A70003D05F1CF8B8DFE01E80FF11DE35AFF4FBD
:101A8000F0829FB7F8940B8FEA89FB89808180628E
:101A90000AC09FB7F894EE89FF896083E889F989C5
:101AA00080818370806480839FBF81E090E0DF91BC
:101AB000CF911F910F91FF90EF900895CF93DF93F7
:101AC000EC01888D8823C9F0EA89FB89808185FD36
:101AD00005C0A889B9898C9186FD0FC00FB607FC97
:101AE000F5CF808185FFF2CFA889B9898C9185FFD8
:101AF000EDCFCE010E943D05E7CFDF91CF91089554
:101B00009B01DC011896ED91FC91199741E067E18A
:101B100009941F920F920FB60F9211242F933F93A7
:101B20004F935F936F937F938F939F93AF93BF93E5
:101B3000EF93FF938DE592E00E943D05FF91EF91B9
:101B4000BF91AF919F918F917F916F915F914F91D5
:101B50003F912F910F900FBE0F901F9018951F92DD
:101B60000F920FB60F9211242F938F939F93EF93A1
:101B7000FF93E0916D02F0916E028081E09173021B
:101B8000F091740282FD12C09081809176028F5F85
:101B90008F7320917702821751F0E0917602F0E086
:101BA000E35AFD4F958F8093760201C08081FF91AB
:101BB000EF919F918F912F910F900FBE0F901F90DB
:101BC0001895DC0118964C911897ED91FC9111979E
:101BD000249130E0042E02C0359527950A94E2F74F
:101BE000842F860F883010F4E22F0DC031961196A5
:101BF000FC93EE93E49198E0941B01C0EE0F9A954C
:101C0000EAF7E22B885018968C9381E090E001C0AF
:101C1000880F6A95EAF781508E2308955F926F923C
:101C20007F928F929F92AF92BF92CF92DF92EF926C
:101C3000FF920F931F93CF93DF935C01162F642EB7
:101C4000EC01C05BDF4FDC80ED804C018AE7880E41
:101C5000911CFE80FD18CF2C1F1508F4C12E5B804F
:101C60000C85202F4E2D6D2D8A810E94DF08782E45
:101C7000202F4E2D6D2D852D0E94EC08482F6620BB
:101C800011F08A8504C08985811108C08B85F40113
:101C900080832C2D672DC5010E9470081F1520F030
:101CA0001F19E394D12CD5CF1D0D1C83ED82DF913C
:101CB000CF911F910F91FF90EF90DF90CF90BF9049
:101CC000AF909F908F907F906F905F900895CF938B
:101CD000DF9380933E03C9E3D3E0E881F98101906B
:101CE000F081E02D82E093E00995E881F98102809E
:101CF000F381E02D82E093E0DF91CF910994E091B0
:101D00000203F0910303808940913D03849FA00169
:101D1000112483E0440F551F8A95E1F760E070E0DD
:101D200080913B0390913C030C94E913E0910603EE
:101D3000F091070320E030E040E060E182E093E0D2
:101D40000994CF92DF92EF92FF920F931F93CF935C
:101D5000DF9300D000D01F92CDB7DEB7C0903D0317
:101D600000913E03E0910203F0910303D188102F0C
:101D7000E12CF12CE0910203F09103038089409162
:101D80003B0350913C031C821D838B8328E0829F80
:101D9000C00111248E9D90018F9D300D9E9D300DB0
:101DA0001124CA01820F931F9A838983E09106034D
:101DB000F09107039E012F5F3F4F41E06FE082E00B
:101DC00093E009951F5F812F801B8C1528F48FEFFE
:101DD000E81AF80A1D1570F20F900F900F900F90EF
:101DE0000F90DF91CF911F910F91FF90EF90DF90B7
:101DF000CF900895009769F0FC0101900020E9F769
:101E00003197AF01481B590BBC018DE592E00C9452
:101E1000A90A80E090E008958F929F92AF92BF92BE
:101E2000CF92DF92EF92FF920F931F93CF93DF93A6
:101E3000CDB7DEB7A1970FB6F894DEBF0FBECDBF0A
:101E40006C01990FEE08FF08F7FE2BC06DE28DE5DF
:101E500092E00E94110D8C0122273327A9012C1931
:101E60003D094E095F0919A2CE0181967C019AE0D5
:101E7000892E912CA12CB12CCA01B901A501940184
:101E80000E94BC13605DF70162937F01211531054B
:101E90004105510589F7CF010E94FA0E080F191F5D
:101EA0001EC0A701960119A28E010F5D1F4F8AE087
:101EB000C82ED12CE12CF12CCA01B901A701960141
:101EC0000E94BC13605DF80162938F0121153105FA
:101ED0004105510589F7CF010E94FA0E8C0180EC73
:101EE00091E00E94FA0E800F911FA1960FB6F89410
:101EF000DEBF0FBECDBFDF91CF911F910F91FF903D
:101F0000EF90DF90CF90BF90AF909F908F9008950B
:101F1000789484B5826084BD84B5816084BD85B5C4
:101F2000826085BD85B5816085BD80916E008160D0
:101F300080936E0010928100809181008260809376
:101F40008100809181008160809381008091800078
:101F50008160809380008091B10084608093B100A3
:101F60008091B00081608093B00080917A0084609D
:101F700080937A0080917A00826080937A008091C9
:101F80007A00816080937A0080917A0080688093E3
:101F90007A001092C100E0916D02F0916E0282E031
:101FA0008083E0916902F0916A021082E0916B02F5
:101FB000F0916C028FEC808310927502E0917102B7
:101FC000F091720286E08083E0916F02F0917002DE
:101FD000808180618083E0916F02F0917002808146
:101FE00088608083E0916F02F09170028081806848
:101FF0008083E0916F02F091700280818F7D8083F9
:10200000E0910603F091070320E030E040E06AE051
:1020100082E093E0099580917D0381110E947F0EFB
:1020200080E00E94670E0E94A10EC0913E03809145
:102030003D03C80FE0910203F09103038189C817A3
:1020400008F10E94960E80E00E94670EE091060360
:10205000F091070320E030E040E06BE082E093E0A5
:10206000099560E082E00E94880560E083E00E94BC
:10207000880560E084E00E94880560E085E00E94B9
:10208000880507C080917D0381110E947F0E8C2FEF
:10209000C8CF2FB7F8948091590290915A02A0911D
:1020A0005B02B0915C022FBF8093930390939403E3
:1020B000A0939503B09396030E94700C2FB7F894E9
:1020C0008091590290915A02A0915B02B0915C02FA
:1020D0002FBF0091930310919403209195033091A9
:1020E0009603BC01CD01601B710B820B930B0E9408
:1020F000C11220E030E04AE754E40E9419126093D4
:10210000FA027093FB028093FC029093FD020E94FE
:102110009800BFCFEAEFF2E01082118212821382A0
:102120002DE831E0358324831092840310928303D9
:1021300010928603109285031092900310928F03E1
:1021400010929203109291031092930310929403B1
:102150001092950310929603DC0112962D913C91FA
:102160001397378326832CE7FC013496A2E0B3E073
:1021700001900D922A95E1F7FC01E058FF4F208174
:10218000318130937F0320937E0332962081209308
:102190008003319680818093810380E090E0A0EA03
:1021A000B0E48093870390938803A0938903B0934E
:1021B0008A0380938B0390938C03A0938D03B09339
:1021C0008E0308951F93CF93DF93CDB7DEB7C45826
:1021D000D1090FB6F894DEBF0FBECDBF10926002DA
:1021E00010925F0288EE93E0A0E0B0E0809361027D
:1021F00090936202A0936302B093640229E631E0F7
:1022000030935E0220935D0225EC30E030936A0249
:102210002093690224EC30E030936C0220936B022F
:1022200020EC30E030936E0220936D0221EC30E020
:102230003093700220936F0222EC30E030937202F0
:102240002093710226EC30E03093740220937302E5
:102250001092760210927702109278021092790210
:1022600010929B0310929A0380939C0390939D037A
:10227000A0939E03B0939F038BE791E09093990303
:10228000809398031092A7071092A60783E493E027
:10229000909325088093240810922608109227080E
:1022A0001092C1078DE891E09093A5078093A40751
:1022B0001092A9071092A8071092BD071092C007AC
:1022C0001092B4071092B5071092B6071092B70794
:1022D0008FEF8093BE078093C307E7ECF7E01FEF13
:1022E000819397E0ED3DF907D1F784E092E0909378
:1022F000AD078093AC0780ED94E09093AF07809397
:10230000AE078AE094E09093B1078093B00784EC25
:1023100095E09093B3078093B20720E030E040E06F
:1023200069E088EA97E00E9404021092F507109293
:10233000F40780EA93E09093DE078093DD0784EA58
:1023400093E09093E2078093E10788E08093E307AE
:102350001092E407109201081092210881E0809306
:1023600022088093230881EA91E09093E00780930C
:10237000DF0788EA97E00E945A031092F007109254
:10238000F2071093F1071093F307E091DF07F09144
:10239000E0070280F381E02D88EA97E009958CEF51
:1023A00093E09093F7078093F6071092040882E178
:1023B0008093D30781E18093D4071092D207809154
:1023C000A6079091A7079C838B838DE891E09A8361
:1023D00089838CE7E8EAF7E0DE01159601900D921B
:1023E0008A95E1F78091240890912508CF57DF4F17
:1023F00099838883C158D04080912608CD57DF4FFC
:102400008883C358D04080912708CC57DF4F8883FA
:10241000C458D040CE0101960E948A10CC57DF4F9D
:102420000FB6F894DEBF0FBECDBFDF91CF911F91E5
:1024300008950E942D120C9415130E940E1358F04B
:102440000E94071340F029F45F3F29F00C94FE121C
:1024500051110C9449130C9404130E94261368F331
:102460009923B1F3552391F3951B550BBB27AA274D
:1024700062177307840738F09F5F5F4F220F331F87
:10248000441FAA1FA9F335D00E2E3AF0E0E832D04F
:1024900091505040E695001CCAF72BD0FE2F29D052
:1024A000660F771F881FBB1F261737074807AB0724
:1024B000B0E809F0BB0B802DBF01FF2793585F4F99
:1024C0003AF09E3F510578F00C94FE120C9449139B
:1024D0005F3FE4F3983ED4F3869577956795B7957B
:1024E000F7959F5FC9F7880F911D9695879597F986
:1024F0000895E1E0660F771F881FBB1F62177307FF
:102500008407BA0720F0621B730B840BBA0BEE1F13
:1025100088F7E09508950E9492126894B1110C9486
:10252000491308950E942E1388F09F5798F0B92FF1
:102530009927B751B0F0E1F0660F771F881F991FF8
:102540001AF0BA95C9F714C0B13091F00E9448133F
:10255000B1E008950C944813672F782F8827B85F4F
:1025600039F0B93FCCF3869577956795B395D9F750
:102570003EF490958095709561957F4F8F4F9F4F5A
:102580000895E89409C097FB3EF490958095709566
:1025900061957F4F8F4F9F4F9923A9F0F92F96E9AF
:1025A000BB279395F695879577956795B795F11124
:1025B000F8CFFAF4BB0F11F460FF1BC06F5F7F4FC1
:1025C0008F4F9F4F16C0882311F096E911C07723D3
:1025D00021F09EE8872F762F05C0662371F096E8DC
:1025E000862F70E060E02AF09A95660F771F881FAB
:1025F000DAF7880F9695879597F9089597F99F6769
:1026000080E870E060E008959FEF80EC089500247A
:102610000A941616170618060906089500240A9447
:1026200012161306140605060895092E0394000CCD
:1026300011F4882352F0BB0F40F4BF2B11F460FF5C
:1026400004C06F5F7F4F8F4F9F4F089557FD905885
:10265000440F551F59F05F3F71F04795880F97FB66
:10266000991F61F09F3F79F0879508951216130620
:102670001406551FF2CF4695F1DF08C0161617064F
:102680001806991FF1CF8695710561050894089584
:10269000E894BB2766277727CB0197F908950E9416
:1026A00062130C9415130E94071338F00E940E1346
:1026B00020F0952311F00C94FE120C9404131124B5
:1026C0000C9449130E94261370F3959FC1F3950F44
:1026D00050E0551F629FF001729FBB27F00DB11DA6
:1026E000639FAA27F00DB11DAA1F649F6627B00D36
:1026F000A11D661F829F2227B00DA11D621F739F1F
:10270000B00DA11D621F839FA00D611D221F749F2C
:102710003327A00D611D231F849F600D211D822F73
:10272000762F6A2F11249F5750409AF0F1F088239A
:102730004AF0EE0FFF1FBB1F661F771F881F9150C7
:102740005040A9F79E3F510580F00C94FE120C9466
:1027500049135F3FE4F3983ED4F3869577956795E8
:10276000B795F795E7959F5FC1F7FE2B880F911DF1
:102770009695879597F90895A1E21A2EAA1BBB1B7F
:10278000FD010DC0AA1FBB1FEE1FFF1FA217B3073D
:10279000E407F50720F0A21BB30BE40BF50B661F53
:1027A000771F881F991F1A9469F760957095809517
:1027B00090959B01AC01BD01CF010895EE0FFF1F65
:1027C0000590F491E02D099481E090E0F8940C9448
:1027D000F013DC0101C06D9341505040E0F70895C3
:0427E000F894FFCF9B
:1027E4001815A015C019FF1815A115C819FF18153B
:1027F400AE19FF1815AF19FF1815AE15D5168015AB
:10280400A8163F15D316001540158D16141520165D
:102814000015A115C815DA1612158116CF15D9168B
:10282400F115DB1640152E15A415A619FF00011489
:102834000A6464323200127A0000042896100800F8
:10284400008000400000000000110DA90AD30A5EB8
:102854000D8C00E20AF60A000000006A015F019F85
:1028640004510158015501520100000000F9087695
:10287400049F049E0400000000A204A90A9F049E71
:10288400045A0305084D034C4546545F424F5454C3
:102894004F4D3A20004C4546545F544F503A200067
:0428A4000D0A000019
:107800000C94343C0C94513C0C94513C0C94513CE1
:107810000C94513C0C94513C0C94513C0C94513CB4
:107820000C94513C0C94513C0C94513C0C94513CA4
:107830000C94513C0C94513C0C94513C0C94513C94
:107840000C94513C0C94513C0C94513C0C94513C84
:107850000C94513C0C94513C0C94513C0C94513C74
:107860000C94513C0C94513C11241FBECFEFD8E036
:10787000DEBFCDBF11E0A0E0B1E0ECE9FFE702C060
:1078800005900D92A230B107D9F712E0A2E0B1E065
:1078900001C01D92AD30B107E1F70E942D3D0C945F
:1078A000CC3F0C94003C982F959595959595959582
:1078B000905D8F708A307CF0282F295A8091C0000B
:1078C00085FFFCCF9093C6008091C00085FFFCCF60
:1078D0002093C6000895282F205DF0CF982F809127
:1078E000C00085FFFCCF9093C6000895EF92FF92F1
:1078F0000F931F93EE24FF2487018091C00087FD22
:1079000017C00894E11CF11C011D111D81E4E8164B
:1079100082E4F8068FE0080780E0180770F3E09132
:107920000401F091050109958091C00087FFE9CF1E
:107930008091C6001F910F91FF90EF9008950E94D3
:10794000763C982F8091C00085FFFCCF9093C600B5
:1079500091362CF490330CF09053892F089597555D
:10796000892F08951F930E949F3C182F0E949F3CCF
:107970001295107F810F1F9108951F93182F882350
:1079800021F00E94763C1150E1F71F9108951F935A
:10799000182F0E94763C803249F0809103018F5F5E
:1079A000809303018530C1F01F9108958091C0003C
:1079B00085FFFCCF84E18093C6008091C00085FFE5
:1079C000FCCF1093C6008091C00085FFFCCF80E102
:1079D0008093C6001F910895E0910401F091050184
:1079E00009951F9108950E94763C803241F0809164
:1079F00003018F5F80930301853081F008958091AA
:107A0000C00085FFFCCF84E18093C6008091C00058
:107A100085FFFCCF80E18093C6000895E0910401CA
:107A2000F09105010995089540E951E08823A1F0FE
:107A30002D9A28EE33E0FA013197F1F721503040CA
:107A4000D1F72D9828EE33E0FA013197F1F7215064
:107A50003040D1F7815061F708953F924F925F9285
:107A60006F927F928F929F92AF92BF92CF92DF924E
:107A7000EF92FF920F931F93CF93DF93000080E16B
:107A80008093C4001092C50088E18093C10086E015
:107A90008093C2005098589A259A81E00E94143D24
:107AA00024E1F22E9EE1E92E85E9D82E0FE0C02ECA
:107AB00010E1B12EAA24A394B1E49B2EA6E58A2E50
:107AC000F2E57F2EE0E26E2E79E4572E63E5462E36
:107AD00050E5352E0E94763C8033B1F18133B9F107
:107AE000803409F46FC0813409F476C0823409F41B
:107AF00085C0853409F488C0803531F1823521F1A3
:107B0000813511F1853509F485C0863509F48DC0BC
:107B1000843609F496C0843709F403C1853709F423
:107B200072C1863709F466C0809103018F5F80932C
:107B30000301853079F6E0910401F0910501099582
:107B40000E94763C803351F60E94F33CC3CF0E94E2
:107B5000763C803249F78091C00085FFFCCFF092DF
:107B6000C6008091C00085FFFCCF9092C600809136
:107B7000C00085FFFCCF8092C6008091C00085FFC9
:107B8000FCCF7092C6008091C00085FFFCCF609250
:107B9000C6008091C00085FFFCCF5092C600809146
:107BA000C00085FFFCCF4092C6008091C00085FFD9
:107BB000FCCF3092C6008091C00085FFFCCFB09210
:107BC000C60088CF0E94763C863808F4BDCF0E945C
:107BD000763C0E94F33C7ECF0E94763C803809F4CC
:107BE0009CC0813809F40BC1823809F43CC1883942
:107BF00009F48FC080E00E94C73C6CCF84E10E94F2
:107C0000BD3C0E94F33C66CF85E00E94BD3C0E94D3
:107C1000F33C60CF0E94763C809306010E94763C44
:107C2000809307010E94F33C55CF0E94763C80333D
:107C300009F41DC183E00E94BD3C80E00E94C73C66
:107C400049CF0E94763C809309020E94763C809343
:107C5000080280910C028E7F80930C020E94763C79
:107C6000853409F415C18091080290910902892B8D
:107C700089F000E010E00E94763CF801E85FFE4FDA
:107C800080830F5F1F4F80910802909109020817AF
:107C9000190788F30E94763C803209F045CF809125
:107CA0000C0280FF01C16091060170910701660F0F
:107CB000771F7093070160930601A0910802B091AD
:107CC00009021097C9F0E8E0F1E09B01AD014E0F09
:107CD0005F1FF999FECF32BD21BD819180BDFA9A17
:107CE000F99A2F5F3F4FE417F50799F76A0F7B1F4B
:107CF00070930701609306018091C00085FFFCCF5F
:107D0000F092C6008091C00085FFFCCFB092C60003
:107D1000E1CE83E00E94C73CDDCE82E00E94C73CFA
:107D2000D9CE0E94763C809309020E94763C8093D3
:107D300008028091060190910701880F991F909386
:107D40000701809306010E94763C853409F4A6C0A1
:107D500080910C028E7F80930C020E94763C8032D0
:107D600009F0B8CE8091C00085FFFCCFF092C6002C
:107D7000609108027091090261157105B9F140E046
:107D800050E080910C02A82FA170B82FB27011C0E2
:107D9000BB2309F45CC0E0910601F0910701319624
:107DA000F0930701E09306014F5F5F4F46175707B7
:107DB000E8F4AA2369F3F999FECF209106013091E6
:107DC000070132BD21BDF89A90B58091C00085FFB2
:107DD000FCCF9093C6002F5F3F4F30930701209355
:107DE00006014F5F5F4F4617570718F38091C00099
:107DF00085FDE5CE8091C00085FFF8CFE0CE81E023
:107E00000E94C73C67CE0E94763C803209F08CCE3F
:107E10008091C00085FFFCCFF092C6008091C00029
:107E200085FFFCCFE092C6008091C00085FFFCCFAB
:107E3000D092C6008091C00085FFFCCFC092C600E2
:107E40008091C00085FFFCCFB092C60043CEE09188
:107E50000601F091070194918091C00085FFFCCF4D
:107E60009093C6009CCF80E10E94C73C33CE0E9415
:107E7000763C0E94763C182F0E94763C112309F430
:107E800083C0113009F484C08FE00E94C73C22CE29
:107E900080910C02816080930C02E5CE80910C02EF
:107EA000816080930C0259CF809107018823880F4D
:107EB000880B8A2180930B02809106019091070123
:107EC000880F991F90930701809306018091080203
:107ED00080FF09C080910802909109020196909359
:107EE000090280930802F894F999FECF1127E091D6
:107EF0000601F0910701C8E0D1E08091080290915D
:107F00000902103091F40091570001700130D9F34B
:107F100003E000935700E89500915700017001308D
:107F2000D9F301E100935700E89509901990009169
:107F3000570001700130D9F301E000935700E89534
:107F40001395103498F011270091570001700130FB
:107F5000D9F305E000935700E895009157000170B0
:107F60000130D9F301E100935700E895329602976A
:107F700009F0C7CF103011F00296E5CF112480919F
:107F8000C00085FFB9CEBCCE8EE10E94C73CA2CD19
:0C7F900085E90E94C73C9ECDF894FFCF0D
:027F9C00800063
:040000030000780081
:00000001FF