:100000000C9462000C948A000C948A000C948A0070
:100010000C948A000C948A000C948A000C948A0038
:100020000C948A000C948A000C948A000C948A0028
:100030000C948A000C948A000C948A000C948A0018
:100040000C9493030C948A000C94A8020C948202E2
:100050000C948A000C948A000C948A000C948A00F8
:100060000C94DD030C948A0000000000240027009B
:100070002A0000000000250028002B0004040404CE
:100080000404040402020202020203030303030342
:10009000010204081020408001020408102001021F
:1000A00004081020000000080002010000030407FB
:1000B00000000000000000000000000023002600F7
:1000C0002900AC0F11241FBECFEFD8E0DEBFCDBF9B
:1000D00011E0A0E0B1E0E8E0FBE202C005900D9283
:1000E000A23BB107D9F727E0A2EBB1E001C01D9216
:1000F000A63FB207E1F710E0C2E6D0E004C02197C6
:10010000FE010E948612C136D107C9F70E942B0E4C
:100110000C9482150C940000CF92DF92EF92FF9224
:100120000F931F93CF93DF936C017A018B01C0E093
:10013000D0E0CE15DF0581F0D8016D918D01D6019B
:10014000ED91FC910190F081E02DC6010995892B7C
:1001500011F02196EECF7E01C701DF91CF911F9163
:100160000F91FF90EF90DF90CF900895FC01538D99
:10017000448D252F30E0842F90E0821B930B541781
:1001800010F0CF96089501970895FC01918D828D0E
:10019000981761F0828DDF01A80FB11D5D968C91DB
:1001A000928D9F5F9F73928F90E008958FEF9FEFE6
:1001B0000895FC01918D828D981731F0828DE80FA2
:1001C000F11D858D90E008958FEF9FEF0895FC015C
:1001D000918D228D892F90E0805C9F4F821B910929
:1001E0008F739927089587E292E00E94E70021E04B
:1001F000892B09F420E0822F0895FC01848DDF0112
:10020000A80FB11DA35ABF4F2C91848D90E0019689
:100210008F739927848FA689B7892C93A089B18978
:100220008C91837080648C93938D848D981306C019
:100230000288F389E02D80818F7D80830895EF927D
:10024000FF920F931F93CF93DF93EC0181E0888F90
:100250009B8D8C8D981305C0E889F989808185FD77
:1002600026C0F62E0B8D10E00F5F1F4F0F73112766
:10027000E02E8C8DE8120CC00FB607FCFACFE8898F
:10028000F989808185FFF5CFCE010E94FD00F1CF75
:100290008B8DFE01E80FF11DE35AFF4FF0829FB7EF
:1002A000F8940B8FEA89FB89808180620AC09FB72E
:1002B000F894EE89FF896083E889F98980818370E9
:1002C000806480839FBF81E090E0DF91CF911F9198
:1002D0000F91FF90EF900895CF93DF93EC01888DFD
:1002E0008823C9F0EA89FB89808185FD05C0A8893A
:1002F000B9898C9186FD0FC00FB607FCF5CF8081C0
:1003000085FFF2CFA889B9898C9185FFEDCFCE0109
:100310000E94FD00E7CFDF91CF91089580E090E04B
:10032000892B29F00E94F30081110C94000008959C
:1003300085ED8093BC008091BC0084FDFCCF1092C1
:10034000F80108954091D401262F30E0240F311D8B
:1003500021323105DCF42091F8012430C9F4FC018C
:1003600080E090E0861758F43091D4012191DC01AF
:10037000AC54BE4FA30FB11D2C930196F3CF8091C7
:10038000D401680F6093D40180E0089581E008955E
:1003900082E0089508958FEF9FEF08958FEF9FEF0C
:1003A00008958091B30190E0919581959109089508
:1003B000CF93DF93CB01EA01642F0E94A201CE010B
:1003C000DF91CF910895CF93DF931F92CDB7DEB722
:1003D000698361E0CE0101960E94A20181E090E074
:1003E0000F90DF91CF91089580E008950E948C12C4
:1003F000EF92FF921F93CF93DF93EC01162F7A01B8
:100400000E94E60860E4CE010E94F008E885F985C4
:100410009701412F67E1CE010995CE01DF91CF9180
:100420001F91FF90EF900C94DC08EF92FF921F93C6
:10043000CF93DF93EC01142F7901663121F128F479
:100440006431E9F1653149F056C0683109F44FC0B3
:10045000F0F0693109F444C04EC08091B2018823A4
:1004600019F0CE010E94DC08CE010E94E60860E08F
:10047000CE010E94F008612FCE010E94F00881E0B9
:100480008093B20139C0642F0E94F00832C080917D
:10049000B201882319F0CE010E94DC08A7011931AE
:1004A00048F068E1CE010E94F801185188E1E80E99
:1004B000F11CF4CF612FCE010E94F80118C08E8983
:1004C0008F3F11F488E78E8BE885F9859701412FDE
:1004D00064E1CE01DF91CF911F91FF90EF900994DD
:1004E0008091B201882319F0CE010E94DC0810929D
:1004F000B20181E001C080E0DF91CF911F91FF90B8
:10050000EF9008951F920F920FB60F9211242F9320
:100510003F934F935F936F937F938F939F93AF938B
:10052000BF93EF93FF9387E292E00E94FD00FF915B
:10053000EF91BF91AF919F918F917F916F915F915B
:100540004F913F912F910F900FBE0F901F901895D4
:100550001F920F920FB60F9211242F938F939F9398
:10056000EF93FF93E0913702F09138028081E091A0
:100570003D02F0913E0282FD12C0908180914002C6
:100580008F5F8F7320914102821751F0E0914002FA
:10059000F0E0E95DFD4F958F8093400201C08081BE
:1005A000FF91EF919F918F912F910F900FBE0F9020
:1005B0001F901895833081F028F4813099F08230B3
:1005C000A1F008958730A9F08830B9F08430D1F4D3
:1005D000809180008F7D03C0809180008F77809311
:1005E0008000089584B58F7702C084B58F7D84BD67
:1005F00008958091B0008F7703C08091B0008F7D07
:100600008093B00008951F93CF93DF93282F30E09D
:10061000F901EC55FF4F8491F901E057FF4FD49158
:10062000F901E458FF4FC491CC23C1F0162F81117A
:100630000E94DA02EC2FF0E0EE0FFF1FEE58FF4FA2
:10064000A591B4919FB7F894111104C08C91D095E5
:10065000D82302C0EC91DE2BDC939FBFDF91CF91BA
:100660001F910895CF93DF9390E0FC01E057FF4F77
:100670002491FC01E458FF4F8491882361F190E0BC
:10068000880F991FFC01E859FF4FC591D491FC01D7
:10069000EE58FF4FA591B491611109C09FB7F8942E
:1006A0008881209582238883EC912E230BC06230B1
:1006B00061F49FB7F8948881322F30958323888323
:1006C000EC912E2B2C939FBF06C08FB7F894E88136
:1006D0002E2B28838FBFDF91CF9108953FB7F894D9
:1006E00080911F0290912002A0912102B0912202DC
:1006F00026B5A89B05C02F3F19F00196A11DB11D7D
:100700003FBFBA2FA92F982F8827820F911DA11DB7
:10071000B11DBC01CD0142E0660F771F881F991FF4
:100720004A95D1F708951F920F920FB60F92112498
:100730002F933F938F939F93AF93BF938091230207
:1007400090912402A0912502B091260230911E02C0
:1007500023E0230F2D3720F40196A11DB11D05C004
:1007600026E8230F0296A11DB11D20931E0280933F
:10077000230290932402A0932502B0932602809135
:100780001F0290912002A0912102B09122020196B5
:10079000A11DB11D80931F0290932002A0932102FE
:1007A000B0932202BF91AF919F918F913F912F9172
:1007B0000F900FBE0F901F9018951F920F920FB6BB
:1007C0000F9211242F933F934F935F936F937F93D7
:1007D0008F939F93AF93BF93EF93FF938091B90053
:1007E000887F803609F49CC068F5883209F45BC0C4
:1007F00090F4803109F454C038F4882309F4F2C02D
:10080000883009F44DC0F2C0883109F44CC0803200
:1008100009F45DC0EBC0803409F468C048F480334B
:1008200009F455C0883309F0E1C08093F701D4C0C2
:10083000803509F44FC0883509F45DC0883409F06B
:10084000D5C0D2C0883909F4C3C0A8F4883709F4E8
:1008500067C038F4883609F463C0803709F460C093
:10086000C5C0883809F4B4C0803909F45FC0803845
:1008700009F0BCC05BC0803B09F484C038F4803A06
:1008800009F466C0883A09F47DC0B0C0803C09F420
:10089000A3C0883C09F4A0C0883B09F486C0A6C068
:1008A00080911D0210C090911C0280911B0298172C
:1008B00070F5E0911C0281E08E0F80931C02F0E045
:1008C000E550FE4F80818093BB0085EC82C0809311
:1008D000F7018AC0E0911C0281E08E0F80931C0218
:1008E0008091BB00F0E0E550FE4F808390911C02A8
:1008F00080911B026AC0E0911C0281E08E0F809300
:100900001C028091BB00F0E0E550FE4F8083809197
:10091000FA01811169C081E08093F90184EA5DC028
:1009200083E08093F8011092F601CFCF8091F60119
:10093000803208F04DC0E091F60181E08E0F809387
:10094000F6018091BB00F0E0EA52FE4F8083BDCFFC
:1009500085EC8093BC001092F8018091F601803202
:1009600030F4E091F601F0E0EA52FE4F108260911F
:10097000F60170E086ED91E0E0E0F0E0099510927C
:10098000F60134C084E08093F8011092D5011092F2
:10099000D401E0E0F0E009958091D401811105C017
:1009A00081E08093D4011092B401E091D50181E0FF
:1009B0008E0F8093D501F0E0EC54FE4F8081809340
:1009C000BB009091D5018091D401981708F47DCF98
:1009D00085E88093BC000AC085EC8093BC0010922F
:1009E000F80104C01092F7010E949801FF91EF9165
:1009F000BF91AF919F918F917F916F915F914F9137
:100A00003F912F910F900FBE0F901F901895DC0112
:100A10001A96ED91FC911B9720E030E00994EF923B
:100A2000FF920F931F93CF93DF93EC01142F790163
:100A30006D30A9F118F46B3039F15FC06E3009F4F4
:100A400041C06F3009F059C00E946708F7018381E7
:100A50000C89F8E08F9F000D112460E4CE010E9404
:100A6000D208602F62956F706061CE010E94D2083B
:100A7000602F6F70CE010E94C808F7016481606B1F
:100A8000CE010E94C80829C0411103C063E171E092
:100A900002C06EE071E0CE010E947A0871C041117F
:100AA00008C067E071E00E947A08E881F9818289D4
:100AB00007C060E071E00E947A08E881F9818389CB
:100AC0008C8B5EC00E94670861E8CE010E94D2084C
:100AD000612FCE010E94C8080CC0F70140815181EE
:100AE0006281660F660F660FCE010E947108115079
:100AF000A1F7CE010E945D0843C0693031F48DE456
:100B000091E0998388831C8A3BC06A30B9F5EA85F5
:100B1000FB8520E030E040E068E2CE010995EE81FF
:100B2000FF8120E030E040E064E1CE01099541E042
:100B30006BE4CE010E940705E881F981448169E2F6
:100B4000CE010E94070540E06BE4CE010E9407053C
:100B5000E881F981448169E2CE010E94070541E004
:100B60006BE4CE010E940705E881F981458169E2C5
:100B7000CE010E94070568E171E08DCF80E001C0E1
:100B800081E0DF91CF911F910F91FF90EF90089539
:100B9000662329F06A3019F0862F90E008958FEFD0
:100BA0009FEF08950F93DC01DF963C91DF97431B85
:100BB000D596ED91FC91D69709950F910895CF9315
:100BC000DF93FC01A081B18193AD892F880F880F3D
:100BD000880F86AF50968C915097803208F08FE145
:100BE000880F880F880F85AF24AD822F880F880F5C
:100BF000880F87AF51963C915197422F50E0490F93
:100C0000511D632F70E06417750714F4932F921B26
:100C1000EF01C05CDF4F8883219628E0929F800D12
:100C200011248883219680EF888354968D919C911E
:100C30005597813F910508F48883ED5BFF4F5696E9
:100C40008C918083DF91CF910895EF92FF920F9363
:100C50001F93CF93DF93EC01742F7770E1E0F0E006
:100C6000072E01C0EE0F0A94EAF73E2F7C018AE7B7
:100C7000E80EF11CD7018C91823028F41E2F8130B0
:100C800019F430E001C010E050E0487F89AD9AAD22
:100C9000A881B9815096FC91F49FD001F59FB00DC9
:100CA0001124A60FB11DA80FB91F01110BC08C9103
:100CB000812B83278D932150D1F71CC0110F330F47
:100CC0002223C1F09C91912B93279C937F5F777097
:100CD00021507111F3CF8DADA80FB11DF7018081A7
:100CE000823020F4813021F031E002C031E0E8CFE1
:100CF00011E0E6CFDF91CF911F910F91FF90EF9020
:100D0000089580E00895FC01E60FF11D849190E0C4
:100D1000982F88273196E4918E0F911D0895CF92D8
:100D2000DF92EF92FF920F931F93CF93DF936C01AB
:100D3000EB017B01E40EF51E00E010E0CE15DF05AF
:100D400061F06991D601ED91FC910190F081E02D67
:100D5000C6010995080F191FF1CFC801DF91CF9186
:100D60001F910F91FF90EF90DF90CF90089508951D
:100D700080E090E0089541E06DE40C940705DC010B
:100D8000ED91FC9145856DE20C940705CF93DF93BF
:100D9000EC0141E06CE40E940705CE01DF91CF91A8
:100DA0000C94BF06CF93DF93EC01662319F00E94E9
:100DB000BB0604C040E06DE40E940705CE010E941E
:100DC000BF06CE010E94C60640E06CE4CE01DF9172
:100DD000CF910C9407051F93CF93DF93EC01162F4F
:100DE00060780E94D206612F6074CE010E94D20604
:100DF000612F6072CE010E94D206612F6071CE0118
:100E00000E94D206612F6870CE010E94D206612F27
:100E10006470CE010E94D206612F6270CE010E94E2
:100E2000D206612F6170CE010E94D206CE010E94CF
:100E3000BB06CE010E94BF06CE010E94C606CE01AF
:100E40000E94BB06CE010E94BF0640E06CE4CE01CA
:100E5000DF91CF911F910C940705EF92FF921F93A2
:100E6000CF93DF93EC01142F7901683129F128F435
:100E70006431A9F0673141F055C0693109F43FC0D0
:100E8000603209F44DC04EC0112309F449C0F70186
:100E900061917F01CE010E94EB061150F5CF41E038
:100EA0006CE40E94070541E06DE4CE010E94070555
:100EB000CE010E94BF0634C08F89882349F0CE013D
:100EC0000E94BB06CE010E94BF06CE010E94C6064C
:100ED000CE010E94BB0640E06DE4CE010E940705F2
:100EE000CE010E94BF0640E06CE4CE010E940705DF
:100EF00081E08F8B6E89CE010E94EB0611C040E02D
:100F00006DE40E940705CE010E94BF06CE010E943B
:100F1000C606CE010E94BB06CE010E94BF061F8AF4
:100F200081E001C080E0DF91CF911F91FF90EF90B1
:100F300008958F929F92AF92BF92CF92DF92EF92DD
:100F4000FF921F93CF93DF93EC016C3288F46A32E7
:100F500008F0A4C06832B9F0693209F06DC0C42E3F
:100F6000D12CE12CF12C0E946E034B015C013DC0A1
:100F70006D3209F440C008F45FC084EB860F823004
:100F800008F448C059C07C012FE1E20EF11CD0E00A
:100F9000F70181917F018F3F39F0D03110F461E08A
:100FA00001C062E00E943203DF5FD63189F776C06C
:100FB0000E946E03DC01CB0188199909AA09BB09BB
:100FC000883E9340A105B10580F0F1E0CF1AD10829
:100FD000E108F10828EE820E23E0921EA11CB11C4C
:100FE000C114D104E104F10419F7C114D104E104DE
:100FF000F104F1F653C0433018F082E090E002C0F3
:1010000085E090E0880F991F880F991F0597019739
:10101000F1F744C0862F8F73C80FD11D411107C04F
:1010200061E08F8D0E94320360E08F8D13C062E01B
:101030008F8D0E94320332C0603408F431C0962F85
:101040009F73FE01E90FF11D878D8F3F39F19031BC
:1010500020F4642F0E94030321C0282F30E0F901FF
:10106000EC55FF4F8491F901E057FF4FF490F901DF
:10107000E458FF4F1491112379F081110E94DA0294
:10108000E12FF0E0EE0FFF1FE854FF4FA591B49160
:10109000EC91EF2181E009F480E08A8F81E001C0CA
:1010A00080E0DF91CF911F91FF90EF90DF90CF9084
:1010B000BF90AF909F908F900895DC011696ED91B0
:1010C000FC91179720E030E040E069E10994DC01F1
:1010D0001696ED91FC91179720E030E040E068E132
:1010E00009949A01DC011696ED91FC911797462F11
:1010F00067E10994EF92FF920F931F93CF93DF93D1
:101100001F92CDB7DEB77C018B01D8016C9167319E
:10111000E1F078F46531A0F1F80141814983D7010C
:101120001696ED91FC91179720E030E0C7010995E4
:1011300024C06A31A8F06E3F19F5F8014181498356
:1011400069E2C7010E94070518C0F80181818983FF
:10115000AE014F5F5F4F61E0C7010E9471080DC093
:101160000F5F1F4FD7011696ED91FC91179720E066
:1011700030E040E0C7010995C8CF0E5F1F4FC5CFD3
:101180000F90DF91CF911F910F91FF90EF900895F5
:10119000462FDC011696ED91FC91179720E030E088
:1011A00066E10994462FDC011696ED91FC911797A4
:1011B00020E030E065E10994DC011896ED91FC91A6
:1011C000199720E030E040E069E10994DC011896CD
:1011D000ED91FC91199720E030E040E068E109943E
:1011E000CF93DF931F92CDB7DEB76983BE016F5FE8
:1011F0007F4F0E94220E0F90DF91CF9108950F93A1
:10120000FC01EA5BFF4F308131965081451728F48D
:10121000301730F0041720F010C03017D8F30DC08D
:10122000FC01EC5BFF4F308131968081681738F408
:10123000321740F081E0261730F080E004C032170A
:10124000C8F3FBCF81E00F9108952F923F924F9208
:101250005F926F927F928F929F92AF92BF92CF9246
:10126000DF92EF92FF920F931F93CF93DF93EC01E6
:101270004C0184E4880E911CF40110823297208086
:101280005E01F5E4AF0EB11CF50120823597308088
:101290006E01F6E4CF0ED11CF60130823597408006
:1012A0007E01F7E4EF0EF11CF701408234961081C5
:1012B000329760803196708032975080012F262DB2
:1012C000472D652DCE010E94FF08CC58DF4F8111BC
:1012D00002C0188212C081E08883552011F0F40109
:1012E0005082621410F4F5016082371410F4F60194
:1012F0007082141510F4F7011083DF91CF911F91C4
:101300000F91FF90EF90DF90CF90BF90AF909F90A4
:101310008F907F906F905F904F903F902F900895A7
:101320000F93DC01802FFD01EC58FF4F9081992332
:1013300009F463C0222309F460C0223048F002306F
:1013400019F46F5F621B04C0033011F44F5F421B3E
:10135000082F0170FD0180FD25C0EA5BFF4F8081F1
:10136000481708F44AC031968081481708F045C0F4
:101370003297908131978081260F261730F46917B4
:1013800018F42FEF290F03C0682F6917B0F58217E3
:10139000A0F5681708F4682F291708F4922F292F51
:1013A000261B22C0EC5BFF4F8081681730F131961D
:1013B0008081681710F53296908131978081240FD3
:1013C000241730F4491718F42FEF290F03C0482FC2
:1013D000491798F4821788F4481708F4482F2917FA
:1013E00008F4922F292F241BD796ED91FC91D897C2
:1013F0000480F581E02DCD0109950F9108952130EC
:1014000039F020F0223031F4861B0895860F0895BC
:10141000841B0895840F0895213039F020F0223084
:1014200031F4841B0895840F0895860F0895861B58
:1014300008952F923F924F925F926F927F928F9278
:101440009F92AF92BF92CF92DF92EF92FF920F9353
:101450001F93CF93DF93EC016C0124E0C20ED11CEB
:10146000FC01E058FF4F0190F081E02DC601099585
:101470007C018EEFE8168FEFF80608F075C1FE01CB
:10148000ED57FF4F10814E0192E8890E911CF40137
:101490000081B29780818130C9F070F0823001F113
:1014A000833039F5FE01EE5AFF4F0190F081E02DB7
:1014B000C6010995080F1DC0FE01EE5AFF4F0190AD
:1014C000F081E02DC6010995180F13C0FE01EE5AF8
:1014D000FF4F0190F081E02DC6010995081B09C05E
:1014E000FE01EE5AFF4F0190F081E02DC6010995F3
:1014F000181BFE01EA5AFF4F00833196108337977D
:10150000808191814796FFEFEF16F10409F040F5D5
:1015100021E6E216F10420F0FE01EC58FF4F07C06F
:10152000E1E4EE16F10438F0FE01EE58FF4F2081A1
:101530003181820F931F9C012F5F3F4FF90144912E
:10154000442309F40FC1FC01449150E0E416F50670
:1015500011F4029634C0F9012491820F911DEBCF52
:10156000FE01EA58FF4FA080B180A80EB91E850188
:1015700060E0C5010E948306080F191F62E0C501E3
:101580000E948306F4E0AF0EB11C8E159F0580F318
:10159000F801849190E0982F88273196E4918E2B62
:1015A000009709F4DFC0E816F90619F4C80103969C
:1015B00006C0F8013296E4910E0F111DE9CF009795
:1015C00009F4D0C07E01F4E5EF0EF11CF701918320
:1015D0008083108671966081C7010E94FF0BF7011E
:1015E000868372966081C7010E94FF0B782EF701F7
:1015F00087835E01FEE7AF0EB11CF5019081F70114
:10160000928781E0911180E0F7018387FE01E9591B
:10161000FF4F1081612FC7010E94FF0B9FEF910FB9
:1016200001E010E0980101C0220F9A95EAF7382EE8
:10163000321AFE01E859FF4F6080662DC7010E94F3
:10164000FF0B6A94280101C0440C6A94EAF7282E23
:10165000270CFE01E759FF4F6080662DC7010E94ED
:10166000FF0B6A9401C0000F6A94EAF7682E601AB3
:10167000F701068110160CF070C054844218252D15
:10168000442D632D82810E94FF09182FF701828368
:10169000252D442D632D83810E940C0AF70183833D
:1016A000F1E05F16B1F05F1678F022E05216B9F063
:1016B00093E059121FC0212F270D982F901B01E096
:1016C000080F81E0890F18C0202F210F082F070D68
:1016D00013C0571821E0210F080F150D0DC091E020
:1016E000392F301B21E0210F971901E0080F890FD6
:1016F000130F02C0082F212F482F612FC6010E940F
:10170000FF08882351F1F701148215828E010D59CB
:101710001F4FCC59DF4FF8016081C7010E94FF0BBA
:10172000482E6881C7010E94FF0B582E40E0642DAF
:10173000C6010E942C0C41E0652DC6010E942C0CB4
:1017400061E0C7010E94FF0B8111F0CFF701858195
:1017500087150CF38285F5018083F4018081680E82
:10176000608202C0612CF9CF81E090E0DF91CF91DF
:101770001F910F91FF90EF90DF90CF90BF90AF90AF
:101780009F908F907F906F905F904F903F902F90A1
:101790000895BF92CF92DF92EF92FF920F931F9323
:1017A000CF93DF937C01B62EC22F102FD1E0D40F40
:1017B000C02EC41AD22ED60E01E02D2F4C2D6D2D29
:1017C0000E949009CB192D2F4C2D6C2FC7010E9420
:1017D00090092D2F412F6D2DC7010E9490092D2FAB
:1017E000412F6C2FC7010E949009DF91CF911F916B
:1017F0000F91FF90EF90DF90CF90BF900895DC01A4
:1018000018964C911897ED91FC911197249130E026
:10181000042E02C0359527950A94E2F7842F860F8F
:10182000883010F4E22F0DC031961196FC93EE93A0
:10183000E49198E0941B01C0EE0F9A95EAF7E22B31
:10184000885018968C9381E090E001C0880F6A95CB
:10185000EAF781508E2308955F926F927F928F9264
:101860009F92AF92BF92CF92DF92EF92FF920F932F
:101870001F93CF93DF935C01162F642EEC01C05BA6
:10188000DF4FDC80ED804C018AE7880E911CFE80E2
:10189000FD18CF2C1F1508F4C12E5B800C85202F5E
:1018A0004E2D6D2D8A810E94FF09782E202F4E2DFE
:1018B0006D2D852D0E940C0A482F662011F08A8517
:1018C00004C08985811108C08B85F40180832C2D8B
:1018D000672DC5010E9490091F1520F01F19E39480
:1018E000D12CD5CF1D0D1C83ED82DF91CF911F919F
:1018F0000F91FF90EF90DF90CF90BF90AF909F90AF
:101900008F907F906F905F900895CF93DF93809337
:101910000803C3E0D3E0E881F9810190F081E02D74
:101920008CEC92E00995E881F9810280F381E02D49
:101930008CEC92E0DF91CF910994E091CC02F09190
:10194000CD02808940910703849FA001112483E088
:10195000440F551F8A95E1F760E070E08091050320
:10196000909106030C949112E091D002F091D10273
:1019700020E030E040E060E18CEC92E00994CF920E
:10198000DF92EF92FF920F931F93CF93DF9300D0DC
:1019900000D01F92CDB7DEB7C090070300910803B7
:1019A000E091CC02F091CD02D188102FE12CF12CE6
:1019B000E091CC02F091CD028089409105035091D5
:1019C00006031C821D838B8328E0829FC0011124A3
:1019D0008E9D90018F9D300D9E9D300D1124CA016A
:1019E000820F931F9A838983E091D002F091D102F4
:1019F0009E012F5F3F4F41E06FE08CEC92E0099534
:101A00001F5F812F801B8C1528F48FEFE81AF80ACE
:101A10001D1570F20F900F900F900F900F90DF91A7
:101A2000CF911F910F91FF90EF90DF90CF9008958D
:101A30005F926F927F928F929F92AF92BF92CF925E
:101A4000DF92EF92FF920F931F93CF93DF937C016E
:101A500080914F038F9380914E038F9380914D031C
:101A60008F9380914C038F9387EA91E09F938F939C
:101A7000CCE5D3E0DF93CF930E9498120990002029
:101A8000E9F72197AE014C5553406CE573E087E2CE
:101A900092E00E948C0042E050E06EEA71E087E242
:101AA00092E00E948C0070904E0310914C03E7016D
:101AB000249607E0070D24E0210F4AEF470D6DEF54
:101AC000610FCE010E94FF084DB75EB7485F5F4FC0
:101AD0000FB6F8945EBF0FBE4DBF811148C0C090D5
:101AE000C402D090C502E090C602F090C7022091D7
:101AF0005003309151034091520350915303C70159
:101B0000B6010E9419120E94551120914C03309188
:101B10004D03620F731F70934D0360934C0320912C
:101B20005403309155034091560350915703C70118
:101B3000B6010E9419120E94551120914E03309156
:101B40004F03620F731F70934F0360934E03DF9137
:101B5000CF911F910F91FF90EF90DF90CF90BF90AA
:101B6000AF909F908F907F906F905F900895A8EDB9
:101B7000AA2EB12CBCE48B2E99249A94E12CF12C42
:101B800009E0C02ED12C612C83E0582E072D212F87
:101B9000462D652DCE010E94C90B63949601275FE7
:101BA0003F4FEC0CFD1C52E1C50ED11CC701880F44
:101BB000991F880D991D181619065CF45A9448E46B
:101BC000A41AB108AC014E195F097A0158E4850ED8
:101BD000911CA216B306D4F65CE6A52EB12C6DE9D5
:101BE000862E99249A94E12CF12C74E2C72ED12CE4
:101BF000E6E05E2E612C072D212F452D662DCE01AE
:101C00000E94C90B639496012C5D3F4FEC0CFD1CA8
:101C100088E4C80ED11CC701880F991F880D991D33
:101C2000181619065CF45A9442E1A41AB108AC01E2
:101C30004E195F097A0152E1850E911CA216B30676
:101C4000D4F64DCF9B01DC011896ED91FC911997CC
:101C500041E067E10994CF93DF93CDB7DEB7C45875
:101C6000D1090FB6F894DEBF0FBECDBF789484B50E
:101C7000826084BD84B5816084BD85B5826085BD88
:101C800085B5816085BD80916E00816080936E0016
:101C90001092810080918100826080938100809108
:101CA00081008160809381008091800081608093B9
:101CB00080008091B10084608093B1008091B00079
:101CC00081608093B00080917A00846080937A0074
:101CD00080917A00826080937A0080917A0081609E
:101CE00080937A0080917A00806880937A001092C5
:101CF000C100E091D002F091D10220E030E040E05C
:101D00006AE08CEC92E009958091470381110E9472
:101D10009D0C80E00E94850C0E94BF0C109108036E
:101D200080910703180FE091CC02F091CD028189D8
:101D3000181708F448C00E94B40C80E00E94850C7B
:101D4000E091D002F091D10220E030E040E06BE081
:101D50008CEC92E00995E0913702F091380282E034
:101D60008083E0913302F09134021082E0913502D9
:101D7000F09136028FEC808310923F02E0913B029B
:101D8000F0913C0286E08083E0913902F0913A02C2
:101D9000808180618083E0913902F0913A028081F4
:101DA00088608083E0913902F0913A0280818068F6
:101DB0008083E0913902F0913A0280818F7D8083A7
:101DC0000DE811E007C08091470381110E949D0C2E
:101DD000812FA0CF2FB7F8948091230290912402F5
:101DE000A0912502B09126022FBF809358039093B3
:101DF0005903A0935A03B0935B030E949D0C8091FA
:101E0000CA029091CB029C838B831A8309838CE74F
:101E1000ECECF2E0DE01159601900D928A95E1F767
:101E20008091480390914903CF57DF4F998388836E
:101E3000C158D04080914A03CD57DF4F8883C358A3
:101E4000D04080914B03CC57DF4F8883C458D0409B
:101E5000CE0101960E94180D0E94BF0C0E94B40C86
:101E60002FB7F8948091230290912402A09125022B
:101E7000B09126022FBFC0905803D0905903E09034
:101E80005A03F0905B03BC01CD016C197D098E09EA
:101E90009F090E948B1120E030E04AE754E40E9441
:101EA000E3106093C4027093C5028093C6029093BE
:101EB000C7020E948E018ECFE4ECF2E01082118204
:101EC000128213822DE831E03583248310924D0372
:101ED00010924C0310924F0310924E03109258032D
:101EE0001092590310925A0310925B03DC01129670
:101EF0002D913C911397378326832CE7FC01349670
:101F0000ACECB2E001900D922A95E1F7FC01E058AB
:101F1000FF4F20813181309349032093480332964B
:101F2000208120934A033196808180934B0380E087
:101F300090E0A0EAB0E48093500390935103A09303
:101F40005203B09353038093540390935503A0938B
:101F50005603B093570308951F93CF93DF93CDB7E4
:101F6000DEB7C458D1090FB6F894DEBF0FBECDBF9F
:101F700010922A021092290288EE93E0A0E0B0E0CD
:101F800080932B0290932C02A0932D02B0932E02EB
:101F900029E631E0309328022093270225EC30E037
:101FA000309334022093330224EC30E03093360235
:101FB0002093350220EC30E0309338022093370232
:101FC00021EC30E030933A022093390222EC30E0E9
:101FD00030933C0220933B0226EC30E030933E02EB
:101FE00020933D0210924002109241021092420250
:101FF00010924302109269031092680380936A035F
:1020000090936B03A0936C03B0936D038BE791E007
:10201000909367038093660310927507109274077C
:1020200088EC95E09093F3078093F2071092F40701
:102030001092F50710928F078DE891E09093730747
:1020400080937207109277071092760710928B0791
:1020500010928E07109282071092830710928407C5
:10206000109285078FEF80938C0780939107E5E9A5
:10207000F7E01FEF819397E0EB3AF907D1F78FE094
:1020800095E090937B0780937A0785E192E09093A7
:102090007D0780937C078DE297E090937F07809384
:1020A0007E0789E997E0909381078093800720E07D
:1020B00030E040E069E086E797E00E940F0510926B
:1020C000C3071092C20785E296E09093AC07809315
:1020D000AB0782E793E09093B0078093AF0788E067
:1020E0008093B1071092B2071092CF071092EF07BA
:1020F00081E08093F0078093F10781EA91E090936B
:10210000AE078093AD0786E797E00E94DF05109247
:10211000BE071092C0071093BF071093C107E0914C
:10212000AD07F091AE070280F381E02D86E797E0DE
:10213000099581E896E09093C5078093C4071092B3
:10214000D20782E18093A10781E18093A2071092D8
:10215000A00780917407909175079C838B838DE80D
:1021600091E09A8389838CE7E6E7F7E0DE01159634
:1021700001900D928A95E1F78091F2079091F30713
:10218000CF57DF4F99838883C158D0408091F4079F
:10219000CD57DF4F8883C358D0408091F507CC5787
:1021A000DF4F8883C458D040CE0101960E945C0F57
:1021B000CC57DF4F0FB6F894DEBF0FBECDBFDF9117
:1021C000CF911F9108950E94F7100C94DF110E9487
:1021D000D81158F00E94D11140F029F45F3F29F046
:1021E0000C94C81151110C9413120C94CE110E942E
:1021F000F01168F39923B1F3552391F3951B550B17
:10220000BB27AA2762177307840738F09F5F5F4FC9
:10221000220F331F441FAA1FA9F335D00E2E3AF008
:10222000E0E832D091505040E695001CCAF72BD020
:10223000FE2F29D0660F771F881FBB1F2617370771
:102240004807AB07B0E809F0BB0B802DBF01FF27A3
:1022500093585F4F3AF09E3F510578F00C94C811A7
:102260000C9413125F3FE4F3983ED4F38695779570
:102270006795B795F7959F5FC9F7880F911D96955C
:10228000879597F90895E1E0660F771F881FBB1FB8
:10229000621773078407BA0720F0621B730B840B65
:1022A000BA0BEE1F88F7E09508950E945C116894C0
:1022B000B1110C94131208950E94F81188F09F57E1
:1022C00098F0B92F9927B751B0F0E1F0660F771F5A
:1022D000881F991F1AF0BA95C9F714C0B13091F050
:1022E0000E941212B1E008950C941212672F782FF9
:1022F0008827B85F39F0B93FCCF386957795679515
:10230000B395D9F73EF490958095709561957F4F80
:102310008F4F9F4F0895E89409C097FB3EF4909526
:102320008095709561957F4F8F4F9F4F9923A9F0AE
:10233000F92F96E9BB279395F6958795779567953D
:10234000B795F111F8CFFAF4BB0F11F460FF1BC081
:102350006F5F7F4F8F4F9F4F16C0882311F096E914
:1023600011C0772321F09EE8872F762F05C06623C2
:1023700071F096E8862F70E060E02AF09A95660F7B
:10238000771F881FDAF7880F9695879597F9089534
:1023900097F99F6780E870E060E008959FEF80EC18
:1023A000089500240A9416161706180609060895BB
:1023B00000240A9412161306140605060895092E21
:1023C0000394000C11F4882352F0BB0F40F4BF2B90
:1023D00011F460FF04C06F5F7F4F8F4F9F4F0895D0
:1023E00057FD9058440F551F59F05F3F71F04795C6
:1023F000880F97FB991F61F09F3F79F087950895AB
:10240000121613061406551FF2CF4695F1DF08C0C9
:10241000161617061806991FF1CF869571056105E6
:1024200008940895E894BB2766277727CB0197F98E
:1024300008950E942C120C94DF110E94D11138F0E3
:102440000E94D81120F0952311F00C94C8110C941F
:10245000CE1111240C9413120E94F01170F3959F69
:10246000C1F3950F50E0551F629FF001729FBB278B
:10247000F00DB11D639FAA27F00DB11DAA1F649F27
:102480006627B00DA11D661F829F2227B00DA11DDA
:10249000621F739FB00DA11D621F839FA00D611D60
:1024A000221F749F3327A00D611D231F849F600D81
:1024B000211D822F762F6A2F11249F5750409AF0AA
:1024C000F1F088234AF0EE0FFF1FBB1F661F771F36
:1024D000881F91505040A9F79E3F510580F00C9401
:1024E000C8110C9413125F3FE4F3983ED4F3869521
:1024F00077956795B795F795E7959F5FC1F7FE2BA1
:10250000880F911D9695879597F90895EE0FFF1FF7
:102510000590F491E02D099481E090E0F8940C94FA
:102520008215DC0101C06D9341505040E0F70895E1
:10253000AEE0B0E0EEE9F2E10C9459150D891E8988
:1025400086E08C831A8309838FEF9FE79E838D83B8
:10255000AE01475E5F4F6F89788DCE0101960E9474
:10256000BA12EF81F885E00FF11F10822E96E4E099
:102570000C947515ABE0B0E0E0ECF2E10C944B1577
:102580006C017B018A01FC0117821682838181FF25
:10259000CCC1CE0101963C01F6019381F70193FD78
:1025A000859193FF81917F01882309F4BAC1853217
:1025B00039F493FD859193FF81917F01853229F450
:1025C000B60190E00E94B114E7CF912C212C312C60
:1025D000FFE1F315D8F08B3279F038F4803279F0DE
:1025E0008332A1F4232D20611DC08D3261F0803330
:1025F00069F4232D216016C0832D8260382EE32DCF
:10260000E4603E2E2AC0F32DF8601DC037FC2DC0BB
:1026100020ED280F2A3040F08E32B9F436FC81C10B
:10262000232D2064322E19C036FE06C08AE0989E03
:10263000200D1124922E11C0EAE02E9E200D1124AF
:10264000222EF32DF0623F2E08C08C3621F4832D0C
:102650008068382E02C0883641F4F70193FD8591D9
:1026600093FF81917F018111B3CF982F9F7D955466
:10267000933028F40C5F1F4F9FE399830DC083367E
:1026800031F0833771F0833509F059C021C0F8016A
:10269000808189830E5F1F4F88248394912C53017E
:1026A00013C02801F2E04F0E511CF801A080B18048
:1026B00036FE03C0692D70E002C06FEF7FEFC501E9
:1026C0000E94A6144C018201F32DFF773F2E16C005
:1026D000280122E0420E511CF801A080B18036FE94
:1026E00003C0692D70E002C06FEF7FEFC5010E944B
:1026F0009B144C01F32DF0683F2E820133FC1BC06C
:10270000822D90E088169906B0F4B60180E290E040
:102710000E94B1142A94F4CFF50137FC859137FE5D
:1027200081915F01B60190E00E94B11421102A94BA
:1027300021E0821A91088114910471F7E8C084366F
:1027400011F0893641F5F80137FE07C060817181CB
:10275000828193810C5F1F4F08C060817181072EB9
:10276000000C880B990B0E5F1F4FF32DFF763F2E49
:1027700097FF09C090958095709561957F4F8F4F19
:102780009F4FF0683F2E2AE030E0A3010E94ED1435
:10279000882E861845C0853731F4232D2F7EB22E22
:1027A0002AE030E025C0932D997FB92E8F36C1F0F5
:1027B00018F4883579F0B5C0803719F0883721F0E2
:1027C000B0C0E92FE061BE2EB4FE0DC0FB2DF46059
:1027D000BF2E09C034FE0AC0292F2660B22E06C0C3
:1027E00028E030E005C020E130E002C020E132E026
:1027F000F801B7FE07C060817181828193810C5F0F
:102800001F4F06C06081718180E090E00E5F1F4F16
:10281000A3010E94ED14882E8618FB2DFF773F2E12
:1028200036FE0DC0232D2E7FA22E891458F434FEBF
:102830000BC032FC09C0832D8E7EA82E05C0B82C9B
:10284000A32C03C0B82C01C0B92CA4FE0FC0FE01FC
:10285000E80DF11D8081803321F49A2D997EA92EF7
:1028600009C0A2FE06C0B394B39404C08A2D867832
:1028700009F0B394A3FC11C0A0FE06C0B21488F402
:10288000280C922C9B180EC0B21460F4B60180E2A2
:1028900090E00E94B114B394F7CFB21418F42B183F
:1028A00002C0982C212CA4FE10C0B60180E390E059
:1028B0000E94B114A2FE17C0A1FC03C088E790E0FB
:1028C00002C088E590E0B6010CC08A2D867859F0E8
:1028D000A1FE02C08BE201C080E2A7FC8DE2B6013E
:1028E00090E00E94B114891438F4B60180E390E0BE
:1028F0000E94B1149A94F7CF8A94F301E80DF11D68
:102900008081B60190E00E94B1148110F5CF2220A1
:1029100009F442CEB60180E290E00E94B1142A94FC
:10292000F6CFF6018681978102C08FEF9FEF2B963D
:10293000E2E10C946715FC010590615070400110B4
:10294000D8F7809590958E0F9F1F0895FC016150D8
:10295000704001900110D8F7809590958E0F9F1FC1
:1029600008950F931F93CF93DF93FB01238121FDE4
:1029700003C08FEF9FEF2CC022FF16C04681578106
:10298000248135814217530744F4A081B1819D0110
:102990002F5F3F4F318320838C93268137812F5FB8
:1029A0003F4F3783268314C08B01EC01FB01008469
:1029B000F185E02D0995892BE1F6D80116968D91C8
:1029C0009C911797019617969C938E931697CE011C
:1029D000DF91CF911F910F910895FA01AA27283016
:1029E00051F1203181F1E8946F936E7F6E5F7F4FDC
:1029F0008F4F9F4FAF4FB1E03ED0B4E03CD0670F58
:102A0000781F891F9A1FA11D680F791F8A1F911DAA
:102A1000A11D6A0F711D811D911DA11D20D009F4FA
:102A200068943F912AE0269F11243019305D31933C
:102A3000DEF6CF010895462F4770405D4193B3E025
:102A40000FD0C9F7F6CF462F4F70405D4A3318F0CC
:102A5000495D31FD4052419302D0A9F7EACFB4E07D
:102A6000A6959795879577956795BA95C9F7009735
:102A70006105710508959B01AC010A2E06945795D6
:102A8000479537952795BA95C9F7620F731F841F2D
:102A9000951FA01D08952F923F924F925F926F92C3
:102AA0007F928F929F92AF92BF92CF92DF92EF92DE
:102AB000FF920F931F93CF93DF93CDB7DEB7CA1B5F
:102AC000DB0B0FB6F894DEBF0FBECDBF09942A888A
:102AD000398848885F846E847D848C849B84AA8432
:102AE000B984C884DF80EE80FD800C811B81AA81BF
:102AF000B981CE0FD11D0FB6F894DEBF0FBECDBF8A
:082B0000ED010895F894FFCFE8
:102B08001815A015C019FF1815A115C819FF181513
:102B1800AE19FF1815AF19FF1815AE15D516801583
:102B2800A8163F15D316001540158D161415201636
:102B38000015A115C815DA1612158116CF15D91664
:102B4800F115DB1640152E15A415A619FF00011462
:102B58000A6464323200127A0000042896100800D1
:102B68000080004000000000001F018C00B6006CCF
:102B780001E700C500D90000000000E301D801B852
:102B880006CA01D101CE01CB0100000000190A8F4D
:102B980006B806B70600000000F6018C00B806B7B4
:102BA80006DF052509D20525642C202564000D0AB9
:022BB80000001B
:107800000C94343C0C94513C0C94513C0C94513CE1
:107810000C94513C0C94513C0C94513C0C94513CB4
:107820000C94513C0C94513C0C94513C0C94513CA4
:107830000C94513C0C94513C0C94513C0C94513C94
:107840000C94513C0C94513C0C94513C0C94513C84
:107850000C94513C0C94513C0C94513C0C94513C74
:107860000C94513C0C94513C11241FBECFEFD8E036
:10787000DEBFCDBF11E0A0E0B1E0ECE9FFE702C060
:1078800005900D92A230B107D9F712E0A2E0B1E065
:1078900001C01D92AD30B107E1F70E942D3D0C945F
:1078A000CC3F0C94003C982F959595959595959582
:1078B000905D8F708A307CF0282F295A8091C0000B
:1078C00085FFFCCF9093C6008091C00085FFFCCF60
:1078D0002093C6000895282F205DF0CF982F809127
:1078E000C00085FFFCCF9093C6000895EF92FF92F1
:1078F0000F931F93EE24FF2487018091C00087FD22
:1079000017C00894E11CF11C011D111D81E4E8164B
:1079100082E4F8068FE0080780E0180770F3E09132
:107920000401F091050109958091C00087FFE9CF1E
:107930008091C6001F910F91FF90EF9008950E94D3
:10794000763C982F8091C00085FFFCCF9093C600B5
:1079500091362CF490330CF09053892F089597555D
:10796000892F08951F930E949F3C182F0E949F3CCF
:107970001295107F810F1F9108951F93182F882350
:1079800021F00E94763C1150E1F71F9108951F935A
:10799000182F0E94763C803249F0809103018F5F5E
:1079A000809303018530C1F01F9108958091C0003C
:1079B00085FFFCCF84E18093C6008091C00085FFE5
:1079C000FCCF1093C6008091C00085FFFCCF80E102
:1079D0008093C6001F910895E0910401F091050184
:1079E00009951F9108950E94763C803241F0809164
:1079F00003018F5F80930301853081F008958091AA
:107A0000C00085FFFCCF84E18093C6008091C00058
:107A100085FFFCCF80E18093C6000895E0910401CA
:107A2000F09105010995089540E951E08823A1F0FE
:107A30002D9A28EE33E0FA013197F1F721503040CA
:107A4000D1F72D9828EE33E0FA013197F1F7215064
:107A50003040D1F7815061F708953F924F925F9285
:107A60006F927F928F929F92AF92BF92CF92DF924E
:107A7000EF92FF920F931F93CF93DF93000080E16B
:107A80008093C4001092C50088E18093C10086E015
:107A90008093C2005098589A259A81E00E94143D24
:107AA00024E1F22E9EE1E92E85E9D82E0FE0C02ECA
:107AB00010E1B12EAA24A394B1E49B2EA6E58A2E50
:107AC000F2E57F2EE0E26E2E79E4572E63E5462E36
:107AD00050E5352E0E94763C8033B1F18133B9F107
:107AE000803409F46FC0813409F476C0823409F41B
:107AF00085C0853409F488C0803531F1823521F1A3
:107B0000813511F1853509F485C0863509F48DC0BC
:107B1000843609F496C0843709F403C1853709F423
:107B200072C1863709F466C0809103018F5F80932C
:107B30000301853079F6E0910401F0910501099582
:107B40000E94763C803351F60E94F33CC3CF0E94E2
:107B5000763C803249F78091C00085FFFCCFF092DF
:107B6000C6008091C00085FFFCCF9092C600809136
:107B7000C00085FFFCCF8092C6008091C00085FFC9
:107B8000FCCF7092C6008091C00085FFFCCF609250
:107B9000C6008091C00085FFFCCF5092C600809146
:107BA000C00085FFFCCF4092C6008091C00085FFD9
:107BB000FCCF3092C6008091C00085FFFCCFB09210
:107BC000C60088CF0E94763C863808F4BDCF0E945C
:107BD000763C0E94F33C7ECF0E94763C803809F4CC
:107BE0009CC0813809F40BC1823809F43CC1883942
:107BF00009F48FC080E00E94C73C6CCF84E10E94F2
:107C0000BD3C0E94F33C66CF85E00E94BD3C0E94D3
:107C1000F33C60CF0E94763C809306010E94763C44
:107C2000809307010E94F33C55CF0E94763C80333D
:107C300009F41DC183E00E94BD3C80E00E94C73C66
:107C400049CF0E94763C809309020E94763C809343
:107C5000080280910C028E7F80930C020E94763C79
:107C6000853409F415C18091080290910902892B8D
:107C700089F000E010E00E94763CF801E85FFE4FDA
:107C800080830F5F1F4F80910802909109020817AF
:107C9000190788F30E94763C803209F045CF809125
:107CA0000C0280FF01C16091060170910701660F0F
:107CB000771F7093070160930601A0910802B091AD
:107CC00009021097C9F0E8E0F1E09B01AD014E0F09
:107CD0005F1FF999FECF32BD21BD819180BDFA9A17
:107CE000F99A2F5F3F4FE417F50799F76A0F7B1F4B
:107CF00070930701609306018091C00085FFFCCF5F
:107D0000F092C6008091C00085FFFCCFB092C60003
:107D1000E1CE83E00E94C73CDDCE82E00E94C73CFA
:107D2000D9CE0E94763C809309020E94763C8093D3
:107D300008028091060190910701880F991F909386
:107D40000701809306010E94763C853409F4A6C0A1
:107D500080910C028E7F80930C020E94763C8032D0
:107D600009F0B8CE8091C00085FFFCCFF092C6002C
:107D7000609108027091090261157105B9F140E046
:107D800050E080910C02A82FA170B82FB27011C0E2
:107D9000BB2309F45CC0E0910601F0910701319624
:107DA000F0930701E09306014F5F5F4F46175707B7
:107DB000E8F4AA2369F3F999FECF209106013091E6
:107DC000070132BD21BDF89A90B58091C00085FFB2
:107DD000FCCF9093C6002F5F3F4F30930701209355
:107DE00006014F5F5F4F4617570718F38091C00099
:107DF00085FDE5CE8091C00085FFF8CFE0CE81E023
:107E00000E94C73C67CE0E94763C803209F08CCE3F
:107E10008091C00085FFFCCFF092C6008091C00029
:107E200085FFFCCFE092C6008091C00085FFFCCFAB
:107E3000D092C6008091C00085FFFCCFC092C600E2
:107E40008091C00085FFFCCFB092C60043CEE09188
:107E50000601F091070194918091C00085FFFCCF4D
:107E60009093C6009CCF80E10E94C73C33CE0E9415
:107E7000763C0E94763C182F0E94763C112309F430
:107E800083C0113009F484C08FE00E94C73C22CE29
:107E900080910C02816080930C02E5CE80910C02EF
:107EA000816080930C0259CF809107018823880F4D
:107EB000880B8A2180930B02809106019091070123
:107EC000880F991F90930701809306018091080203
:107ED00080FF09C080910802909109020196909359
:107EE000090280930802F894F999FECF1127E091D6
:107EF0000601F0910701C8E0D1E08091080290915D
:107F00000902103091F40091570001700130D9F34B
:107F100003E000935700E89500915700017001308D
:107F2000D9F301E100935700E89509901990009169
:107F3000570001700130D9F301E000935700E89534
:107F40001395103498F011270091570001700130FB
:107F5000D9F305E000935700E895009157000170B0
:107F60000130D9F301E100935700E895329602976A
:107F700009F0C7CF103011F00296E5CF112480919F
:107F8000C00085FFB9CEBCCE8EE10E94C73CA2CD19
:0C7F900085E90E94C73C9ECDF894FFCF0D
:027F9C00800063
:040000030000780081
:00000001FF